{
	"SportCrypto.sol": {
		"Sportcrypto": {
			"abi": [
				{
					"inputs": [],
					"stateMutability": "nonpayable",
					"type": "constructor"
				},
				{
					"anonymous": false,
					"inputs": [
						{
							"indexed": true,
							"internalType": "address",
							"name": "owner",
							"type": "address"
						},
						{
							"indexed": true,
							"internalType": "address",
							"name": "spender",
							"type": "address"
						},
						{
							"indexed": false,
							"internalType": "uint256",
							"name": "value",
							"type": "uint256"
						}
					],
					"name": "Approval",
					"type": "event"
				},
				{
					"anonymous": false,
					"inputs": [
						{
							"indexed": false,
							"internalType": "uint256",
							"name": "proposalId",
							"type": "uint256"
						},
						{
							"indexed": false,
							"internalType": "string",
							"name": "description",
							"type": "string"
						}
					],
					"name": "ProposalCreated",
					"type": "event"
				},
				{
					"anonymous": false,
					"inputs": [
						{
							"indexed": false,
							"internalType": "uint256",
							"name": "proposalId",
							"type": "uint256"
						},
						{
							"indexed": false,
							"internalType": "string",
							"name": "description",
							"type": "string"
						}
					],
					"name": "ProposalExecuted",
					"type": "event"
				},
				{
					"anonymous": false,
					"inputs": [
						{
							"indexed": true,
							"internalType": "address",
							"name": "from",
							"type": "address"
						},
						{
							"indexed": true,
							"internalType": "address",
							"name": "to",
							"type": "address"
						},
						{
							"indexed": false,
							"internalType": "uint256",
							"name": "value",
							"type": "uint256"
						}
					],
					"name": "Transfer",
					"type": "event"
				},
				{
					"anonymous": false,
					"inputs": [
						{
							"indexed": false,
							"internalType": "address",
							"name": "voter",
							"type": "address"
						},
						{
							"indexed": false,
							"internalType": "uint256",
							"name": "proposalId",
							"type": "uint256"
						}
					],
					"name": "VoteCasted",
					"type": "event"
				},
				{
					"inputs": [
						{
							"internalType": "address",
							"name": "",
							"type": "address"
						},
						{
							"internalType": "address",
							"name": "",
							"type": "address"
						}
					],
					"name": "allowance",
					"outputs": [
						{
							"internalType": "uint256",
							"name": "",
							"type": "uint256"
						}
					],
					"stateMutability": "view",
					"type": "function"
				},
				{
					"inputs": [
						{
							"internalType": "address",
							"name": "spender",
							"type": "address"
						},
						{
							"internalType": "uint256",
							"name": "value",
							"type": "uint256"
						}
					],
					"name": "approve",
					"outputs": [
						{
							"internalType": "bool",
							"name": "",
							"type": "bool"
						}
					],
					"stateMutability": "nonpayable",
					"type": "function"
				},
				{
					"inputs": [
						{
							"internalType": "address",
							"name": "account",
							"type": "address"
						}
					],
					"name": "balanceOf",
					"outputs": [
						{
							"internalType": "uint256",
							"name": "",
							"type": "uint256"
						}
					],
					"stateMutability": "view",
					"type": "function"
				},
				{
					"inputs": [
						{
							"internalType": "address",
							"name": "",
							"type": "address"
						}
					],
					"name": "balances",
					"outputs": [
						{
							"internalType": "uint256",
							"name": "",
							"type": "uint256"
						}
					],
					"stateMutability": "view",
					"type": "function"
				},
				{
					"inputs": [],
					"name": "contractOwner",
					"outputs": [
						{
							"internalType": "address",
							"name": "",
							"type": "address"
						}
					],
					"stateMutability": "view",
					"type": "function"
				},
				{
					"inputs": [
						{
							"internalType": "string",
							"name": "description",
							"type": "string"
						}
					],
					"name": "createProposal",
					"outputs": [],
					"stateMutability": "nonpayable",
					"type": "function"
				},
				{
					"inputs": [],
					"name": "decimals",
					"outputs": [
						{
							"internalType": "uint8",
							"name": "",
							"type": "uint8"
						}
					],
					"stateMutability": "view",
					"type": "function"
				},
				{
					"inputs": [
						{
							"internalType": "uint256",
							"name": "proposalId",
							"type": "uint256"
						}
					],
					"name": "executeProposal",
					"outputs": [],
					"stateMutability": "nonpayable",
					"type": "function"
				},
				{
					"inputs": [],
					"name": "getProposals",
					"outputs": [
						{
							"components": [
								{
									"internalType": "string",
									"name": "description",
									"type": "string"
								},
								{
									"internalType": "uint256",
									"name": "voteCount",
									"type": "uint256"
								},
								{
									"internalType": "bool",
									"name": "executed",
									"type": "bool"
								}
							],
							"internalType": "struct Sportcrypto.Proposal[]",
							"name": "",
							"type": "tuple[]"
						}
					],
					"stateMutability": "view",
					"type": "function"
				},
				{
					"inputs": [],
					"name": "name",
					"outputs": [
						{
							"internalType": "string",
							"name": "",
							"type": "string"
						}
					],
					"stateMutability": "view",
					"type": "function"
				},
				{
					"inputs": [
						{
							"internalType": "uint256",
							"name": "",
							"type": "uint256"
						}
					],
					"name": "proposals",
					"outputs": [
						{
							"internalType": "string",
							"name": "description",
							"type": "string"
						},
						{
							"internalType": "uint256",
							"name": "voteCount",
							"type": "uint256"
						},
						{
							"internalType": "bool",
							"name": "executed",
							"type": "bool"
						}
					],
					"stateMutability": "view",
					"type": "function"
				},
				{
					"inputs": [],
					"name": "symbol",
					"outputs": [
						{
							"internalType": "string",
							"name": "",
							"type": "string"
						}
					],
					"stateMutability": "view",
					"type": "function"
				},
				{
					"inputs": [],
					"name": "totalSupply",
					"outputs": [
						{
							"internalType": "uint256",
							"name": "",
							"type": "uint256"
						}
					],
					"stateMutability": "view",
					"type": "function"
				},
				{
					"inputs": [
						{
							"internalType": "address",
							"name": "to",
							"type": "address"
						},
						{
							"internalType": "uint256",
							"name": "value",
							"type": "uint256"
						}
					],
					"name": "transfer",
					"outputs": [
						{
							"internalType": "bool",
							"name": "",
							"type": "bool"
						}
					],
					"stateMutability": "nonpayable",
					"type": "function"
				},
				{
					"inputs": [
						{
							"internalType": "address",
							"name": "from",
							"type": "address"
						},
						{
							"internalType": "address",
							"name": "to",
							"type": "address"
						},
						{
							"internalType": "uint256",
							"name": "value",
							"type": "uint256"
						}
					],
					"name": "transferFrom",
					"outputs": [
						{
							"internalType": "bool",
							"name": "",
							"type": "bool"
						}
					],
					"stateMutability": "nonpayable",
					"type": "function"
				},
				{
					"inputs": [
						{
							"internalType": "uint256",
							"name": "proposalId",
							"type": "uint256"
						}
					],
					"name": "vote",
					"outputs": [],
					"stateMutability": "nonpayable",
					"type": "function"
				},
				{
					"inputs": [
						{
							"internalType": "uint256",
							"name": "",
							"type": "uint256"
						},
						{
							"internalType": "address",
							"name": "",
							"type": "address"
						}
					],
					"name": "voted",
					"outputs": [
						{
							"internalType": "bool",
							"name": "",
							"type": "bool"
						}
					],
					"stateMutability": "view",
					"type": "function"
				}
			],
			"devdoc": {
				"kind": "dev",
				"methods": {},
				"version": 1
			},
			"evm": {
				"assembly": "    /* \"SportCrypto.sol\":113:4862  contract Sportcrypto {... */\n  mstore(0x40, 0x80)\n    /* \"SportCrypto.sol\":427:441  1000000*10**18 */\n  0xd3c21bcecceda1000000\n    /* \"SportCrypto.sol\":398:441  uint256 public totalSupply = 1000000*10**18 */\n  0x02\n  sstore\n    /* \"SportCrypto.sol\":492:526  string public name = \"SportCrypto\" */\n  mload(0x40)\n  dup1\n  0x40\n  add\n  0x40\n  mstore\n  dup1\n  0x0b\n  dup2\n  mstore\n  0x20\n  add\n  0x53706f727443727970746f000000000000000000000000000000000000000000\n  dup2\n  mstore\n  pop\n  0x03\n  swap1\n  dup2\n  tag_1\n  swap2\n  swap1\n  tag_2\n  jump\t// in\ntag_1:\n  pop\n    /* \"SportCrypto.sol\":547:574  string public symbol = \"SP\" */\n  mload(0x40)\n  dup1\n  0x40\n  add\n  0x40\n  mstore\n  dup1\n  0x02\n  dup2\n  mstore\n  0x20\n  add\n  0x5350000000000000000000000000000000000000000000000000000000000000\n  dup2\n  mstore\n  pop\n  0x04\n  swap1\n  dup2\n  tag_3\n  swap2\n  swap1\n  tag_2\n  jump\t// in\ntag_3:\n  pop\n    /* \"SportCrypto.sol\":621:623  18 */\n  0x12\n    /* \"SportCrypto.sol\":597:623  uint8 public decimals = 18 */\n  0x05\n  exp(0x0100, 0x00)\n  dup2\n  sload\n  dup2\n  0xff\n  mul\n  not\n  and\n  swap1\n  dup4\n  0xff\n  and\n  mul\n  or\n  swap1\n  sstore\n  pop\n    /* \"SportCrypto.sol\":1735:1909  constructor() {... */\n  callvalue\n  dup1\n  iszero\n  tag_4\n  jumpi\n  0x00\n  dup1\n  revert\ntag_4:\n  pop\n    /* \"SportCrypto.sol\":1783:1794  totalSupply */\n  sload(0x02)\n    /* \"SportCrypto.sol\":1760:1768  balances */\n  0x00\n    /* \"SportCrypto.sol\":1760:1780  balances[msg.sender] */\n  dup1\n    /* \"SportCrypto.sol\":1769:1779  msg.sender */\n  caller\n    /* \"SportCrypto.sol\":1760:1780  balances[msg.sender] */\n  0xffffffffffffffffffffffffffffffffffffffff\n  and\n  0xffffffffffffffffffffffffffffffffffffffff\n  and\n  dup2\n  mstore\n  0x20\n  add\n  swap1\n  dup2\n  mstore\n  0x20\n  add\n  0x00\n  keccak256\n    /* \"SportCrypto.sol\":1760:1794  balances[msg.sender] = totalSupply */\n  dup2\n  swap1\n  sstore\n  pop\n    /* \"SportCrypto.sol\":1858:1868  msg.sender */\n  caller\n    /* \"SportCrypto.sol\":1842:1855  contractOwner */\n  0x08\n  0x00\n    /* \"SportCrypto.sol\":1842:1868  contractOwner = msg.sender */\n  0x0100\n  exp\n  dup2\n  sload\n  dup2\n  0xffffffffffffffffffffffffffffffffffffffff\n  mul\n  not\n  and\n  swap1\n  dup4\n  0xffffffffffffffffffffffffffffffffffffffff\n  and\n  mul\n  or\n  swap1\n  sstore\n  pop\n    /* \"SportCrypto.sol\":113:4862  contract Sportcrypto {... */\n  jump(tag_7)\n    /* \"#utility.yul\":7:106   */\ntag_8:\n    /* \"#utility.yul\":59:65   */\n  0x00\n    /* \"#utility.yul\":93:98   */\n  dup2\n    /* \"#utility.yul\":87:99   */\n  mload\n    /* \"#utility.yul\":77:99   */\n  swap1\n  pop\n    /* \"#utility.yul\":7:106   */\n  swap2\n  swap1\n  pop\n  jump\t// out\n    /* \"#utility.yul\":112:292   */\ntag_9:\n    /* \"#utility.yul\":160:237   */\n  0x4e487b7100000000000000000000000000000000000000000000000000000000\n    /* \"#utility.yul\":157:158   */\n  0x00\n    /* \"#utility.yul\":150:238   */\n  mstore\n    /* \"#utility.yul\":257:261   */\n  0x41\n    /* \"#utility.yul\":254:255   */\n  0x04\n    /* \"#utility.yul\":247:262   */\n  mstore\n    /* \"#utility.yul\":281:285   */\n  0x24\n    /* \"#utility.yul\":278:279   */\n  0x00\n    /* \"#utility.yul\":271:286   */\n  revert\n    /* \"#utility.yul\":298:478   */\ntag_10:\n    /* \"#utility.yul\":346:423   */\n  0x4e487b7100000000000000000000000000000000000000000000000000000000\n    /* \"#utility.yul\":343:344   */\n  0x00\n    /* \"#utility.yul\":336:424   */\n  mstore\n    /* \"#utility.yul\":443:447   */\n  0x22\n    /* \"#utility.yul\":440:441   */\n  0x04\n    /* \"#utility.yul\":433:448   */\n  mstore\n    /* \"#utility.yul\":467:471   */\n  0x24\n    /* \"#utility.yul\":464:465   */\n  0x00\n    /* \"#utility.yul\":457:472   */\n  revert\n    /* \"#utility.yul\":484:804   */\ntag_11:\n    /* \"#utility.yul\":528:534   */\n  0x00\n    /* \"#utility.yul\":565:566   */\n  0x02\n    /* \"#utility.yul\":559:563   */\n  dup3\n    /* \"#utility.yul\":555:567   */\n  div\n    /* \"#utility.yul\":545:567   */\n  swap1\n  pop\n    /* \"#utility.yul\":612:613   */\n  0x01\n    /* \"#utility.yul\":606:610   */\n  dup3\n    /* \"#utility.yul\":602:614   */\n  and\n    /* \"#utility.yul\":633:651   */\n  dup1\n    /* \"#utility.yul\":623:704   */\n  tag_33\n  jumpi\n    /* \"#utility.yul\":689:693   */\n  0x7f\n    /* \"#utility.yul\":681:687   */\n  dup3\n    /* \"#utility.yul\":677:694   */\n  and\n    /* \"#utility.yul\":667:694   */\n  swap2\n  pop\n    /* \"#utility.yul\":623:704   */\ntag_33:\n    /* \"#utility.yul\":751:753   */\n  0x20\n    /* \"#utility.yul\":743:749   */\n  dup3\n    /* \"#utility.yul\":740:754   */\n  lt\n    /* \"#utility.yul\":720:738   */\n  dup2\n    /* \"#utility.yul\":717:755   */\n  sub\n    /* \"#utility.yul\":714:798   */\n  tag_34\n  jumpi\n    /* \"#utility.yul\":770:788   */\n  tag_35\n  tag_10\n  jump\t// in\ntag_35:\n    /* \"#utility.yul\":714:798   */\ntag_34:\n    /* \"#utility.yul\":535:804   */\n  pop\n    /* \"#utility.yul\":484:804   */\n  swap2\n  swap1\n  pop\n  jump\t// out\n    /* \"#utility.yul\":810:951   */\ntag_12:\n    /* \"#utility.yul\":859:863   */\n  0x00\n    /* \"#utility.yul\":882:885   */\n  dup2\n    /* \"#utility.yul\":874:885   */\n  swap1\n  pop\n    /* \"#utility.yul\":905:908   */\n  dup2\n    /* \"#utility.yul\":902:903   */\n  0x00\n    /* \"#utility.yul\":895:909   */\n  mstore\n    /* \"#utility.yul\":939:943   */\n  0x20\n    /* \"#utility.yul\":936:937   */\n  0x00\n    /* \"#utility.yul\":926:944   */\n  keccak256\n    /* \"#utility.yul\":918:944   */\n  swap1\n  pop\n    /* \"#utility.yul\":810:951   */\n  swap2\n  swap1\n  pop\n  jump\t// out\n    /* \"#utility.yul\":957:1050   */\ntag_13:\n    /* \"#utility.yul\":994:1000   */\n  0x00\n    /* \"#utility.yul\":1041:1043   */\n  0x20\n    /* \"#utility.yul\":1036:1038   */\n  0x1f\n    /* \"#utility.yul\":1029:1034   */\n  dup4\n    /* \"#utility.yul\":1025:1039   */\n  add\n    /* \"#utility.yul\":1021:1044   */\n  div\n    /* \"#utility.yul\":1011:1044   */\n  swap1\n  pop\n    /* \"#utility.yul\":957:1050   */\n  swap2\n  swap1\n  pop\n  jump\t// out\n    /* \"#utility.yul\":1056:1163   */\ntag_14:\n    /* \"#utility.yul\":1100:1108   */\n  0x00\n    /* \"#utility.yul\":1150:1155   */\n  dup3\n    /* \"#utility.yul\":1144:1148   */\n  dup3\n    /* \"#utility.yul\":1140:1156   */\n  shl\n    /* \"#utility.yul\":1119:1156   */\n  swap1\n  pop\n    /* \"#utility.yul\":1056:1163   */\n  swap3\n  swap2\n  pop\n  pop\n  jump\t// out\n    /* \"#utility.yul\":1169:1562   */\ntag_15:\n    /* \"#utility.yul\":1238:1244   */\n  0x00\n    /* \"#utility.yul\":1288:1289   */\n  0x08\n    /* \"#utility.yul\":1276:1286   */\n  dup4\n    /* \"#utility.yul\":1272:1290   */\n  mul\n    /* \"#utility.yul\":1311:1408   */\n  tag_40\n    /* \"#utility.yul\":1341:1407   */\n  0xffffffffffffffffffffffffffffffffffffffffffffffffffffffffffffffff\n    /* \"#utility.yul\":1330:1339   */\n  dup3\n    /* \"#utility.yul\":1311:1408   */\n  tag_14\n  jump\t// in\ntag_40:\n    /* \"#utility.yul\":1429:1468   */\n  tag_41\n    /* \"#utility.yul\":1459:1467   */\n  dup7\n    /* \"#utility.yul\":1448:1457   */\n  dup4\n    /* \"#utility.yul\":1429:1468   */\n  tag_14\n  jump\t// in\ntag_41:\n    /* \"#utility.yul\":1417:1468   */\n  swap6\n  pop\n    /* \"#utility.yul\":1501:1505   */\n  dup1\n    /* \"#utility.yul\":1497:1506   */\n  not\n    /* \"#utility.yul\":1490:1495   */\n  dup5\n    /* \"#utility.yul\":1486:1507   */\n  and\n    /* \"#utility.yul\":1477:1507   */\n  swap4\n  pop\n    /* \"#utility.yul\":1550:1554   */\n  dup1\n    /* \"#utility.yul\":1540:1548   */\n  dup7\n    /* \"#utility.yul\":1536:1555   */\n  and\n    /* \"#utility.yul\":1529:1534   */\n  dup5\n    /* \"#utility.yul\":1526:1556   */\n  or\n    /* \"#utility.yul\":1516:1556   */\n  swap3\n  pop\n    /* \"#utility.yul\":1245:1562   */\n  pop\n  pop\n    /* \"#utility.yul\":1169:1562   */\n  swap4\n  swap3\n  pop\n  pop\n  pop\n  jump\t// out\n    /* \"#utility.yul\":1568:1645   */\ntag_16:\n    /* \"#utility.yul\":1605:1612   */\n  0x00\n    /* \"#utility.yul\":1634:1639   */\n  dup2\n    /* \"#utility.yul\":1623:1639   */\n  swap1\n  pop\n    /* \"#utility.yul\":1568:1645   */\n  swap2\n  swap1\n  pop\n  jump\t// out\n    /* \"#utility.yul\":1651:1711   */\ntag_17:\n    /* \"#utility.yul\":1679:1682   */\n  0x00\n    /* \"#utility.yul\":1700:1705   */\n  dup2\n    /* \"#utility.yul\":1693:1705   */\n  swap1\n  pop\n    /* \"#utility.yul\":1651:1711   */\n  swap2\n  swap1\n  pop\n  jump\t// out\n    /* \"#utility.yul\":1717:1859   */\ntag_18:\n    /* \"#utility.yul\":1767:1776   */\n  0x00\n    /* \"#utility.yul\":1800:1853   */\n  tag_45\n    /* \"#utility.yul\":1818:1852   */\n  tag_46\n    /* \"#utility.yul\":1827:1851   */\n  tag_47\n    /* \"#utility.yul\":1845:1850   */\n  dup5\n    /* \"#utility.yul\":1827:1851   */\n  tag_16\n  jump\t// in\ntag_47:\n    /* \"#utility.yul\":1818:1852   */\n  tag_17\n  jump\t// in\ntag_46:\n    /* \"#utility.yul\":1800:1853   */\n  tag_16\n  jump\t// in\ntag_45:\n    /* \"#utility.yul\":1787:1853   */\n  swap1\n  pop\n    /* \"#utility.yul\":1717:1859   */\n  swap2\n  swap1\n  pop\n  jump\t// out\n    /* \"#utility.yul\":1865:1940   */\ntag_19:\n    /* \"#utility.yul\":1908:1911   */\n  0x00\n    /* \"#utility.yul\":1929:1934   */\n  dup2\n    /* \"#utility.yul\":1922:1934   */\n  swap1\n  pop\n    /* \"#utility.yul\":1865:1940   */\n  swap2\n  swap1\n  pop\n  jump\t// out\n    /* \"#utility.yul\":1946:2215   */\ntag_20:\n    /* \"#utility.yul\":2056:2095   */\n  tag_50\n    /* \"#utility.yul\":2087:2094   */\n  dup4\n    /* \"#utility.yul\":2056:2095   */\n  tag_18\n  jump\t// in\ntag_50:\n    /* \"#utility.yul\":2117:2208   */\n  tag_51\n    /* \"#utility.yul\":2166:2207   */\n  tag_52\n    /* \"#utility.yul\":2190:2206   */\n  dup3\n    /* \"#utility.yul\":2166:2207   */\n  tag_19\n  jump\t// in\ntag_52:\n    /* \"#utility.yul\":2158:2164   */\n  dup5\n    /* \"#utility.yul\":2151:2155   */\n  dup5\n    /* \"#utility.yul\":2145:2156   */\n  sload\n    /* \"#utility.yul\":2117:2208   */\n  tag_15\n  jump\t// in\ntag_51:\n    /* \"#utility.yul\":2111:2115   */\n  dup3\n    /* \"#utility.yul\":2104:2209   */\n  sstore\n    /* \"#utility.yul\":2022:2215   */\n  pop\n    /* \"#utility.yul\":1946:2215   */\n  pop\n  pop\n  pop\n  jump\t// out\n    /* \"#utility.yul\":2221:2294   */\ntag_21:\n    /* \"#utility.yul\":2266:2269   */\n  0x00\n    /* \"#utility.yul\":2221:2294   */\n  swap1\n  jump\t// out\n    /* \"#utility.yul\":2300:2489   */\ntag_22:\n    /* \"#utility.yul\":2377:2409   */\n  tag_55\n  tag_21\n  jump\t// in\ntag_55:\n    /* \"#utility.yul\":2418:2483   */\n  tag_56\n    /* \"#utility.yul\":2476:2482   */\n  dup2\n    /* \"#utility.yul\":2468:2474   */\n  dup5\n    /* \"#utility.yul\":2462:2466   */\n  dup5\n    /* \"#utility.yul\":2418:2483   */\n  tag_20\n  jump\t// in\ntag_56:\n    /* \"#utility.yul\":2353:2489   */\n  pop\n    /* \"#utility.yul\":2300:2489   */\n  pop\n  pop\n  jump\t// out\n    /* \"#utility.yul\":2495:2681   */\ntag_23:\n    /* \"#utility.yul\":2555:2675   */\ntag_58:\n    /* \"#utility.yul\":2572:2575   */\n  dup2\n    /* \"#utility.yul\":2565:2570   */\n  dup2\n    /* \"#utility.yul\":2562:2576   */\n  lt\n    /* \"#utility.yul\":2555:2675   */\n  iszero\n  tag_60\n  jumpi\n    /* \"#utility.yul\":2626:2665   */\n  tag_61\n    /* \"#utility.yul\":2663:2664   */\n  0x00\n    /* \"#utility.yul\":2656:2661   */\n  dup3\n    /* \"#utility.yul\":2626:2665   */\n  tag_22\n  jump\t// in\ntag_61:\n    /* \"#utility.yul\":2599:2600   */\n  0x01\n    /* \"#utility.yul\":2592:2597   */\n  dup2\n    /* \"#utility.yul\":2588:2601   */\n  add\n    /* \"#utility.yul\":2579:2601   */\n  swap1\n  pop\n    /* \"#utility.yul\":2555:2675   */\n  jump(tag_58)\ntag_60:\n    /* \"#utility.yul\":2495:2681   */\n  pop\n  pop\n  jump\t// out\n    /* \"#utility.yul\":2687:3230   */\ntag_24:\n    /* \"#utility.yul\":2788:2790   */\n  0x1f\n    /* \"#utility.yul\":2783:2786   */\n  dup3\n    /* \"#utility.yul\":2780:2791   */\n  gt\n    /* \"#utility.yul\":2777:3223   */\n  iszero\n  tag_63\n  jumpi\n    /* \"#utility.yul\":2822:2860   */\n  tag_64\n    /* \"#utility.yul\":2854:2859   */\n  dup2\n    /* \"#utility.yul\":2822:2860   */\n  tag_12\n  jump\t// in\ntag_64:\n    /* \"#utility.yul\":2906:2935   */\n  tag_65\n    /* \"#utility.yul\":2924:2934   */\n  dup5\n    /* \"#utility.yul\":2906:2935   */\n  tag_13\n  jump\t// in\ntag_65:\n    /* \"#utility.yul\":2896:2904   */\n  dup2\n    /* \"#utility.yul\":2892:2936   */\n  add\n    /* \"#utility.yul\":3089:3091   */\n  0x20\n    /* \"#utility.yul\":3077:3087   */\n  dup6\n    /* \"#utility.yul\":3074:3092   */\n  lt\n    /* \"#utility.yul\":3071:3120   */\n  iszero\n  tag_66\n  jumpi\n    /* \"#utility.yul\":3110:3118   */\n  dup2\n    /* \"#utility.yul\":3095:3118   */\n  swap1\n  pop\n    /* \"#utility.yul\":3071:3120   */\ntag_66:\n    /* \"#utility.yul\":3133:3213   */\n  tag_67\n    /* \"#utility.yul\":3189:3211   */\n  tag_68\n    /* \"#utility.yul\":3207:3210   */\n  dup6\n    /* \"#utility.yul\":3189:3211   */\n  tag_13\n  jump\t// in\ntag_68:\n    /* \"#utility.yul\":3179:3187   */\n  dup4\n    /* \"#utility.yul\":3175:3212   */\n  add\n    /* \"#utility.yul\":3162:3173   */\n  dup3\n    /* \"#utility.yul\":3133:3213   */\n  tag_23\n  jump\t// in\ntag_67:\n    /* \"#utility.yul\":2792:3223   */\n  pop\n  pop\n    /* \"#utility.yul\":2777:3223   */\ntag_63:\n    /* \"#utility.yul\":2687:3230   */\n  pop\n  pop\n  pop\n  jump\t// out\n    /* \"#utility.yul\":3236:3353   */\ntag_25:\n    /* \"#utility.yul\":3290:3298   */\n  0x00\n    /* \"#utility.yul\":3340:3345   */\n  dup3\n    /* \"#utility.yul\":3334:3338   */\n  dup3\n    /* \"#utility.yul\":3330:3346   */\n  shr\n    /* \"#utility.yul\":3309:3346   */\n  swap1\n  pop\n    /* \"#utility.yul\":3236:3353   */\n  swap3\n  swap2\n  pop\n  pop\n  jump\t// out\n    /* \"#utility.yul\":3359:3528   */\ntag_26:\n    /* \"#utility.yul\":3403:3409   */\n  0x00\n    /* \"#utility.yul\":3436:3487   */\n  tag_71\n    /* \"#utility.yul\":3484:3485   */\n  0x00\n    /* \"#utility.yul\":3480:3486   */\n  not\n    /* \"#utility.yul\":3472:3477   */\n  dup5\n    /* \"#utility.yul\":3469:3470   */\n  0x08\n    /* \"#utility.yul\":3465:3478   */\n  mul\n    /* \"#utility.yul\":3436:3487   */\n  tag_25\n  jump\t// in\ntag_71:\n    /* \"#utility.yul\":3432:3488   */\n  not\n    /* \"#utility.yul\":3517:3521   */\n  dup1\n    /* \"#utility.yul\":3511:3515   */\n  dup4\n    /* \"#utility.yul\":3507:3522   */\n  and\n    /* \"#utility.yul\":3497:3522   */\n  swap2\n  pop\n    /* \"#utility.yul\":3410:3528   */\n  pop\n    /* \"#utility.yul\":3359:3528   */\n  swap3\n  swap2\n  pop\n  pop\n  jump\t// out\n    /* \"#utility.yul\":3533:3828   */\ntag_27:\n    /* \"#utility.yul\":3609:3613   */\n  0x00\n    /* \"#utility.yul\":3755:3784   */\n  tag_73\n    /* \"#utility.yul\":3780:3783   */\n  dup4\n    /* \"#utility.yul\":3774:3778   */\n  dup4\n    /* \"#utility.yul\":3755:3784   */\n  tag_26\n  jump\t// in\ntag_73:\n    /* \"#utility.yul\":3747:3784   */\n  swap2\n  pop\n    /* \"#utility.yul\":3817:3820   */\n  dup3\n    /* \"#utility.yul\":3814:3815   */\n  0x02\n    /* \"#utility.yul\":3810:3821   */\n  mul\n    /* \"#utility.yul\":3804:3808   */\n  dup3\n    /* \"#utility.yul\":3801:3822   */\n  or\n    /* \"#utility.yul\":3793:3822   */\n  swap1\n  pop\n    /* \"#utility.yul\":3533:3828   */\n  swap3\n  swap2\n  pop\n  pop\n  jump\t// out\n    /* \"#utility.yul\":3833:5228   */\ntag_2:\n    /* \"#utility.yul\":3950:3987   */\n  tag_75\n    /* \"#utility.yul\":3983:3986   */\n  dup3\n    /* \"#utility.yul\":3950:3987   */\n  tag_8\n  jump\t// in\ntag_75:\n    /* \"#utility.yul\":4052:4070   */\n  0xffffffffffffffff\n    /* \"#utility.yul\":4044:4050   */\n  dup2\n    /* \"#utility.yul\":4041:4071   */\n  gt\n    /* \"#utility.yul\":4038:4094   */\n  iszero\n  tag_76\n  jumpi\n    /* \"#utility.yul\":4074:4092   */\n  tag_77\n  tag_9\n  jump\t// in\ntag_77:\n    /* \"#utility.yul\":4038:4094   */\ntag_76:\n    /* \"#utility.yul\":4118:4156   */\n  tag_78\n    /* \"#utility.yul\":4150:4154   */\n  dup3\n    /* \"#utility.yul\":4144:4155   */\n  sload\n    /* \"#utility.yul\":4118:4156   */\n  tag_11\n  jump\t// in\ntag_78:\n    /* \"#utility.yul\":4203:4270   */\n  tag_79\n    /* \"#utility.yul\":4263:4269   */\n  dup3\n    /* \"#utility.yul\":4255:4261   */\n  dup3\n    /* \"#utility.yul\":4249:4253   */\n  dup6\n    /* \"#utility.yul\":4203:4270   */\n  tag_24\n  jump\t// in\ntag_79:\n    /* \"#utility.yul\":4297:4298   */\n  0x00\n    /* \"#utility.yul\":4321:4325   */\n  0x20\n    /* \"#utility.yul\":4308:4325   */\n  swap1\n  pop\n    /* \"#utility.yul\":4353:4355   */\n  0x1f\n    /* \"#utility.yul\":4345:4351   */\n  dup4\n    /* \"#utility.yul\":4342:4356   */\n  gt\n    /* \"#utility.yul\":4370:4371   */\n  0x01\n    /* \"#utility.yul\":4365:4983   */\n  dup2\n  eq\n  tag_81\n  jumpi\n    /* \"#utility.yul\":5027:5028   */\n  0x00\n    /* \"#utility.yul\":5044:5050   */\n  dup5\n    /* \"#utility.yul\":5041:5118   */\n  iszero\n  tag_82\n  jumpi\n    /* \"#utility.yul\":5093:5102   */\n  dup3\n    /* \"#utility.yul\":5088:5091   */\n  dup8\n    /* \"#utility.yul\":5084:5103   */\n  add\n    /* \"#utility.yul\":5078:5104   */\n  mload\n    /* \"#utility.yul\":5069:5104   */\n  swap1\n  pop\n    /* \"#utility.yul\":5041:5118   */\ntag_82:\n    /* \"#utility.yul\":5144:5211   */\n  tag_83\n    /* \"#utility.yul\":5204:5210   */\n  dup6\n    /* \"#utility.yul\":5197:5202   */\n  dup3\n    /* \"#utility.yul\":5144:5211   */\n  tag_27\n  jump\t// in\ntag_83:\n    /* \"#utility.yul\":5138:5142   */\n  dup7\n    /* \"#utility.yul\":5131:5212   */\n  sstore\n    /* \"#utility.yul\":5000:5222   */\n  pop\n    /* \"#utility.yul\":4335:5222   */\n  jump(tag_80)\n    /* \"#utility.yul\":4365:4983   */\ntag_81:\n    /* \"#utility.yul\":4417:4421   */\n  0x1f\n    /* \"#utility.yul\":4413:4422   */\n  not\n    /* \"#utility.yul\":4405:4411   */\n  dup5\n    /* \"#utility.yul\":4401:4423   */\n  and\n    /* \"#utility.yul\":4451:4488   */\n  tag_84\n    /* \"#utility.yul\":4483:4487   */\n  dup7\n    /* \"#utility.yul\":4451:4488   */\n  tag_12\n  jump\t// in\ntag_84:\n    /* \"#utility.yul\":4510:4511   */\n  0x00\n    /* \"#utility.yul\":4524:4732   */\ntag_85:\n    /* \"#utility.yul\":4538:4545   */\n  dup3\n    /* \"#utility.yul\":4535:4536   */\n  dup2\n    /* \"#utility.yul\":4532:4546   */\n  lt\n    /* \"#utility.yul\":4524:4732   */\n  iszero\n  tag_87\n  jumpi\n    /* \"#utility.yul\":4617:4626   */\n  dup5\n    /* \"#utility.yul\":4612:4615   */\n  dup10\n    /* \"#utility.yul\":4608:4627   */\n  add\n    /* \"#utility.yul\":4602:4628   */\n  mload\n    /* \"#utility.yul\":4594:4600   */\n  dup3\n    /* \"#utility.yul\":4587:4629   */\n  sstore\n    /* \"#utility.yul\":4668:4669   */\n  0x01\n    /* \"#utility.yul\":4660:4666   */\n  dup3\n    /* \"#utility.yul\":4656:4670   */\n  add\n    /* \"#utility.yul\":4646:4670   */\n  swap2\n  pop\n    /* \"#utility.yul\":4715:4717   */\n  0x20\n    /* \"#utility.yul\":4704:4713   */\n  dup6\n    /* \"#utility.yul\":4700:4718   */\n  add\n    /* \"#utility.yul\":4687:4718   */\n  swap5\n  pop\n    /* \"#utility.yul\":4561:4565   */\n  0x20\n    /* \"#utility.yul\":4558:4559   */\n  dup2\n    /* \"#utility.yul\":4554:4566   */\n  add\n    /* \"#utility.yul\":4549:4566   */\n  swap1\n  pop\n    /* \"#utility.yul\":4524:4732   */\n  jump(tag_85)\ntag_87:\n    /* \"#utility.yul\":4760:4766   */\n  dup7\n    /* \"#utility.yul\":4751:4758   */\n  dup4\n    /* \"#utility.yul\":4748:4767   */\n  lt\n    /* \"#utility.yul\":4745:4924   */\n  iszero\n  tag_88\n  jumpi\n    /* \"#utility.yul\":4818:4827   */\n  dup5\n    /* \"#utility.yul\":4813:4816   */\n  dup10\n    /* \"#utility.yul\":4809:4828   */\n  add\n    /* \"#utility.yul\":4803:4829   */\n  mload\n    /* \"#utility.yul\":4861:4909   */\n  tag_89\n    /* \"#utility.yul\":4903:4907   */\n  0x1f\n    /* \"#utility.yul\":4895:4901   */\n  dup10\n    /* \"#utility.yul\":4891:4908   */\n  and\n    /* \"#utility.yul\":4880:4889   */\n  dup3\n    /* \"#utility.yul\":4861:4909   */\n  tag_26\n  jump\t// in\ntag_89:\n    /* \"#utility.yul\":4853:4859   */\n  dup4\n    /* \"#utility.yul\":4846:4910   */\n  sstore\n    /* \"#utility.yul\":4768:4924   */\n  pop\n    /* \"#utility.yul\":4745:4924   */\ntag_88:\n    /* \"#utility.yul\":4970:4971   */\n  0x01\n    /* \"#utility.yul\":4966:4967   */\n  0x02\n    /* \"#utility.yul\":4958:4964   */\n  dup9\n    /* \"#utility.yul\":4954:4968   */\n  mul\n    /* \"#utility.yul\":4950:4972   */\n  add\n    /* \"#utility.yul\":4944:4948   */\n  dup9\n    /* \"#utility.yul\":4937:4973   */\n  sstore\n    /* \"#utility.yul\":4372:4983   */\n  pop\n  pop\n  pop\n    /* \"#utility.yul\":4335:5222   */\ntag_80:\n  pop\n    /* \"#utility.yul\":3925:5228   */\n  pop\n  pop\n  pop\n    /* \"#utility.yul\":3833:5228   */\n  pop\n  pop\n  jump\t// out\n    /* \"SportCrypto.sol\":113:4862  contract Sportcrypto {... */\ntag_7:\n  dataSize(sub_0)\n  dup1\n  dataOffset(sub_0)\n  0x00\n  codecopy\n  0x00\n  return\nstop\n\nsub_0: assembly {\n        /* \"SportCrypto.sol\":113:4862  contract Sportcrypto {... */\n      mstore(0x40, 0x80)\n      callvalue\n      dup1\n      iszero\n      tag_1\n      jumpi\n      0x00\n      dup1\n      revert\n    tag_1:\n      pop\n      jumpi(tag_2, lt(calldatasize, 0x04))\n      shr(0xe0, calldataload(0x00))\n      dup1\n      0x313ce567\n      gt\n      tag_20\n      jumpi\n      dup1\n      0x70a08231\n      gt\n      tag_21\n      jumpi\n      dup1\n      0x70a08231\n      eq\n      tag_15\n      jumpi\n      dup1\n      0x95d89b41\n      eq\n      tag_16\n      jumpi\n      dup1\n      0xa9059cbb\n      eq\n      tag_17\n      jumpi\n      dup1\n      0xce606ee0\n      eq\n      tag_18\n      jumpi\n      dup1\n      0xdd62ed3e\n      eq\n      tag_19\n      jumpi\n      jump(tag_2)\n    tag_21:\n      dup1\n      0x313ce567\n      eq\n      tag_11\n      jumpi\n      dup1\n      0x49c2a1a6\n      eq\n      tag_12\n      jumpi\n      dup1\n      0x5277b4ae\n      eq\n      tag_13\n      jumpi\n      dup1\n      0x62564c48\n      eq\n      tag_14\n      jumpi\n      jump(tag_2)\n    tag_20:\n      dup1\n      0x0d61b519\n      gt\n      tag_22\n      jumpi\n      dup1\n      0x0d61b519\n      eq\n      tag_7\n      jumpi\n      dup1\n      0x18160ddd\n      eq\n      tag_8\n      jumpi\n      dup1\n      0x23b872dd\n      eq\n      tag_9\n      jumpi\n      dup1\n      0x27e235e3\n      eq\n      tag_10\n      jumpi\n      jump(tag_2)\n    tag_22:\n      dup1\n      0x0121b93f\n      eq\n      tag_3\n      jumpi\n      dup1\n      0x013cf08b\n      eq\n      tag_4\n      jumpi\n      dup1\n      0x06fdde03\n      eq\n      tag_5\n      jumpi\n      dup1\n      0x095ea7b3\n      eq\n      tag_6\n      jumpi\n    tag_2:\n      0x00\n      dup1\n      revert\n        /* \"SportCrypto.sol\":3855:4314  function vote(uint proposalId) public {... */\n    tag_3:\n      tag_23\n      0x04\n      dup1\n      calldatasize\n      sub\n      dup2\n      add\n      swap1\n      tag_24\n      swap2\n      swap1\n      tag_25\n      jump\t// in\n    tag_24:\n      tag_26\n      jump\t// in\n    tag_23:\n      stop\n        /* \"SportCrypto.sol\":927:954  Proposal[] public proposals */\n    tag_4:\n      tag_27\n      0x04\n      dup1\n      calldatasize\n      sub\n      dup2\n      add\n      swap1\n      tag_28\n      swap2\n      swap1\n      tag_25\n      jump\t// in\n    tag_28:\n      tag_29\n      jump\t// in\n    tag_27:\n      mload(0x40)\n      tag_30\n      swap4\n      swap3\n      swap2\n      swap1\n      tag_31\n      jump\t// in\n    tag_30:\n      mload(0x40)\n      dup1\n      swap2\n      sub\n      swap1\n      return\n        /* \"SportCrypto.sol\":492:526  string public name = \"SportCrypto\" */\n    tag_5:\n      tag_32\n      tag_33\n      jump\t// in\n    tag_32:\n      mload(0x40)\n      tag_34\n      swap2\n      swap1\n      tag_35\n      jump\t// in\n    tag_34:\n      mload(0x40)\n      dup1\n      swap2\n      sub\n      swap1\n      return\n        /* \"SportCrypto.sol\":3165:3364  function approve(address spender, uint value) public returns (bool) {... */\n    tag_6:\n      tag_36\n      0x04\n      dup1\n      calldatasize\n      sub\n      dup2\n      add\n      swap1\n      tag_37\n      swap2\n      swap1\n      tag_38\n      jump\t// in\n    tag_37:\n      tag_39\n      jump\t// in\n    tag_36:\n      mload(0x40)\n      tag_40\n      swap2\n      swap1\n      tag_41\n      jump\t// in\n    tag_40:\n      mload(0x40)\n      dup1\n      swap2\n      sub\n      swap1\n      return\n        /* \"SportCrypto.sol\":4361:4709  function executeProposal(uint proposalId) public onlyOwner {... */\n    tag_7:\n      tag_42\n      0x04\n      dup1\n      calldatasize\n      sub\n      dup2\n      add\n      swap1\n      tag_43\n      swap2\n      swap1\n      tag_25\n      jump\t// in\n    tag_43:\n      tag_44\n      jump\t// in\n    tag_42:\n      stop\n        /* \"SportCrypto.sol\":398:441  uint256 public totalSupply = 1000000*10**18 */\n    tag_8:\n      tag_45\n      tag_46\n      jump\t// in\n    tag_45:\n      mload(0x40)\n      tag_47\n      swap2\n      swap1\n      tag_48\n      jump\t// in\n    tag_47:\n      mload(0x40)\n      dup1\n      swap2\n      sub\n      swap1\n      return\n        /* \"SportCrypto.sol\":2593:3096  function transferFrom(address from, address to, uint value) public returns (bool) {... */\n    tag_9:\n      tag_49\n      0x04\n      dup1\n      calldatasize\n      sub\n      dup2\n      add\n      swap1\n      tag_50\n      swap2\n      swap1\n      tag_51\n      jump\t// in\n    tag_50:\n      tag_52\n      jump\t// in\n    tag_49:\n      mload(0x40)\n      tag_53\n      swap2\n      swap1\n      tag_41\n      jump\t// in\n    tag_53:\n      mload(0x40)\n      dup1\n      swap2\n      sub\n      swap1\n      return\n        /* \"SportCrypto.sol\":197:237  mapping(address => uint) public balances */\n    tag_10:\n      tag_54\n      0x04\n      dup1\n      calldatasize\n      sub\n      dup2\n      add\n      swap1\n      tag_55\n      swap2\n      swap1\n      tag_56\n      jump\t// in\n    tag_55:\n      tag_57\n      jump\t// in\n    tag_54:\n      mload(0x40)\n      tag_58\n      swap2\n      swap1\n      tag_48\n      jump\t// in\n    tag_58:\n      mload(0x40)\n      dup1\n      swap2\n      sub\n      swap1\n      return\n        /* \"SportCrypto.sol\":597:623  uint8 public decimals = 18 */\n    tag_11:\n      tag_59\n      tag_60\n      jump\t// in\n    tag_59:\n      mload(0x40)\n      tag_61\n      swap2\n      swap1\n      tag_62\n      jump\t// in\n    tag_61:\n      mload(0x40)\n      dup1\n      swap2\n      sub\n      swap1\n      return\n        /* \"SportCrypto.sol\":3445:3801  function createProposal(string memory description) public {... */\n    tag_12:\n      tag_63\n      0x04\n      dup1\n      calldatasize\n      sub\n      dup2\n      add\n      swap1\n      tag_64\n      swap2\n      swap1\n      tag_65\n      jump\t// in\n    tag_64:\n      tag_66\n      jump\t// in\n    tag_63:\n      stop\n        /* \"SportCrypto.sol\":1029:1083  mapping(uint => mapping(address => bool)) public voted */\n    tag_13:\n      tag_67\n      0x04\n      dup1\n      calldatasize\n      sub\n      dup2\n      add\n      swap1\n      tag_68\n      swap2\n      swap1\n      tag_69\n      jump\t// in\n    tag_68:\n      tag_70\n      jump\t// in\n    tag_67:\n      mload(0x40)\n      tag_71\n      swap2\n      swap1\n      tag_41\n      jump\t// in\n    tag_71:\n      mload(0x40)\n      dup1\n      swap2\n      sub\n      swap1\n      return\n        /* \"SportCrypto.sol\":4760:4859  function getProposals() public view returns (Proposal[] memory) {... */\n    tag_14:\n      tag_72\n      tag_73\n      jump\t// in\n    tag_72:\n      mload(0x40)\n      tag_74\n      swap2\n      swap1\n      tag_75\n      jump\t// in\n    tag_74:\n      mload(0x40)\n      dup1\n      swap2\n      sub\n      swap1\n      return\n        /* \"SportCrypto.sol\":1975:2081  function balanceOf(address account) public view returns (uint) {... */\n    tag_15:\n      tag_76\n      0x04\n      dup1\n      calldatasize\n      sub\n      dup2\n      add\n      swap1\n      tag_77\n      swap2\n      swap1\n      tag_56\n      jump\t// in\n    tag_77:\n      tag_78\n      jump\t// in\n    tag_76:\n      mload(0x40)\n      tag_79\n      swap2\n      swap1\n      tag_48\n      jump\t// in\n    tag_79:\n      mload(0x40)\n      dup1\n      swap2\n      sub\n      swap1\n      return\n        /* \"SportCrypto.sol\":547:574  string public symbol = \"SP\" */\n    tag_16:\n      tag_80\n      tag_81\n      jump\t// in\n    tag_80:\n      mload(0x40)\n      tag_82\n      swap2\n      swap1\n      tag_35\n      jump\t// in\n    tag_82:\n      mload(0x40)\n      dup1\n      swap2\n      sub\n      swap1\n      return\n        /* \"SportCrypto.sol\":2144:2520  function transfer(address to, uint value) public returns (bool) {... */\n    tag_17:\n      tag_83\n      0x04\n      dup1\n      calldatasize\n      sub\n      dup2\n      add\n      swap1\n      tag_84\n      swap2\n      swap1\n      tag_38\n      jump\t// in\n    tag_84:\n      tag_85\n      jump\t// in\n    tag_83:\n      mload(0x40)\n      tag_86\n      swap2\n      swap1\n      tag_41\n      jump\t// in\n    tag_86:\n      mload(0x40)\n      dup1\n      swap2\n      sub\n      swap1\n      return\n        /* \"SportCrypto.sol\":1128:1156  address public contractOwner */\n    tag_18:\n      tag_87\n      tag_88\n      jump\t// in\n    tag_87:\n      mload(0x40)\n      tag_89\n      swap2\n      swap1\n      tag_90\n      jump\t// in\n    tag_89:\n      mload(0x40)\n      dup1\n      swap2\n      sub\n      swap1\n      return\n        /* \"SportCrypto.sol\":303:364  mapping(address => mapping(address => uint)) public allowance */\n    tag_19:\n      tag_91\n      0x04\n      dup1\n      calldatasize\n      sub\n      dup2\n      add\n      swap1\n      tag_92\n      swap2\n      swap1\n      tag_93\n      jump\t// in\n    tag_92:\n      tag_94\n      jump\t// in\n    tag_91:\n      mload(0x40)\n      tag_95\n      swap2\n      swap1\n      tag_48\n      jump\t// in\n    tag_95:\n      mload(0x40)\n      dup1\n      swap2\n      sub\n      swap1\n      return\n        /* \"SportCrypto.sol\":3855:4314  function vote(uint proposalId) public {... */\n    tag_26:\n        /* \"SportCrypto.sol\":3925:3934  proposals */\n      0x06\n        /* \"SportCrypto.sol\":3925:3941  proposals.length */\n      dup1\n      sload\n      swap1\n      pop\n        /* \"SportCrypto.sol\":3912:3922  proposalId */\n      dup2\n        /* \"SportCrypto.sol\":3912:3941  proposalId < proposals.length */\n      lt\n        /* \"SportCrypto.sol\":3904:3965  require(proposalId < proposals.length, \"Invalid proposal ID\") */\n      tag_97\n      jumpi\n      mload(0x40)\n      0x08c379a000000000000000000000000000000000000000000000000000000000\n      dup2\n      mstore\n      0x04\n      add\n      tag_98\n      swap1\n      tag_99\n      jump\t// in\n    tag_98:\n      mload(0x40)\n      dup1\n      swap2\n      sub\n      swap1\n      revert\n    tag_97:\n        /* \"SportCrypto.sol\":3985:3990  voted */\n      0x07\n        /* \"SportCrypto.sol\":3985:4002  voted[proposalId] */\n      0x00\n        /* \"SportCrypto.sol\":3991:4001  proposalId */\n      dup3\n        /* \"SportCrypto.sol\":3985:4002  voted[proposalId] */\n      dup2\n      mstore\n      0x20\n      add\n      swap1\n      dup2\n      mstore\n      0x20\n      add\n      0x00\n      keccak256\n        /* \"SportCrypto.sol\":3985:4014  voted[proposalId][msg.sender] */\n      0x00\n        /* \"SportCrypto.sol\":4003:4013  msg.sender */\n      caller\n        /* \"SportCrypto.sol\":3985:4014  voted[proposalId][msg.sender] */\n      0xffffffffffffffffffffffffffffffffffffffff\n      and\n      0xffffffffffffffffffffffffffffffffffffffff\n      and\n      dup2\n      mstore\n      0x20\n      add\n      swap1\n      dup2\n      mstore\n      0x20\n      add\n      0x00\n      keccak256\n      0x00\n      swap1\n      sload\n      swap1\n      0x0100\n      exp\n      swap1\n      div\n      0xff\n      and\n        /* \"SportCrypto.sol\":3984:4014  !voted[proposalId][msg.sender] */\n      iszero\n        /* \"SportCrypto.sol\":3976:4032  require(!voted[proposalId][msg.sender], \"Already voted\") */\n      tag_100\n      jumpi\n      mload(0x40)\n      0x08c379a000000000000000000000000000000000000000000000000000000000\n      dup2\n      mstore\n      0x04\n      add\n      tag_101\n      swap1\n      tag_102\n      jump\t// in\n    tag_101:\n      mload(0x40)\n      dup1\n      swap2\n      sub\n      swap1\n      revert\n    tag_100:\n        /* \"SportCrypto.sol\":4075:4076  0 */\n      0x00\n        /* \"SportCrypto.sol\":4051:4072  balanceOf(msg.sender) */\n      tag_103\n        /* \"SportCrypto.sol\":4061:4071  msg.sender */\n      caller\n        /* \"SportCrypto.sol\":4051:4060  balanceOf */\n      tag_78\n        /* \"SportCrypto.sol\":4051:4072  balanceOf(msg.sender) */\n      jump\t// in\n    tag_103:\n        /* \"SportCrypto.sol\":4051:4076  balanceOf(msg.sender) > 0 */\n      gt\n        /* \"SportCrypto.sol\":4043:4100  require(balanceOf(msg.sender) > 0, \"Must own SP to vote\") */\n      tag_104\n      jumpi\n      mload(0x40)\n      0x08c379a000000000000000000000000000000000000000000000000000000000\n      dup2\n      mstore\n      0x04\n      add\n      tag_105\n      swap1\n      tag_106\n      jump\t// in\n    tag_105:\n      mload(0x40)\n      dup1\n      swap2\n      sub\n      swap1\n      revert\n    tag_104:\n        /* \"SportCrypto.sol\":4148:4169  balanceOf(msg.sender) */\n      tag_107\n        /* \"SportCrypto.sol\":4158:4168  msg.sender */\n      caller\n        /* \"SportCrypto.sol\":4148:4157  balanceOf */\n      tag_78\n        /* \"SportCrypto.sol\":4148:4169  balanceOf(msg.sender) */\n      jump\t// in\n    tag_107:\n        /* \"SportCrypto.sol\":4113:4122  proposals */\n      0x06\n        /* \"SportCrypto.sol\":4123:4133  proposalId */\n      dup3\n        /* \"SportCrypto.sol\":4113:4134  proposals[proposalId] */\n      dup2\n      sload\n      dup2\n      lt\n      tag_108\n      jumpi\n      tag_109\n      tag_110\n      jump\t// in\n    tag_109:\n    tag_108:\n      swap1\n      0x00\n      mstore\n      keccak256(0x00, 0x20)\n      swap1\n      0x03\n      mul\n      add\n        /* \"SportCrypto.sol\":4113:4144  proposals[proposalId].voteCount */\n      0x01\n      add\n      0x00\n        /* \"SportCrypto.sol\":4113:4169  proposals[proposalId].voteCount += balanceOf(msg.sender) */\n      dup3\n      dup3\n      sload\n      tag_112\n      swap2\n      swap1\n      tag_113\n      jump\t// in\n    tag_112:\n      swap3\n      pop\n      pop\n      dup2\n      swap1\n      sstore\n      pop\n        /* \"SportCrypto.sol\":4250:4254  true */\n      0x01\n        /* \"SportCrypto.sol\":4218:4223  voted */\n      0x07\n        /* \"SportCrypto.sol\":4218:4235  voted[proposalId] */\n      0x00\n        /* \"SportCrypto.sol\":4224:4234  proposalId */\n      dup4\n        /* \"SportCrypto.sol\":4218:4235  voted[proposalId] */\n      dup2\n      mstore\n      0x20\n      add\n      swap1\n      dup2\n      mstore\n      0x20\n      add\n      0x00\n      keccak256\n        /* \"SportCrypto.sol\":4218:4247  voted[proposalId][msg.sender] */\n      0x00\n        /* \"SportCrypto.sol\":4236:4246  msg.sender */\n      caller\n        /* \"SportCrypto.sol\":4218:4247  voted[proposalId][msg.sender] */\n      0xffffffffffffffffffffffffffffffffffffffff\n      and\n      0xffffffffffffffffffffffffffffffffffffffff\n      and\n      dup2\n      mstore\n      0x20\n      add\n      swap1\n      dup2\n      mstore\n      0x20\n      add\n      0x00\n      keccak256\n      0x00\n        /* \"SportCrypto.sol\":4218:4254  voted[proposalId][msg.sender] = true */\n      0x0100\n      exp\n      dup2\n      sload\n      dup2\n      0xff\n      mul\n      not\n      and\n      swap1\n      dup4\n      iszero\n      iszero\n      mul\n      or\n      swap1\n      sstore\n      pop\n        /* \"SportCrypto.sol\":4272:4306  VoteCasted(msg.sender, proposalId) */\n      0xd0e6c39f2e086dc49f1524b47725526a56945cd1ff661f37976f1725a1e56986\n        /* \"SportCrypto.sol\":4283:4293  msg.sender */\n      caller\n        /* \"SportCrypto.sol\":4295:4305  proposalId */\n      dup3\n        /* \"SportCrypto.sol\":4272:4306  VoteCasted(msg.sender, proposalId) */\n      mload(0x40)\n      tag_114\n      swap3\n      swap2\n      swap1\n      tag_115\n      jump\t// in\n    tag_114:\n      mload(0x40)\n      dup1\n      swap2\n      sub\n      swap1\n      log1\n        /* \"SportCrypto.sol\":3855:4314  function vote(uint proposalId) public {... */\n      pop\n      jump\t// out\n        /* \"SportCrypto.sol\":927:954  Proposal[] public proposals */\n    tag_29:\n      0x06\n      dup2\n      dup2\n      sload\n      dup2\n      lt\n      tag_116\n      jumpi\n      0x00\n      dup1\n      revert\n    tag_116:\n      swap1\n      0x00\n      mstore\n      keccak256(0x00, 0x20)\n      swap1\n      0x03\n      mul\n      add\n      0x00\n      swap2\n      pop\n      swap1\n      pop\n      dup1\n      0x00\n      add\n      dup1\n      sload\n      tag_118\n      swap1\n      tag_119\n      jump\t// in\n    tag_118:\n      dup1\n      0x1f\n      add\n      0x20\n      dup1\n      swap2\n      div\n      mul\n      0x20\n      add\n      mload(0x40)\n      swap1\n      dup2\n      add\n      0x40\n      mstore\n      dup1\n      swap3\n      swap2\n      swap1\n      dup2\n      dup2\n      mstore\n      0x20\n      add\n      dup3\n      dup1\n      sload\n      tag_120\n      swap1\n      tag_119\n      jump\t// in\n    tag_120:\n      dup1\n      iszero\n      tag_121\n      jumpi\n      dup1\n      0x1f\n      lt\n      tag_122\n      jumpi\n      0x0100\n      dup1\n      dup4\n      sload\n      div\n      mul\n      dup4\n      mstore\n      swap2\n      0x20\n      add\n      swap2\n      jump(tag_121)\n    tag_122:\n      dup3\n      add\n      swap2\n      swap1\n      0x00\n      mstore\n      keccak256(0x00, 0x20)\n      swap1\n    tag_123:\n      dup2\n      sload\n      dup2\n      mstore\n      swap1\n      0x01\n      add\n      swap1\n      0x20\n      add\n      dup1\n      dup4\n      gt\n      tag_123\n      jumpi\n      dup3\n      swap1\n      sub\n      0x1f\n      and\n      dup3\n      add\n      swap2\n    tag_121:\n      pop\n      pop\n      pop\n      pop\n      pop\n      swap1\n      dup1\n      0x01\n      add\n      sload\n      swap1\n      dup1\n      0x02\n      add\n      0x00\n      swap1\n      sload\n      swap1\n      0x0100\n      exp\n      swap1\n      div\n      0xff\n      and\n      swap1\n      pop\n      dup4\n      jump\t// out\n        /* \"SportCrypto.sol\":492:526  string public name = \"SportCrypto\" */\n    tag_33:\n      0x03\n      dup1\n      sload\n      tag_124\n      swap1\n      tag_119\n      jump\t// in\n    tag_124:\n      dup1\n      0x1f\n      add\n      0x20\n      dup1\n      swap2\n      div\n      mul\n      0x20\n      add\n      mload(0x40)\n      swap1\n      dup2\n      add\n      0x40\n      mstore\n      dup1\n      swap3\n      swap2\n      swap1\n      dup2\n      dup2\n      mstore\n      0x20\n      add\n      dup3\n      dup1\n      sload\n      tag_125\n      swap1\n      tag_119\n      jump\t// in\n    tag_125:\n      dup1\n      iszero\n      tag_126\n      jumpi\n      dup1\n      0x1f\n      lt\n      tag_127\n      jumpi\n      0x0100\n      dup1\n      dup4\n      sload\n      div\n      mul\n      dup4\n      mstore\n      swap2\n      0x20\n      add\n      swap2\n      jump(tag_126)\n    tag_127:\n      dup3\n      add\n      swap2\n      swap1\n      0x00\n      mstore\n      keccak256(0x00, 0x20)\n      swap1\n    tag_128:\n      dup2\n      sload\n      dup2\n      mstore\n      swap1\n      0x01\n      add\n      swap1\n      0x20\n      add\n      dup1\n      dup4\n      gt\n      tag_128\n      jumpi\n      dup3\n      swap1\n      sub\n      0x1f\n      and\n      dup3\n      add\n      swap2\n    tag_126:\n      pop\n      pop\n      pop\n      pop\n      pop\n      dup2\n      jump\t// out\n        /* \"SportCrypto.sol\":3165:3364  function approve(address spender, uint value) public returns (bool) {... */\n    tag_39:\n        /* \"SportCrypto.sol\":3227:3231  bool */\n      0x00\n        /* \"SportCrypto.sol\":3277:3282  value */\n      dup2\n        /* \"SportCrypto.sol\":3244:3253  allowance */\n      0x01\n        /* \"SportCrypto.sol\":3244:3265  allowance[msg.sender] */\n      0x00\n        /* \"SportCrypto.sol\":3254:3264  msg.sender */\n      caller\n        /* \"SportCrypto.sol\":3244:3265  allowance[msg.sender] */\n      0xffffffffffffffffffffffffffffffffffffffff\n      and\n      0xffffffffffffffffffffffffffffffffffffffff\n      and\n      dup2\n      mstore\n      0x20\n      add\n      swap1\n      dup2\n      mstore\n      0x20\n      add\n      0x00\n      keccak256\n        /* \"SportCrypto.sol\":3244:3274  allowance[msg.sender][spender] */\n      0x00\n        /* \"SportCrypto.sol\":3266:3273  spender */\n      dup6\n        /* \"SportCrypto.sol\":3244:3274  allowance[msg.sender][spender] */\n      0xffffffffffffffffffffffffffffffffffffffff\n      and\n      0xffffffffffffffffffffffffffffffffffffffff\n      and\n      dup2\n      mstore\n      0x20\n      add\n      swap1\n      dup2\n      mstore\n      0x20\n      add\n      0x00\n      keccak256\n        /* \"SportCrypto.sol\":3244:3282  allowance[msg.sender][spender] = value */\n      dup2\n      swap1\n      sstore\n      pop\n        /* \"SportCrypto.sol\":3319:3326  spender */\n      dup3\n        /* \"SportCrypto.sol\":3298:3334  Approval(msg.sender, spender, value) */\n      0xffffffffffffffffffffffffffffffffffffffff\n      and\n        /* \"SportCrypto.sol\":3307:3317  msg.sender */\n      caller\n        /* \"SportCrypto.sol\":3298:3334  Approval(msg.sender, spender, value) */\n      0xffffffffffffffffffffffffffffffffffffffff\n      and\n      0x8c5be1e5ebec7d5bd14f71427d1e84f3dd0314c0f7b2291e5b200ac8c7c3b925\n        /* \"SportCrypto.sol\":3328:3333  value */\n      dup5\n        /* \"SportCrypto.sol\":3298:3334  Approval(msg.sender, spender, value) */\n      mload(0x40)\n      tag_130\n      swap2\n      swap1\n      tag_48\n      jump\t// in\n    tag_130:\n      mload(0x40)\n      dup1\n      swap2\n      sub\n      swap1\n      log3\n        /* \"SportCrypto.sol\":3352:3356  true */\n      0x01\n        /* \"SportCrypto.sol\":3345:3356  return true */\n      swap1\n      pop\n        /* \"SportCrypto.sol\":3165:3364  function approve(address spender, uint value) public returns (bool) {... */\n      swap3\n      swap2\n      pop\n      pop\n      jump\t// out\n        /* \"SportCrypto.sol\":4361:4709  function executeProposal(uint proposalId) public onlyOwner {... */\n    tag_44:\n        /* \"SportCrypto.sol\":1656:1669  contractOwner */\n      0x08\n      0x00\n      swap1\n      sload\n      swap1\n      0x0100\n      exp\n      swap1\n      div\n      0xffffffffffffffffffffffffffffffffffffffff\n      and\n        /* \"SportCrypto.sol\":1642:1669  msg.sender == contractOwner */\n      0xffffffffffffffffffffffffffffffffffffffff\n      and\n        /* \"SportCrypto.sol\":1642:1652  msg.sender */\n      caller\n        /* \"SportCrypto.sol\":1642:1669  msg.sender == contractOwner */\n      0xffffffffffffffffffffffffffffffffffffffff\n      and\n      eq\n        /* \"SportCrypto.sol\":1634:1707  require(msg.sender == contractOwner, \"Only owner can call this function\") */\n      tag_132\n      jumpi\n      mload(0x40)\n      0x08c379a000000000000000000000000000000000000000000000000000000000\n      dup2\n      mstore\n      0x04\n      add\n      tag_133\n      swap1\n      tag_134\n      jump\t// in\n    tag_133:\n      mload(0x40)\n      dup1\n      swap2\n      sub\n      swap1\n      revert\n    tag_132:\n        /* \"SportCrypto.sol\":4452:4461  proposals */\n      0x06\n        /* \"SportCrypto.sol\":4452:4468  proposals.length */\n      dup1\n      sload\n      swap1\n      pop\n        /* \"SportCrypto.sol\":4439:4449  proposalId */\n      dup2\n        /* \"SportCrypto.sol\":4439:4468  proposalId < proposals.length */\n      lt\n        /* \"SportCrypto.sol\":4431:4492  require(proposalId < proposals.length, \"Invalid proposal ID\") */\n      tag_136\n      jumpi\n      mload(0x40)\n      0x08c379a000000000000000000000000000000000000000000000000000000000\n      dup2\n      mstore\n      0x04\n      add\n      tag_137\n      swap1\n      tag_99\n      jump\t// in\n    tag_137:\n      mload(0x40)\n      dup1\n      swap2\n      sub\n      swap1\n      revert\n    tag_136:\n        /* \"SportCrypto.sol\":4512:4521  proposals */\n      0x06\n        /* \"SportCrypto.sol\":4522:4532  proposalId */\n      dup2\n        /* \"SportCrypto.sol\":4512:4533  proposals[proposalId] */\n      dup2\n      sload\n      dup2\n      lt\n      tag_138\n      jumpi\n      tag_139\n      tag_110\n      jump\t// in\n    tag_139:\n    tag_138:\n      swap1\n      0x00\n      mstore\n      keccak256(0x00, 0x20)\n      swap1\n      0x03\n      mul\n      add\n        /* \"SportCrypto.sol\":4512:4542  proposals[proposalId].executed */\n      0x02\n      add\n      0x00\n      swap1\n      sload\n      swap1\n      0x0100\n      exp\n      swap1\n      div\n      0xff\n      and\n        /* \"SportCrypto.sol\":4511:4542  !proposals[proposalId].executed */\n      iszero\n        /* \"SportCrypto.sol\":4503:4572  require(!proposals[proposalId].executed, \"Proposal already executed\") */\n      tag_141\n      jumpi\n      mload(0x40)\n      0x08c379a000000000000000000000000000000000000000000000000000000000\n      dup2\n      mstore\n      0x04\n      add\n      tag_142\n      swap1\n      tag_143\n      jump\t// in\n    tag_142:\n      mload(0x40)\n      dup1\n      swap2\n      sub\n      swap1\n      revert\n    tag_141:\n        /* \"SportCrypto.sol\":4618:4622  true */\n      0x01\n        /* \"SportCrypto.sol\":4585:4594  proposals */\n      0x06\n        /* \"SportCrypto.sol\":4595:4605  proposalId */\n      dup3\n        /* \"SportCrypto.sol\":4585:4606  proposals[proposalId] */\n      dup2\n      sload\n      dup2\n      lt\n      tag_144\n      jumpi\n      tag_145\n      tag_110\n      jump\t// in\n    tag_145:\n    tag_144:\n      swap1\n      0x00\n      mstore\n      keccak256(0x00, 0x20)\n      swap1\n      0x03\n      mul\n      add\n        /* \"SportCrypto.sol\":4585:4615  proposals[proposalId].executed */\n      0x02\n      add\n      0x00\n        /* \"SportCrypto.sol\":4585:4622  proposals[proposalId].executed = true */\n      0x0100\n      exp\n      dup2\n      sload\n      dup2\n      0xff\n      mul\n      not\n      and\n      swap1\n      dup4\n      iszero\n      iszero\n      mul\n      or\n      swap1\n      sstore\n      pop\n        /* \"SportCrypto.sol\":4638:4701  ProposalExecuted(proposalId, proposals[proposalId].description) */\n      0x537137e7fc21556269dc66003ff063d7ee0ce98cf05ad2feddda124690976e95\n        /* \"SportCrypto.sol\":4655:4665  proposalId */\n      dup2\n        /* \"SportCrypto.sol\":4667:4676  proposals */\n      0x06\n        /* \"SportCrypto.sol\":4677:4687  proposalId */\n      dup4\n        /* \"SportCrypto.sol\":4667:4688  proposals[proposalId] */\n      dup2\n      sload\n      dup2\n      lt\n      tag_147\n      jumpi\n      tag_148\n      tag_110\n      jump\t// in\n    tag_148:\n    tag_147:\n      swap1\n      0x00\n      mstore\n      keccak256(0x00, 0x20)\n      swap1\n      0x03\n      mul\n      add\n        /* \"SportCrypto.sol\":4667:4700  proposals[proposalId].description */\n      0x00\n      add\n        /* \"SportCrypto.sol\":4638:4701  ProposalExecuted(proposalId, proposals[proposalId].description) */\n      mload(0x40)\n      tag_150\n      swap3\n      swap2\n      swap1\n      tag_151\n      jump\t// in\n    tag_150:\n      mload(0x40)\n      dup1\n      swap2\n      sub\n      swap1\n      log1\n        /* \"SportCrypto.sol\":4361:4709  function executeProposal(uint proposalId) public onlyOwner {... */\n      pop\n      jump\t// out\n        /* \"SportCrypto.sol\":398:441  uint256 public totalSupply = 1000000*10**18 */\n    tag_46:\n      sload(0x02)\n      dup2\n      jump\t// out\n        /* \"SportCrypto.sol\":2593:3096  function transferFrom(address from, address to, uint value) public returns (bool) {... */\n    tag_52:\n        /* \"SportCrypto.sol\":2669:2673  bool */\n      0x00\n        /* \"SportCrypto.sol\":2713:2718  value */\n      dup2\n        /* \"SportCrypto.sol\":2694:2709  balanceOf(from) */\n      tag_153\n        /* \"SportCrypto.sol\":2704:2708  from */\n      dup6\n        /* \"SportCrypto.sol\":2694:2703  balanceOf */\n      tag_78\n        /* \"SportCrypto.sol\":2694:2709  balanceOf(from) */\n      jump\t// in\n    tag_153:\n        /* \"SportCrypto.sol\":2694:2718  balanceOf(from) >= value */\n      lt\n      iszero\n        /* \"SportCrypto.sol\":2686:2743  require(balanceOf(from) >= value, \"Insufficient balance\") */\n      tag_154\n      jumpi\n      mload(0x40)\n      0x08c379a000000000000000000000000000000000000000000000000000000000\n      dup2\n      mstore\n      0x04\n      add\n      tag_155\n      swap1\n      tag_156\n      jump\t// in\n    tag_155:\n      mload(0x40)\n      dup1\n      swap2\n      sub\n      swap1\n      revert\n    tag_154:\n        /* \"SportCrypto.sol\":2793:2798  value */\n      dup2\n        /* \"SportCrypto.sol\":2762:2771  allowance */\n      0x01\n        /* \"SportCrypto.sol\":2762:2777  allowance[from] */\n      0x00\n        /* \"SportCrypto.sol\":2772:2776  from */\n      dup7\n        /* \"SportCrypto.sol\":2762:2777  allowance[from] */\n      0xffffffffffffffffffffffffffffffffffffffff\n      and\n      0xffffffffffffffffffffffffffffffffffffffff\n      and\n      dup2\n      mstore\n      0x20\n      add\n      swap1\n      dup2\n      mstore\n      0x20\n      add\n      0x00\n      keccak256\n        /* \"SportCrypto.sol\":2762:2789  allowance[from][msg.sender] */\n      0x00\n        /* \"SportCrypto.sol\":2778:2788  msg.sender */\n      caller\n        /* \"SportCrypto.sol\":2762:2789  allowance[from][msg.sender] */\n      0xffffffffffffffffffffffffffffffffffffffff\n      and\n      0xffffffffffffffffffffffffffffffffffffffff\n      and\n      dup2\n      mstore\n      0x20\n      add\n      swap1\n      dup2\n      mstore\n      0x20\n      add\n      0x00\n      keccak256\n      sload\n        /* \"SportCrypto.sol\":2762:2798  allowance[from][msg.sender] >= value */\n      lt\n      iszero\n        /* \"SportCrypto.sol\":2754:2821  require(allowance[from][msg.sender] >= value, \"Allowance exceeded\") */\n      tag_157\n      jumpi\n      mload(0x40)\n      0x08c379a000000000000000000000000000000000000000000000000000000000\n      dup2\n      mstore\n      0x04\n      add\n      tag_158\n      swap1\n      tag_159\n      jump\t// in\n    tag_158:\n      mload(0x40)\n      dup1\n      swap2\n      sub\n      swap1\n      revert\n    tag_157:\n        /* \"SportCrypto.sol\":2878:2880  10 */\n      0x0a\n        /* \"SportCrypto.sol\":2864:2875  totalSupply */\n      sload(0x02)\n        /* \"SportCrypto.sol\":2864:2880  totalSupply / 10 */\n      tag_160\n      swap2\n      swap1\n      tag_161\n      jump\t// in\n    tag_160:\n        /* \"SportCrypto.sol\":2855:2860  value */\n      dup3\n        /* \"SportCrypto.sol\":2840:2848  balances */\n      0x00\n        /* \"SportCrypto.sol\":2840:2852  balances[to] */\n      dup1\n        /* \"SportCrypto.sol\":2849:2851  to */\n      dup7\n        /* \"SportCrypto.sol\":2840:2852  balances[to] */\n      0xffffffffffffffffffffffffffffffffffffffff\n      and\n      0xffffffffffffffffffffffffffffffffffffffff\n      and\n      dup2\n      mstore\n      0x20\n      add\n      swap1\n      dup2\n      mstore\n      0x20\n      add\n      0x00\n      keccak256\n      sload\n        /* \"SportCrypto.sol\":2840:2860  balances[to] + value */\n      tag_162\n      swap2\n      swap1\n      tag_113\n      jump\t// in\n    tag_162:\n        /* \"SportCrypto.sol\":2840:2880  balances[to] + value <= totalSupply / 10 */\n      gt\n      iszero\n        /* \"SportCrypto.sol\":2832:2910  require(balances[to] + value <= totalSupply / 10, \"Exceeds max ownership cap\") */\n      tag_163\n      jumpi\n      mload(0x40)\n      0x08c379a000000000000000000000000000000000000000000000000000000000\n      dup2\n      mstore\n      0x04\n      add\n      tag_164\n      swap1\n      tag_165\n      jump\t// in\n    tag_164:\n      mload(0x40)\n      dup1\n      swap2\n      sub\n      swap1\n      revert\n    tag_163:\n        /* \"SportCrypto.sol\":2954:2959  value */\n      dup2\n        /* \"SportCrypto.sol\":2923:2932  allowance */\n      0x01\n        /* \"SportCrypto.sol\":2923:2938  allowance[from] */\n      0x00\n        /* \"SportCrypto.sol\":2933:2937  from */\n      dup7\n        /* \"SportCrypto.sol\":2923:2938  allowance[from] */\n      0xffffffffffffffffffffffffffffffffffffffff\n      and\n      0xffffffffffffffffffffffffffffffffffffffff\n      and\n      dup2\n      mstore\n      0x20\n      add\n      swap1\n      dup2\n      mstore\n      0x20\n      add\n      0x00\n      keccak256\n        /* \"SportCrypto.sol\":2923:2950  allowance[from][msg.sender] */\n      0x00\n        /* \"SportCrypto.sol\":2939:2949  msg.sender */\n      caller\n        /* \"SportCrypto.sol\":2923:2950  allowance[from][msg.sender] */\n      0xffffffffffffffffffffffffffffffffffffffff\n      and\n      0xffffffffffffffffffffffffffffffffffffffff\n      and\n      dup2\n      mstore\n      0x20\n      add\n      swap1\n      dup2\n      mstore\n      0x20\n      add\n      0x00\n      keccak256\n      0x00\n        /* \"SportCrypto.sol\":2923:2959  allowance[from][msg.sender] -= value */\n      dup3\n      dup3\n      sload\n      tag_166\n      swap2\n      swap1\n      tag_167\n      jump\t// in\n    tag_166:\n      swap3\n      pop\n      pop\n      dup2\n      swap1\n      sstore\n      pop\n        /* \"SportCrypto.sol\":2986:2991  value */\n      dup2\n        /* \"SportCrypto.sol\":2970:2978  balances */\n      0x00\n        /* \"SportCrypto.sol\":2970:2982  balances[to] */\n      dup1\n        /* \"SportCrypto.sol\":2979:2981  to */\n      dup6\n        /* \"SportCrypto.sol\":2970:2982  balances[to] */\n      0xffffffffffffffffffffffffffffffffffffffff\n      and\n      0xffffffffffffffffffffffffffffffffffffffff\n      and\n      dup2\n      mstore\n      0x20\n      add\n      swap1\n      dup2\n      mstore\n      0x20\n      add\n      0x00\n      keccak256\n      0x00\n        /* \"SportCrypto.sol\":2970:2991  balances[to] += value */\n      dup3\n      dup3\n      sload\n      tag_168\n      swap2\n      swap1\n      tag_113\n      jump\t// in\n    tag_168:\n      swap3\n      pop\n      pop\n      dup2\n      swap1\n      sstore\n      pop\n        /* \"SportCrypto.sol\":3020:3025  value */\n      dup2\n        /* \"SportCrypto.sol\":3002:3010  balances */\n      0x00\n        /* \"SportCrypto.sol\":3002:3016  balances[from] */\n      dup1\n        /* \"SportCrypto.sol\":3011:3015  from */\n      dup7\n        /* \"SportCrypto.sol\":3002:3016  balances[from] */\n      0xffffffffffffffffffffffffffffffffffffffff\n      and\n      0xffffffffffffffffffffffffffffffffffffffff\n      and\n      dup2\n      mstore\n      0x20\n      add\n      swap1\n      dup2\n      mstore\n      0x20\n      add\n      0x00\n      keccak256\n      0x00\n        /* \"SportCrypto.sol\":3002:3025  balances[from] -= value */\n      dup3\n      dup3\n      sload\n      tag_169\n      swap2\n      swap1\n      tag_167\n      jump\t// in\n    tag_169:\n      swap3\n      pop\n      pop\n      dup2\n      swap1\n      sstore\n      pop\n        /* \"SportCrypto.sol\":3056:3058  to */\n      dup3\n        /* \"SportCrypto.sol\":3041:3066  Transfer(from, to, value) */\n      0xffffffffffffffffffffffffffffffffffffffff\n      and\n        /* \"SportCrypto.sol\":3050:3054  from */\n      dup5\n        /* \"SportCrypto.sol\":3041:3066  Transfer(from, to, value) */\n      0xffffffffffffffffffffffffffffffffffffffff\n      and\n      0xddf252ad1be2c89b69c2b068fc378daa952ba7f163c4a11628f55a4df523b3ef\n        /* \"SportCrypto.sol\":3060:3065  value */\n      dup5\n        /* \"SportCrypto.sol\":3041:3066  Transfer(from, to, value) */\n      mload(0x40)\n      tag_170\n      swap2\n      swap1\n      tag_48\n      jump\t// in\n    tag_170:\n      mload(0x40)\n      dup1\n      swap2\n      sub\n      swap1\n      log3\n        /* \"SportCrypto.sol\":3084:3088  true */\n      0x01\n        /* \"SportCrypto.sol\":3077:3088  return true */\n      swap1\n      pop\n        /* \"SportCrypto.sol\":2593:3096  function transferFrom(address from, address to, uint value) public returns (bool) {... */\n      swap4\n      swap3\n      pop\n      pop\n      pop\n      jump\t// out\n        /* \"SportCrypto.sol\":197:237  mapping(address => uint) public balances */\n    tag_57:\n      mstore(0x20, 0x00)\n      dup1\n      0x00\n      mstore\n      keccak256(0x00, 0x40)\n      0x00\n      swap2\n      pop\n      swap1\n      pop\n      sload\n      dup2\n      jump\t// out\n        /* \"SportCrypto.sol\":597:623  uint8 public decimals = 18 */\n    tag_60:\n      0x05\n      0x00\n      swap1\n      sload\n      swap1\n      0x0100\n      exp\n      swap1\n      div\n      0xff\n      and\n      dup2\n      jump\t// out\n        /* \"SportCrypto.sol\":3445:3801  function createProposal(string memory description) public {... */\n    tag_66:\n        /* \"SportCrypto.sol\":3550:3551  0 */\n      0x00\n        /* \"SportCrypto.sol\":3528:3539  description */\n      dup2\n        /* \"SportCrypto.sol\":3522:3547  bytes(description).length */\n      mload\n        /* \"SportCrypto.sol\":3522:3551  bytes(description).length > 0 */\n      gt\n        /* \"SportCrypto.sol\":3514:3583  require(bytes(description).length > 0, \"Description cannot be empty\") */\n      tag_172\n      jumpi\n      mload(0x40)\n      0x08c379a000000000000000000000000000000000000000000000000000000000\n      dup2\n      mstore\n      0x04\n      add\n      tag_173\n      swap1\n      tag_174\n      jump\t// in\n    tag_173:\n      mload(0x40)\n      dup1\n      swap2\n      sub\n      swap1\n      revert\n    tag_172:\n        /* \"SportCrypto.sol\":3594:3603  proposals */\n      0x06\n        /* \"SportCrypto.sol\":3609:3726  Proposal({... */\n      mload(0x40)\n      dup1\n      0x60\n      add\n      0x40\n      mstore\n      dup1\n        /* \"SportCrypto.sol\":3646:3657  description */\n      dup4\n        /* \"SportCrypto.sol\":3609:3726  Proposal({... */\n      dup2\n      mstore\n      0x20\n      add\n        /* \"SportCrypto.sol\":3683:3684  0 */\n      0x00\n        /* \"SportCrypto.sol\":3609:3726  Proposal({... */\n      dup2\n      mstore\n      0x20\n      add\n        /* \"SportCrypto.sol\":3709:3714  false */\n      0x00\n        /* \"SportCrypto.sol\":3609:3726  Proposal({... */\n      iszero\n      iszero\n      dup2\n      mstore\n      pop\n        /* \"SportCrypto.sol\":3594:3727  proposals.push(Proposal({... */\n      swap1\n      dup1\n      0x01\n      dup2\n      sload\n      add\n      dup1\n      dup3\n      sstore\n      dup1\n      swap2\n      pop\n      pop\n      0x01\n      swap1\n      sub\n      swap1\n      0x00\n      mstore\n      keccak256(0x00, 0x20)\n      swap1\n      0x03\n      mul\n      add\n      0x00\n      swap1\n      swap2\n      swap1\n      swap2\n      swap1\n      swap2\n      pop\n      0x00\n      dup3\n      add\n      mload\n      dup2\n      0x00\n      add\n      swap1\n      dup2\n      tag_176\n      swap2\n      swap1\n      tag_177\n      jump\t// in\n    tag_176:\n      pop\n      0x20\n      dup3\n      add\n      mload\n      dup2\n      0x01\n      add\n      sstore\n      0x40\n      dup3\n      add\n      mload\n      dup2\n      0x02\n      add\n      exp(0x0100, 0x00)\n      dup2\n      sload\n      dup2\n      0xff\n      mul\n      not\n      and\n      swap1\n      dup4\n      iszero\n      iszero\n      mul\n      or\n      swap1\n      sstore\n      pop\n      pop\n      pop\n        /* \"SportCrypto.sol\":3743:3793  ProposalCreated(proposals.length - 1, description) */\n      0x9c770c289ab5bf7e57cb1d23c8ceae993aea46eb64847072fd3d78ca60d3e432\n        /* \"SportCrypto.sol\":3778:3779  1 */\n      0x01\n        /* \"SportCrypto.sol\":3759:3768  proposals */\n      0x06\n        /* \"SportCrypto.sol\":3759:3775  proposals.length */\n      dup1\n      sload\n      swap1\n      pop\n        /* \"SportCrypto.sol\":3759:3779  proposals.length - 1 */\n      tag_178\n      swap2\n      swap1\n      tag_167\n      jump\t// in\n    tag_178:\n        /* \"SportCrypto.sol\":3781:3792  description */\n      dup3\n        /* \"SportCrypto.sol\":3743:3793  ProposalCreated(proposals.length - 1, description) */\n      mload(0x40)\n      tag_179\n      swap3\n      swap2\n      swap1\n      tag_180\n      jump\t// in\n    tag_179:\n      mload(0x40)\n      dup1\n      swap2\n      sub\n      swap1\n      log1\n        /* \"SportCrypto.sol\":3445:3801  function createProposal(string memory description) public {... */\n      pop\n      jump\t// out\n        /* \"SportCrypto.sol\":1029:1083  mapping(uint => mapping(address => bool)) public voted */\n    tag_70:\n      mstore(0x20, 0x07)\n      dup2\n      0x00\n      mstore\n      mstore(0x20, keccak256(0x00, 0x40))\n      dup1\n      0x00\n      mstore\n      keccak256(0x00, 0x40)\n      0x00\n      swap2\n      pop\n      swap2\n      pop\n      swap1\n      sload\n      swap1\n      0x0100\n      exp\n      swap1\n      div\n      0xff\n      and\n      dup2\n      jump\t// out\n        /* \"SportCrypto.sol\":4760:4859  function getProposals() public view returns (Proposal[] memory) {... */\n    tag_73:\n        /* \"SportCrypto.sol\":4805:4822  Proposal[] memory */\n      0x60\n        /* \"SportCrypto.sol\":4842:4851  proposals */\n      0x06\n        /* \"SportCrypto.sol\":4835:4851  return proposals */\n      dup1\n      sload\n      dup1\n      0x20\n      mul\n      0x20\n      add\n      mload(0x40)\n      swap1\n      dup2\n      add\n      0x40\n      mstore\n      dup1\n      swap3\n      swap2\n      swap1\n      dup2\n      dup2\n      mstore\n      0x20\n      add\n      0x00\n      swap1\n    tag_182:\n      dup3\n      dup3\n      lt\n      iszero\n      tag_183\n      jumpi\n      dup4\n      dup3\n      swap1\n      0x00\n      mstore\n      keccak256(0x00, 0x20)\n      swap1\n      0x03\n      mul\n      add\n      mload(0x40)\n      dup1\n      0x60\n      add\n      0x40\n      mstore\n      swap1\n      dup2\n      0x00\n      dup3\n      add\n      dup1\n      sload\n      tag_185\n      swap1\n      tag_119\n      jump\t// in\n    tag_185:\n      dup1\n      0x1f\n      add\n      0x20\n      dup1\n      swap2\n      div\n      mul\n      0x20\n      add\n      mload(0x40)\n      swap1\n      dup2\n      add\n      0x40\n      mstore\n      dup1\n      swap3\n      swap2\n      swap1\n      dup2\n      dup2\n      mstore\n      0x20\n      add\n      dup3\n      dup1\n      sload\n      tag_186\n      swap1\n      tag_119\n      jump\t// in\n    tag_186:\n      dup1\n      iszero\n      tag_187\n      jumpi\n      dup1\n      0x1f\n      lt\n      tag_188\n      jumpi\n      0x0100\n      dup1\n      dup4\n      sload\n      div\n      mul\n      dup4\n      mstore\n      swap2\n      0x20\n      add\n      swap2\n      jump(tag_187)\n    tag_188:\n      dup3\n      add\n      swap2\n      swap1\n      0x00\n      mstore\n      keccak256(0x00, 0x20)\n      swap1\n    tag_189:\n      dup2\n      sload\n      dup2\n      mstore\n      swap1\n      0x01\n      add\n      swap1\n      0x20\n      add\n      dup1\n      dup4\n      gt\n      tag_189\n      jumpi\n      dup3\n      swap1\n      sub\n      0x1f\n      and\n      dup3\n      add\n      swap2\n    tag_187:\n      pop\n      pop\n      pop\n      pop\n      pop\n      dup2\n      mstore\n      0x20\n      add\n      0x01\n      dup3\n      add\n      sload\n      dup2\n      mstore\n      0x20\n      add\n      0x02\n      dup3\n      add\n      0x00\n      swap1\n      sload\n      swap1\n      0x0100\n      exp\n      swap1\n      div\n      0xff\n      and\n      iszero\n      iszero\n      iszero\n      iszero\n      dup2\n      mstore\n      pop\n      pop\n      dup2\n      mstore\n      0x20\n      add\n      swap1\n      0x01\n      add\n      swap1\n      jump(tag_182)\n    tag_183:\n      pop\n      pop\n      pop\n      pop\n      swap1\n      pop\n        /* \"SportCrypto.sol\":4760:4859  function getProposals() public view returns (Proposal[] memory) {... */\n      swap1\n      jump\t// out\n        /* \"SportCrypto.sol\":1975:2081  function balanceOf(address account) public view returns (uint) {... */\n    tag_78:\n        /* \"SportCrypto.sol\":2032:2036  uint */\n      0x00\n        /* \"SportCrypto.sol\":2056:2064  balances */\n      dup1\n        /* \"SportCrypto.sol\":2056:2073  balances[account] */\n      0x00\n        /* \"SportCrypto.sol\":2065:2072  account */\n      dup4\n        /* \"SportCrypto.sol\":2056:2073  balances[account] */\n      0xffffffffffffffffffffffffffffffffffffffff\n      and\n      0xffffffffffffffffffffffffffffffffffffffff\n      and\n      dup2\n      mstore\n      0x20\n      add\n      swap1\n      dup2\n      mstore\n      0x20\n      add\n      0x00\n      keccak256\n      sload\n        /* \"SportCrypto.sol\":2049:2073  return balances[account] */\n      swap1\n      pop\n        /* \"SportCrypto.sol\":1975:2081  function balanceOf(address account) public view returns (uint) {... */\n      swap2\n      swap1\n      pop\n      jump\t// out\n        /* \"SportCrypto.sol\":547:574  string public symbol = \"SP\" */\n    tag_81:\n      0x04\n      dup1\n      sload\n      tag_191\n      swap1\n      tag_119\n      jump\t// in\n    tag_191:\n      dup1\n      0x1f\n      add\n      0x20\n      dup1\n      swap2\n      div\n      mul\n      0x20\n      add\n      mload(0x40)\n      swap1\n      dup2\n      add\n      0x40\n      mstore\n      dup1\n      swap3\n      swap2\n      swap1\n      dup2\n      dup2\n      mstore\n      0x20\n      add\n      dup3\n      dup1\n      sload\n      tag_192\n      swap1\n      tag_119\n      jump\t// in\n    tag_192:\n      dup1\n      iszero\n      tag_193\n      jumpi\n      dup1\n      0x1f\n      lt\n      tag_194\n      jumpi\n      0x0100\n      dup1\n      dup4\n      sload\n      div\n      mul\n      dup4\n      mstore\n      swap2\n      0x20\n      add\n      swap2\n      jump(tag_193)\n    tag_194:\n      dup3\n      add\n      swap2\n      swap1\n      0x00\n      mstore\n      keccak256(0x00, 0x20)\n      swap1\n    tag_195:\n      dup2\n      sload\n      dup2\n      mstore\n      swap1\n      0x01\n      add\n      swap1\n      0x20\n      add\n      dup1\n      dup4\n      gt\n      tag_195\n      jumpi\n      dup3\n      swap1\n      sub\n      0x1f\n      and\n      dup3\n      add\n      swap2\n    tag_193:\n      pop\n      pop\n      pop\n      pop\n      pop\n      dup2\n      jump\t// out\n        /* \"SportCrypto.sol\":2144:2520  function transfer(address to, uint value) public returns (bool) {... */\n    tag_85:\n        /* \"SportCrypto.sol\":2202:2206  bool */\n      0x00\n        /* \"SportCrypto.sol\":2252:2257  value */\n      dup2\n        /* \"SportCrypto.sol\":2227:2248  balanceOf(msg.sender) */\n      tag_197\n        /* \"SportCrypto.sol\":2237:2247  msg.sender */\n      caller\n        /* \"SportCrypto.sol\":2227:2236  balanceOf */\n      tag_78\n        /* \"SportCrypto.sol\":2227:2248  balanceOf(msg.sender) */\n      jump\t// in\n    tag_197:\n        /* \"SportCrypto.sol\":2227:2257  balanceOf(msg.sender) >= value */\n      lt\n      iszero\n        /* \"SportCrypto.sol\":2219:2282  require(balanceOf(msg.sender) >= value, \"Insufficient balance\") */\n      tag_198\n      jumpi\n      mload(0x40)\n      0x08c379a000000000000000000000000000000000000000000000000000000000\n      dup2\n      mstore\n      0x04\n      add\n      tag_199\n      swap1\n      tag_156\n      jump\t// in\n    tag_199:\n      mload(0x40)\n      dup1\n      swap2\n      sub\n      swap1\n      revert\n    tag_198:\n        /* \"SportCrypto.sol\":2339:2341  10 */\n      0x0a\n        /* \"SportCrypto.sol\":2325:2336  totalSupply */\n      sload(0x02)\n        /* \"SportCrypto.sol\":2325:2341  totalSupply / 10 */\n      tag_200\n      swap2\n      swap1\n      tag_161\n      jump\t// in\n    tag_200:\n        /* \"SportCrypto.sol\":2316:2321  value */\n      dup3\n        /* \"SportCrypto.sol\":2301:2309  balances */\n      0x00\n        /* \"SportCrypto.sol\":2301:2313  balances[to] */\n      dup1\n        /* \"SportCrypto.sol\":2310:2312  to */\n      dup7\n        /* \"SportCrypto.sol\":2301:2313  balances[to] */\n      0xffffffffffffffffffffffffffffffffffffffff\n      and\n      0xffffffffffffffffffffffffffffffffffffffff\n      and\n      dup2\n      mstore\n      0x20\n      add\n      swap1\n      dup2\n      mstore\n      0x20\n      add\n      0x00\n      keccak256\n      sload\n        /* \"SportCrypto.sol\":2301:2321  balances[to] + value */\n      tag_201\n      swap2\n      swap1\n      tag_113\n      jump\t// in\n    tag_201:\n        /* \"SportCrypto.sol\":2301:2341  balances[to] + value <= totalSupply / 10 */\n      gt\n      iszero\n        /* \"SportCrypto.sol\":2293:2371  require(balances[to] + value <= totalSupply / 10, \"Exceeds max ownership cap\") */\n      tag_202\n      jumpi\n      mload(0x40)\n      0x08c379a000000000000000000000000000000000000000000000000000000000\n      dup2\n      mstore\n      0x04\n      add\n      tag_203\n      swap1\n      tag_165\n      jump\t// in\n    tag_203:\n      mload(0x40)\n      dup1\n      swap2\n      sub\n      swap1\n      revert\n    tag_202:\n        /* \"SportCrypto.sol\":2398:2403  value */\n      dup2\n        /* \"SportCrypto.sol\":2382:2390  balances */\n      0x00\n        /* \"SportCrypto.sol\":2382:2394  balances[to] */\n      dup1\n        /* \"SportCrypto.sol\":2391:2393  to */\n      dup6\n        /* \"SportCrypto.sol\":2382:2394  balances[to] */\n      0xffffffffffffffffffffffffffffffffffffffff\n      and\n      0xffffffffffffffffffffffffffffffffffffffff\n      and\n      dup2\n      mstore\n      0x20\n      add\n      swap1\n      dup2\n      mstore\n      0x20\n      add\n      0x00\n      keccak256\n      0x00\n        /* \"SportCrypto.sol\":2382:2403  balances[to] += value */\n      dup3\n      dup3\n      sload\n      tag_204\n      swap2\n      swap1\n      tag_113\n      jump\t// in\n    tag_204:\n      swap3\n      pop\n      pop\n      dup2\n      swap1\n      sstore\n      pop\n        /* \"SportCrypto.sol\":2438:2443  value */\n      dup2\n        /* \"SportCrypto.sol\":2414:2422  balances */\n      0x00\n        /* \"SportCrypto.sol\":2414:2434  balances[msg.sender] */\n      dup1\n        /* \"SportCrypto.sol\":2423:2433  msg.sender */\n      caller\n        /* \"SportCrypto.sol\":2414:2434  balances[msg.sender] */\n      0xffffffffffffffffffffffffffffffffffffffff\n      and\n      0xffffffffffffffffffffffffffffffffffffffff\n      and\n      dup2\n      mstore\n      0x20\n      add\n      swap1\n      dup2\n      mstore\n      0x20\n      add\n      0x00\n      keccak256\n      0x00\n        /* \"SportCrypto.sol\":2414:2443  balances[msg.sender] -= value */\n      dup3\n      dup3\n      sload\n      tag_205\n      swap2\n      swap1\n      tag_167\n      jump\t// in\n    tag_205:\n      swap3\n      pop\n      pop\n      dup2\n      swap1\n      sstore\n      pop\n        /* \"SportCrypto.sol\":2480:2482  to */\n      dup3\n        /* \"SportCrypto.sol\":2459:2490  Transfer(msg.sender, to, value) */\n      0xffffffffffffffffffffffffffffffffffffffff\n      and\n        /* \"SportCrypto.sol\":2468:2478  msg.sender */\n      caller\n        /* \"SportCrypto.sol\":2459:2490  Transfer(msg.sender, to, value) */\n      0xffffffffffffffffffffffffffffffffffffffff\n      and\n      0xddf252ad1be2c89b69c2b068fc378daa952ba7f163c4a11628f55a4df523b3ef\n        /* \"SportCrypto.sol\":2484:2489  value */\n      dup5\n        /* \"SportCrypto.sol\":2459:2490  Transfer(msg.sender, to, value) */\n      mload(0x40)\n      tag_206\n      swap2\n      swap1\n      tag_48\n      jump\t// in\n    tag_206:\n      mload(0x40)\n      dup1\n      swap2\n      sub\n      swap1\n      log3\n        /* \"SportCrypto.sol\":2508:2512  true */\n      0x01\n        /* \"SportCrypto.sol\":2501:2512  return true */\n      swap1\n      pop\n        /* \"SportCrypto.sol\":2144:2520  function transfer(address to, uint value) public returns (bool) {... */\n      swap3\n      swap2\n      pop\n      pop\n      jump\t// out\n        /* \"SportCrypto.sol\":1128:1156  address public contractOwner */\n    tag_88:\n      0x08\n      0x00\n      swap1\n      sload\n      swap1\n      0x0100\n      exp\n      swap1\n      div\n      0xffffffffffffffffffffffffffffffffffffffff\n      and\n      dup2\n      jump\t// out\n        /* \"SportCrypto.sol\":303:364  mapping(address => mapping(address => uint)) public allowance */\n    tag_94:\n      mstore(0x20, 0x01)\n      dup2\n      0x00\n      mstore\n      mstore(0x20, keccak256(0x00, 0x40))\n      dup1\n      0x00\n      mstore\n      keccak256(0x00, 0x40)\n      0x00\n      swap2\n      pop\n      swap2\n      pop\n      pop\n      sload\n      dup2\n      jump\t// out\n        /* \"#utility.yul\":7:82   */\n    tag_207:\n        /* \"#utility.yul\":40:46   */\n      0x00\n        /* \"#utility.yul\":73:75   */\n      0x40\n        /* \"#utility.yul\":67:76   */\n      mload\n        /* \"#utility.yul\":57:76   */\n      swap1\n      pop\n        /* \"#utility.yul\":7:82   */\n      swap1\n      jump\t// out\n        /* \"#utility.yul\":88:205   */\n    tag_208:\n        /* \"#utility.yul\":197:198   */\n      0x00\n        /* \"#utility.yul\":194:195   */\n      dup1\n        /* \"#utility.yul\":187:199   */\n      revert\n        /* \"#utility.yul\":211:328   */\n    tag_209:\n        /* \"#utility.yul\":320:321   */\n      0x00\n        /* \"#utility.yul\":317:318   */\n      dup1\n        /* \"#utility.yul\":310:322   */\n      revert\n        /* \"#utility.yul\":334:411   */\n    tag_210:\n        /* \"#utility.yul\":371:378   */\n      0x00\n        /* \"#utility.yul\":400:405   */\n      dup2\n        /* \"#utility.yul\":389:405   */\n      swap1\n      pop\n        /* \"#utility.yul\":334:411   */\n      swap2\n      swap1\n      pop\n      jump\t// out\n        /* \"#utility.yul\":417:539   */\n    tag_211:\n        /* \"#utility.yul\":490:514   */\n      tag_291\n        /* \"#utility.yul\":508:513   */\n      dup2\n        /* \"#utility.yul\":490:514   */\n      tag_210\n      jump\t// in\n    tag_291:\n        /* \"#utility.yul\":483:488   */\n      dup2\n        /* \"#utility.yul\":480:515   */\n      eq\n        /* \"#utility.yul\":470:533   */\n      tag_292\n      jumpi\n        /* \"#utility.yul\":529:530   */\n      0x00\n        /* \"#utility.yul\":526:527   */\n      dup1\n        /* \"#utility.yul\":519:531   */\n      revert\n        /* \"#utility.yul\":470:533   */\n    tag_292:\n        /* \"#utility.yul\":417:539   */\n      pop\n      jump\t// out\n        /* \"#utility.yul\":545:684   */\n    tag_212:\n        /* \"#utility.yul\":591:596   */\n      0x00\n        /* \"#utility.yul\":629:635   */\n      dup2\n        /* \"#utility.yul\":616:636   */\n      calldataload\n        /* \"#utility.yul\":607:636   */\n      swap1\n      pop\n        /* \"#utility.yul\":645:678   */\n      tag_294\n        /* \"#utility.yul\":672:677   */\n      dup2\n        /* \"#utility.yul\":645:678   */\n      tag_211\n      jump\t// in\n    tag_294:\n        /* \"#utility.yul\":545:684   */\n      swap3\n      swap2\n      pop\n      pop\n      jump\t// out\n        /* \"#utility.yul\":690:1019   */\n    tag_25:\n        /* \"#utility.yul\":749:755   */\n      0x00\n        /* \"#utility.yul\":798:800   */\n      0x20\n        /* \"#utility.yul\":786:795   */\n      dup3\n        /* \"#utility.yul\":777:784   */\n      dup5\n        /* \"#utility.yul\":773:796   */\n      sub\n        /* \"#utility.yul\":769:801   */\n      slt\n        /* \"#utility.yul\":766:885   */\n      iszero\n      tag_296\n      jumpi\n        /* \"#utility.yul\":804:883   */\n      tag_297\n      tag_208\n      jump\t// in\n    tag_297:\n        /* \"#utility.yul\":766:885   */\n    tag_296:\n        /* \"#utility.yul\":924:925   */\n      0x00\n        /* \"#utility.yul\":949:1002   */\n      tag_298\n        /* \"#utility.yul\":994:1001   */\n      dup5\n        /* \"#utility.yul\":985:991   */\n      dup3\n        /* \"#utility.yul\":974:983   */\n      dup6\n        /* \"#utility.yul\":970:992   */\n      add\n        /* \"#utility.yul\":949:1002   */\n      tag_212\n      jump\t// in\n    tag_298:\n        /* \"#utility.yul\":939:1002   */\n      swap2\n      pop\n        /* \"#utility.yul\":895:1012   */\n      pop\n        /* \"#utility.yul\":690:1019   */\n      swap3\n      swap2\n      pop\n      pop\n      jump\t// out\n        /* \"#utility.yul\":1025:1124   */\n    tag_213:\n        /* \"#utility.yul\":1077:1083   */\n      0x00\n        /* \"#utility.yul\":1111:1116   */\n      dup2\n        /* \"#utility.yul\":1105:1117   */\n      mload\n        /* \"#utility.yul\":1095:1117   */\n      swap1\n      pop\n        /* \"#utility.yul\":1025:1124   */\n      swap2\n      swap1\n      pop\n      jump\t// out\n        /* \"#utility.yul\":1130:1299   */\n    tag_214:\n        /* \"#utility.yul\":1214:1225   */\n      0x00\n        /* \"#utility.yul\":1248:1254   */\n      dup3\n        /* \"#utility.yul\":1243:1246   */\n      dup3\n        /* \"#utility.yul\":1236:1255   */\n      mstore\n        /* \"#utility.yul\":1288:1292   */\n      0x20\n        /* \"#utility.yul\":1283:1286   */\n      dup3\n        /* \"#utility.yul\":1279:1293   */\n      add\n        /* \"#utility.yul\":1264:1293   */\n      swap1\n      pop\n        /* \"#utility.yul\":1130:1299   */\n      swap3\n      swap2\n      pop\n      pop\n      jump\t// out\n        /* \"#utility.yul\":1305:1444   */\n    tag_215:\n        /* \"#utility.yul\":1394:1400   */\n      dup3\n        /* \"#utility.yul\":1389:1392   */\n      dup2\n        /* \"#utility.yul\":1384:1387   */\n      dup4\n        /* \"#utility.yul\":1378:1401   */\n      mcopy\n        /* \"#utility.yul\":1435:1436   */\n      0x00\n        /* \"#utility.yul\":1426:1432   */\n      dup4\n        /* \"#utility.yul\":1421:1424   */\n      dup4\n        /* \"#utility.yul\":1417:1433   */\n      add\n        /* \"#utility.yul\":1410:1437   */\n      mstore\n        /* \"#utility.yul\":1305:1444   */\n      pop\n      pop\n      pop\n      jump\t// out\n        /* \"#utility.yul\":1450:1552   */\n    tag_216:\n        /* \"#utility.yul\":1491:1497   */\n      0x00\n        /* \"#utility.yul\":1542:1544   */\n      0x1f\n        /* \"#utility.yul\":1538:1545   */\n      not\n        /* \"#utility.yul\":1533:1535   */\n      0x1f\n        /* \"#utility.yul\":1526:1531   */\n      dup4\n        /* \"#utility.yul\":1522:1536   */\n      add\n        /* \"#utility.yul\":1518:1546   */\n      and\n        /* \"#utility.yul\":1508:1546   */\n      swap1\n      pop\n        /* \"#utility.yul\":1450:1552   */\n      swap2\n      swap1\n      pop\n      jump\t// out\n        /* \"#utility.yul\":1558:1935   */\n    tag_217:\n        /* \"#utility.yul\":1646:1649   */\n      0x00\n        /* \"#utility.yul\":1674:1713   */\n      tag_304\n        /* \"#utility.yul\":1707:1712   */\n      dup3\n        /* \"#utility.yul\":1674:1713   */\n      tag_213\n      jump\t// in\n    tag_304:\n        /* \"#utility.yul\":1729:1800   */\n      tag_305\n        /* \"#utility.yul\":1793:1799   */\n      dup2\n        /* \"#utility.yul\":1788:1791   */\n      dup6\n        /* \"#utility.yul\":1729:1800   */\n      tag_214\n      jump\t// in\n    tag_305:\n        /* \"#utility.yul\":1722:1800   */\n      swap4\n      pop\n        /* \"#utility.yul\":1809:1874   */\n      tag_306\n        /* \"#utility.yul\":1867:1873   */\n      dup2\n        /* \"#utility.yul\":1862:1865   */\n      dup6\n        /* \"#utility.yul\":1855:1859   */\n      0x20\n        /* \"#utility.yul\":1848:1853   */\n      dup7\n        /* \"#utility.yul\":1844:1860   */\n      add\n        /* \"#utility.yul\":1809:1874   */\n      tag_215\n      jump\t// in\n    tag_306:\n        /* \"#utility.yul\":1899:1928   */\n      tag_307\n        /* \"#utility.yul\":1921:1927   */\n      dup2\n        /* \"#utility.yul\":1899:1928   */\n      tag_216\n      jump\t// in\n    tag_307:\n        /* \"#utility.yul\":1894:1897   */\n      dup5\n        /* \"#utility.yul\":1890:1929   */\n      add\n        /* \"#utility.yul\":1883:1929   */\n      swap2\n      pop\n        /* \"#utility.yul\":1650:1935   */\n      pop\n        /* \"#utility.yul\":1558:1935   */\n      swap3\n      swap2\n      pop\n      pop\n      jump\t// out\n        /* \"#utility.yul\":1941:2059   */\n    tag_218:\n        /* \"#utility.yul\":2028:2052   */\n      tag_309\n        /* \"#utility.yul\":2046:2051   */\n      dup2\n        /* \"#utility.yul\":2028:2052   */\n      tag_210\n      jump\t// in\n    tag_309:\n        /* \"#utility.yul\":2023:2026   */\n      dup3\n        /* \"#utility.yul\":2016:2053   */\n      mstore\n        /* \"#utility.yul\":1941:2059   */\n      pop\n      pop\n      jump\t// out\n        /* \"#utility.yul\":2065:2155   */\n    tag_219:\n        /* \"#utility.yul\":2099:2106   */\n      0x00\n        /* \"#utility.yul\":2142:2147   */\n      dup2\n        /* \"#utility.yul\":2135:2148   */\n      iszero\n        /* \"#utility.yul\":2128:2149   */\n      iszero\n        /* \"#utility.yul\":2117:2149   */\n      swap1\n      pop\n        /* \"#utility.yul\":2065:2155   */\n      swap2\n      swap1\n      pop\n      jump\t// out\n        /* \"#utility.yul\":2161:2270   */\n    tag_220:\n        /* \"#utility.yul\":2242:2263   */\n      tag_312\n        /* \"#utility.yul\":2257:2262   */\n      dup2\n        /* \"#utility.yul\":2242:2263   */\n      tag_219\n      jump\t// in\n    tag_312:\n        /* \"#utility.yul\":2237:2240   */\n      dup3\n        /* \"#utility.yul\":2230:2264   */\n      mstore\n        /* \"#utility.yul\":2161:2270   */\n      pop\n      pop\n      jump\t// out\n        /* \"#utility.yul\":2276:2797   */\n    tag_31:\n        /* \"#utility.yul\":2439:2443   */\n      0x00\n        /* \"#utility.yul\":2477:2479   */\n      0x60\n        /* \"#utility.yul\":2466:2475   */\n      dup3\n        /* \"#utility.yul\":2462:2480   */\n      add\n        /* \"#utility.yul\":2454:2480   */\n      swap1\n      pop\n        /* \"#utility.yul\":2526:2535   */\n      dup2\n        /* \"#utility.yul\":2520:2524   */\n      dup2\n        /* \"#utility.yul\":2516:2536   */\n      sub\n        /* \"#utility.yul\":2512:2513   */\n      0x00\n        /* \"#utility.yul\":2501:2510   */\n      dup4\n        /* \"#utility.yul\":2497:2514   */\n      add\n        /* \"#utility.yul\":2490:2537   */\n      mstore\n        /* \"#utility.yul\":2554:2632   */\n      tag_314\n        /* \"#utility.yul\":2627:2631   */\n      dup2\n        /* \"#utility.yul\":2618:2624   */\n      dup7\n        /* \"#utility.yul\":2554:2632   */\n      tag_217\n      jump\t// in\n    tag_314:\n        /* \"#utility.yul\":2546:2632   */\n      swap1\n      pop\n        /* \"#utility.yul\":2642:2714   */\n      tag_315\n        /* \"#utility.yul\":2710:2712   */\n      0x20\n        /* \"#utility.yul\":2699:2708   */\n      dup4\n        /* \"#utility.yul\":2695:2713   */\n      add\n        /* \"#utility.yul\":2686:2692   */\n      dup6\n        /* \"#utility.yul\":2642:2714   */\n      tag_218\n      jump\t// in\n    tag_315:\n        /* \"#utility.yul\":2724:2790   */\n      tag_316\n        /* \"#utility.yul\":2786:2788   */\n      0x40\n        /* \"#utility.yul\":2775:2784   */\n      dup4\n        /* \"#utility.yul\":2771:2789   */\n      add\n        /* \"#utility.yul\":2762:2768   */\n      dup5\n        /* \"#utility.yul\":2724:2790   */\n      tag_220\n      jump\t// in\n    tag_316:\n        /* \"#utility.yul\":2276:2797   */\n      swap5\n      swap4\n      pop\n      pop\n      pop\n      pop\n      jump\t// out\n        /* \"#utility.yul\":2803:3116   */\n    tag_35:\n        /* \"#utility.yul\":2916:2920   */\n      0x00\n        /* \"#utility.yul\":2954:2956   */\n      0x20\n        /* \"#utility.yul\":2943:2952   */\n      dup3\n        /* \"#utility.yul\":2939:2957   */\n      add\n        /* \"#utility.yul\":2931:2957   */\n      swap1\n      pop\n        /* \"#utility.yul\":3003:3012   */\n      dup2\n        /* \"#utility.yul\":2997:3001   */\n      dup2\n        /* \"#utility.yul\":2993:3013   */\n      sub\n        /* \"#utility.yul\":2989:2990   */\n      0x00\n        /* \"#utility.yul\":2978:2987   */\n      dup4\n        /* \"#utility.yul\":2974:2991   */\n      add\n        /* \"#utility.yul\":2967:3014   */\n      mstore\n        /* \"#utility.yul\":3031:3109   */\n      tag_318\n        /* \"#utility.yul\":3104:3108   */\n      dup2\n        /* \"#utility.yul\":3095:3101   */\n      dup5\n        /* \"#utility.yul\":3031:3109   */\n      tag_217\n      jump\t// in\n    tag_318:\n        /* \"#utility.yul\":3023:3109   */\n      swap1\n      pop\n        /* \"#utility.yul\":2803:3116   */\n      swap3\n      swap2\n      pop\n      pop\n      jump\t// out\n        /* \"#utility.yul\":3122:3248   */\n    tag_221:\n        /* \"#utility.yul\":3159:3166   */\n      0x00\n        /* \"#utility.yul\":3199:3241   */\n      0xffffffffffffffffffffffffffffffffffffffff\n        /* \"#utility.yul\":3192:3197   */\n      dup3\n        /* \"#utility.yul\":3188:3242   */\n      and\n        /* \"#utility.yul\":3177:3242   */\n      swap1\n      pop\n        /* \"#utility.yul\":3122:3248   */\n      swap2\n      swap1\n      pop\n      jump\t// out\n        /* \"#utility.yul\":3254:3350   */\n    tag_222:\n        /* \"#utility.yul\":3291:3298   */\n      0x00\n        /* \"#utility.yul\":3320:3344   */\n      tag_321\n        /* \"#utility.yul\":3338:3343   */\n      dup3\n        /* \"#utility.yul\":3320:3344   */\n      tag_221\n      jump\t// in\n    tag_321:\n        /* \"#utility.yul\":3309:3344   */\n      swap1\n      pop\n        /* \"#utility.yul\":3254:3350   */\n      swap2\n      swap1\n      pop\n      jump\t// out\n        /* \"#utility.yul\":3356:3478   */\n    tag_223:\n        /* \"#utility.yul\":3429:3453   */\n      tag_323\n        /* \"#utility.yul\":3447:3452   */\n      dup2\n        /* \"#utility.yul\":3429:3453   */\n      tag_222\n      jump\t// in\n    tag_323:\n        /* \"#utility.yul\":3422:3427   */\n      dup2\n        /* \"#utility.yul\":3419:3454   */\n      eq\n        /* \"#utility.yul\":3409:3472   */\n      tag_324\n      jumpi\n        /* \"#utility.yul\":3468:3469   */\n      0x00\n        /* \"#utility.yul\":3465:3466   */\n      dup1\n        /* \"#utility.yul\":3458:3470   */\n      revert\n        /* \"#utility.yul\":3409:3472   */\n    tag_324:\n        /* \"#utility.yul\":3356:3478   */\n      pop\n      jump\t// out\n        /* \"#utility.yul\":3484:3623   */\n    tag_224:\n        /* \"#utility.yul\":3530:3535   */\n      0x00\n        /* \"#utility.yul\":3568:3574   */\n      dup2\n        /* \"#utility.yul\":3555:3575   */\n      calldataload\n        /* \"#utility.yul\":3546:3575   */\n      swap1\n      pop\n        /* \"#utility.yul\":3584:3617   */\n      tag_326\n        /* \"#utility.yul\":3611:3616   */\n      dup2\n        /* \"#utility.yul\":3584:3617   */\n      tag_223\n      jump\t// in\n    tag_326:\n        /* \"#utility.yul\":3484:3623   */\n      swap3\n      swap2\n      pop\n      pop\n      jump\t// out\n        /* \"#utility.yul\":3629:4103   */\n    tag_38:\n        /* \"#utility.yul\":3697:3703   */\n      0x00\n        /* \"#utility.yul\":3705:3711   */\n      dup1\n        /* \"#utility.yul\":3754:3756   */\n      0x40\n        /* \"#utility.yul\":3742:3751   */\n      dup4\n        /* \"#utility.yul\":3733:3740   */\n      dup6\n        /* \"#utility.yul\":3729:3752   */\n      sub\n        /* \"#utility.yul\":3725:3757   */\n      slt\n        /* \"#utility.yul\":3722:3841   */\n      iszero\n      tag_328\n      jumpi\n        /* \"#utility.yul\":3760:3839   */\n      tag_329\n      tag_208\n      jump\t// in\n    tag_329:\n        /* \"#utility.yul\":3722:3841   */\n    tag_328:\n        /* \"#utility.yul\":3880:3881   */\n      0x00\n        /* \"#utility.yul\":3905:3958   */\n      tag_330\n        /* \"#utility.yul\":3950:3957   */\n      dup6\n        /* \"#utility.yul\":3941:3947   */\n      dup3\n        /* \"#utility.yul\":3930:3939   */\n      dup7\n        /* \"#utility.yul\":3926:3948   */\n      add\n        /* \"#utility.yul\":3905:3958   */\n      tag_224\n      jump\t// in\n    tag_330:\n        /* \"#utility.yul\":3895:3958   */\n      swap3\n      pop\n        /* \"#utility.yul\":3851:3968   */\n      pop\n        /* \"#utility.yul\":4007:4009   */\n      0x20\n        /* \"#utility.yul\":4033:4086   */\n      tag_331\n        /* \"#utility.yul\":4078:4085   */\n      dup6\n        /* \"#utility.yul\":4069:4075   */\n      dup3\n        /* \"#utility.yul\":4058:4067   */\n      dup7\n        /* \"#utility.yul\":4054:4076   */\n      add\n        /* \"#utility.yul\":4033:4086   */\n      tag_212\n      jump\t// in\n    tag_331:\n        /* \"#utility.yul\":4023:4086   */\n      swap2\n      pop\n        /* \"#utility.yul\":3978:4096   */\n      pop\n        /* \"#utility.yul\":3629:4103   */\n      swap3\n      pop\n      swap3\n      swap1\n      pop\n      jump\t// out\n        /* \"#utility.yul\":4109:4319   */\n    tag_41:\n        /* \"#utility.yul\":4196:4200   */\n      0x00\n        /* \"#utility.yul\":4234:4236   */\n      0x20\n        /* \"#utility.yul\":4223:4232   */\n      dup3\n        /* \"#utility.yul\":4219:4237   */\n      add\n        /* \"#utility.yul\":4211:4237   */\n      swap1\n      pop\n        /* \"#utility.yul\":4247:4312   */\n      tag_333\n        /* \"#utility.yul\":4309:4310   */\n      0x00\n        /* \"#utility.yul\":4298:4307   */\n      dup4\n        /* \"#utility.yul\":4294:4311   */\n      add\n        /* \"#utility.yul\":4285:4291   */\n      dup5\n        /* \"#utility.yul\":4247:4312   */\n      tag_220\n      jump\t// in\n    tag_333:\n        /* \"#utility.yul\":4109:4319   */\n      swap3\n      swap2\n      pop\n      pop\n      jump\t// out\n        /* \"#utility.yul\":4325:4547   */\n    tag_48:\n        /* \"#utility.yul\":4418:4422   */\n      0x00\n        /* \"#utility.yul\":4456:4458   */\n      0x20\n        /* \"#utility.yul\":4445:4454   */\n      dup3\n        /* \"#utility.yul\":4441:4459   */\n      add\n        /* \"#utility.yul\":4433:4459   */\n      swap1\n      pop\n        /* \"#utility.yul\":4469:4540   */\n      tag_335\n        /* \"#utility.yul\":4537:4538   */\n      0x00\n        /* \"#utility.yul\":4526:4535   */\n      dup4\n        /* \"#utility.yul\":4522:4539   */\n      add\n        /* \"#utility.yul\":4513:4519   */\n      dup5\n        /* \"#utility.yul\":4469:4540   */\n      tag_218\n      jump\t// in\n    tag_335:\n        /* \"#utility.yul\":4325:4547   */\n      swap3\n      swap2\n      pop\n      pop\n      jump\t// out\n        /* \"#utility.yul\":4553:5172   */\n    tag_51:\n        /* \"#utility.yul\":4630:4636   */\n      0x00\n        /* \"#utility.yul\":4638:4644   */\n      dup1\n        /* \"#utility.yul\":4646:4652   */\n      0x00\n        /* \"#utility.yul\":4695:4697   */\n      0x60\n        /* \"#utility.yul\":4683:4692   */\n      dup5\n        /* \"#utility.yul\":4674:4681   */\n      dup7\n        /* \"#utility.yul\":4670:4693   */\n      sub\n        /* \"#utility.yul\":4666:4698   */\n      slt\n        /* \"#utility.yul\":4663:4782   */\n      iszero\n      tag_337\n      jumpi\n        /* \"#utility.yul\":4701:4780   */\n      tag_338\n      tag_208\n      jump\t// in\n    tag_338:\n        /* \"#utility.yul\":4663:4782   */\n    tag_337:\n        /* \"#utility.yul\":4821:4822   */\n      0x00\n        /* \"#utility.yul\":4846:4899   */\n      tag_339\n        /* \"#utility.yul\":4891:4898   */\n      dup7\n        /* \"#utility.yul\":4882:4888   */\n      dup3\n        /* \"#utility.yul\":4871:4880   */\n      dup8\n        /* \"#utility.yul\":4867:4889   */\n      add\n        /* \"#utility.yul\":4846:4899   */\n      tag_224\n      jump\t// in\n    tag_339:\n        /* \"#utility.yul\":4836:4899   */\n      swap4\n      pop\n        /* \"#utility.yul\":4792:4909   */\n      pop\n        /* \"#utility.yul\":4948:4950   */\n      0x20\n        /* \"#utility.yul\":4974:5027   */\n      tag_340\n        /* \"#utility.yul\":5019:5026   */\n      dup7\n        /* \"#utility.yul\":5010:5016   */\n      dup3\n        /* \"#utility.yul\":4999:5008   */\n      dup8\n        /* \"#utility.yul\":4995:5017   */\n      add\n        /* \"#utility.yul\":4974:5027   */\n      tag_224\n      jump\t// in\n    tag_340:\n        /* \"#utility.yul\":4964:5027   */\n      swap3\n      pop\n        /* \"#utility.yul\":4919:5037   */\n      pop\n        /* \"#utility.yul\":5076:5078   */\n      0x40\n        /* \"#utility.yul\":5102:5155   */\n      tag_341\n        /* \"#utility.yul\":5147:5154   */\n      dup7\n        /* \"#utility.yul\":5138:5144   */\n      dup3\n        /* \"#utility.yul\":5127:5136   */\n      dup8\n        /* \"#utility.yul\":5123:5145   */\n      add\n        /* \"#utility.yul\":5102:5155   */\n      tag_212\n      jump\t// in\n    tag_341:\n        /* \"#utility.yul\":5092:5155   */\n      swap2\n      pop\n        /* \"#utility.yul\":5047:5165   */\n      pop\n        /* \"#utility.yul\":4553:5172   */\n      swap3\n      pop\n      swap3\n      pop\n      swap3\n      jump\t// out\n        /* \"#utility.yul\":5178:5507   */\n    tag_56:\n        /* \"#utility.yul\":5237:5243   */\n      0x00\n        /* \"#utility.yul\":5286:5288   */\n      0x20\n        /* \"#utility.yul\":5274:5283   */\n      dup3\n        /* \"#utility.yul\":5265:5272   */\n      dup5\n        /* \"#utility.yul\":5261:5284   */\n      sub\n        /* \"#utility.yul\":5257:5289   */\n      slt\n        /* \"#utility.yul\":5254:5373   */\n      iszero\n      tag_343\n      jumpi\n        /* \"#utility.yul\":5292:5371   */\n      tag_344\n      tag_208\n      jump\t// in\n    tag_344:\n        /* \"#utility.yul\":5254:5373   */\n    tag_343:\n        /* \"#utility.yul\":5412:5413   */\n      0x00\n        /* \"#utility.yul\":5437:5490   */\n      tag_345\n        /* \"#utility.yul\":5482:5489   */\n      dup5\n        /* \"#utility.yul\":5473:5479   */\n      dup3\n        /* \"#utility.yul\":5462:5471   */\n      dup6\n        /* \"#utility.yul\":5458:5480   */\n      add\n        /* \"#utility.yul\":5437:5490   */\n      tag_224\n      jump\t// in\n    tag_345:\n        /* \"#utility.yul\":5427:5490   */\n      swap2\n      pop\n        /* \"#utility.yul\":5383:5500   */\n      pop\n        /* \"#utility.yul\":5178:5507   */\n      swap3\n      swap2\n      pop\n      pop\n      jump\t// out\n        /* \"#utility.yul\":5513:5599   */\n    tag_225:\n        /* \"#utility.yul\":5548:5555   */\n      0x00\n        /* \"#utility.yul\":5588:5592   */\n      0xff\n        /* \"#utility.yul\":5581:5586   */\n      dup3\n        /* \"#utility.yul\":5577:5593   */\n      and\n        /* \"#utility.yul\":5566:5593   */\n      swap1\n      pop\n        /* \"#utility.yul\":5513:5599   */\n      swap2\n      swap1\n      pop\n      jump\t// out\n        /* \"#utility.yul\":5605:5717   */\n    tag_226:\n        /* \"#utility.yul\":5688:5710   */\n      tag_348\n        /* \"#utility.yul\":5704:5709   */\n      dup2\n        /* \"#utility.yul\":5688:5710   */\n      tag_225\n      jump\t// in\n    tag_348:\n        /* \"#utility.yul\":5683:5686   */\n      dup3\n        /* \"#utility.yul\":5676:5711   */\n      mstore\n        /* \"#utility.yul\":5605:5717   */\n      pop\n      pop\n      jump\t// out\n        /* \"#utility.yul\":5723:5937   */\n    tag_62:\n        /* \"#utility.yul\":5812:5816   */\n      0x00\n        /* \"#utility.yul\":5850:5852   */\n      0x20\n        /* \"#utility.yul\":5839:5848   */\n      dup3\n        /* \"#utility.yul\":5835:5853   */\n      add\n        /* \"#utility.yul\":5827:5853   */\n      swap1\n      pop\n        /* \"#utility.yul\":5863:5930   */\n      tag_350\n        /* \"#utility.yul\":5927:5928   */\n      0x00\n        /* \"#utility.yul\":5916:5925   */\n      dup4\n        /* \"#utility.yul\":5912:5929   */\n      add\n        /* \"#utility.yul\":5903:5909   */\n      dup5\n        /* \"#utility.yul\":5863:5930   */\n      tag_226\n      jump\t// in\n    tag_350:\n        /* \"#utility.yul\":5723:5937   */\n      swap3\n      swap2\n      pop\n      pop\n      jump\t// out\n        /* \"#utility.yul\":5943:6060   */\n    tag_227:\n        /* \"#utility.yul\":6052:6053   */\n      0x00\n        /* \"#utility.yul\":6049:6050   */\n      dup1\n        /* \"#utility.yul\":6042:6054   */\n      revert\n        /* \"#utility.yul\":6066:6183   */\n    tag_228:\n        /* \"#utility.yul\":6175:6176   */\n      0x00\n        /* \"#utility.yul\":6172:6173   */\n      dup1\n        /* \"#utility.yul\":6165:6177   */\n      revert\n        /* \"#utility.yul\":6189:6369   */\n    tag_229:\n        /* \"#utility.yul\":6237:6314   */\n      0x4e487b7100000000000000000000000000000000000000000000000000000000\n        /* \"#utility.yul\":6234:6235   */\n      0x00\n        /* \"#utility.yul\":6227:6315   */\n      mstore\n        /* \"#utility.yul\":6334:6338   */\n      0x41\n        /* \"#utility.yul\":6331:6332   */\n      0x04\n        /* \"#utility.yul\":6324:6339   */\n      mstore\n        /* \"#utility.yul\":6358:6362   */\n      0x24\n        /* \"#utility.yul\":6355:6356   */\n      0x00\n        /* \"#utility.yul\":6348:6363   */\n      revert\n        /* \"#utility.yul\":6375:6656   */\n    tag_230:\n        /* \"#utility.yul\":6458:6485   */\n      tag_355\n        /* \"#utility.yul\":6480:6484   */\n      dup3\n        /* \"#utility.yul\":6458:6485   */\n      tag_216\n      jump\t// in\n    tag_355:\n        /* \"#utility.yul\":6450:6456   */\n      dup2\n        /* \"#utility.yul\":6446:6486   */\n      add\n        /* \"#utility.yul\":6588:6594   */\n      dup2\n        /* \"#utility.yul\":6576:6586   */\n      dup2\n        /* \"#utility.yul\":6573:6595   */\n      lt\n        /* \"#utility.yul\":6552:6570   */\n      0xffffffffffffffff\n        /* \"#utility.yul\":6540:6550   */\n      dup3\n        /* \"#utility.yul\":6537:6571   */\n      gt\n        /* \"#utility.yul\":6534:6596   */\n      or\n        /* \"#utility.yul\":6531:6619   */\n      iszero\n      tag_356\n      jumpi\n        /* \"#utility.yul\":6599:6617   */\n      tag_357\n      tag_229\n      jump\t// in\n    tag_357:\n        /* \"#utility.yul\":6531:6619   */\n    tag_356:\n        /* \"#utility.yul\":6639:6649   */\n      dup1\n        /* \"#utility.yul\":6635:6637   */\n      0x40\n        /* \"#utility.yul\":6628:6650   */\n      mstore\n        /* \"#utility.yul\":6418:6656   */\n      pop\n        /* \"#utility.yul\":6375:6656   */\n      pop\n      pop\n      jump\t// out\n        /* \"#utility.yul\":6662:6791   */\n    tag_231:\n        /* \"#utility.yul\":6696:6702   */\n      0x00\n        /* \"#utility.yul\":6723:6743   */\n      tag_359\n      tag_207\n      jump\t// in\n    tag_359:\n        /* \"#utility.yul\":6713:6743   */\n      swap1\n      pop\n        /* \"#utility.yul\":6752:6785   */\n      tag_360\n        /* \"#utility.yul\":6780:6784   */\n      dup3\n        /* \"#utility.yul\":6772:6778   */\n      dup3\n        /* \"#utility.yul\":6752:6785   */\n      tag_230\n      jump\t// in\n    tag_360:\n        /* \"#utility.yul\":6662:6791   */\n      swap2\n      swap1\n      pop\n      jump\t// out\n        /* \"#utility.yul\":6797:7105   */\n    tag_232:\n        /* \"#utility.yul\":6859:6863   */\n      0x00\n        /* \"#utility.yul\":6949:6967   */\n      0xffffffffffffffff\n        /* \"#utility.yul\":6941:6947   */\n      dup3\n        /* \"#utility.yul\":6938:6968   */\n      gt\n        /* \"#utility.yul\":6935:6991   */\n      iszero\n      tag_362\n      jumpi\n        /* \"#utility.yul\":6971:6989   */\n      tag_363\n      tag_229\n      jump\t// in\n    tag_363:\n        /* \"#utility.yul\":6935:6991   */\n    tag_362:\n        /* \"#utility.yul\":7009:7038   */\n      tag_364\n        /* \"#utility.yul\":7031:7037   */\n      dup3\n        /* \"#utility.yul\":7009:7038   */\n      tag_216\n      jump\t// in\n    tag_364:\n        /* \"#utility.yul\":7001:7038   */\n      swap1\n      pop\n        /* \"#utility.yul\":7093:7097   */\n      0x20\n        /* \"#utility.yul\":7087:7091   */\n      dup2\n        /* \"#utility.yul\":7083:7098   */\n      add\n        /* \"#utility.yul\":7075:7098   */\n      swap1\n      pop\n        /* \"#utility.yul\":6797:7105   */\n      swap2\n      swap1\n      pop\n      jump\t// out\n        /* \"#utility.yul\":7111:7259   */\n    tag_233:\n        /* \"#utility.yul\":7209:7215   */\n      dup3\n        /* \"#utility.yul\":7204:7207   */\n      dup2\n        /* \"#utility.yul\":7199:7202   */\n      dup4\n        /* \"#utility.yul\":7186:7216   */\n      calldatacopy\n        /* \"#utility.yul\":7250:7251   */\n      0x00\n        /* \"#utility.yul\":7241:7247   */\n      dup4\n        /* \"#utility.yul\":7236:7239   */\n      dup4\n        /* \"#utility.yul\":7232:7248   */\n      add\n        /* \"#utility.yul\":7225:7252   */\n      mstore\n        /* \"#utility.yul\":7111:7259   */\n      pop\n      pop\n      pop\n      jump\t// out\n        /* \"#utility.yul\":7265:7690   */\n    tag_234:\n        /* \"#utility.yul\":7343:7348   */\n      0x00\n        /* \"#utility.yul\":7368:7434   */\n      tag_367\n        /* \"#utility.yul\":7384:7433   */\n      tag_368\n        /* \"#utility.yul\":7426:7432   */\n      dup5\n        /* \"#utility.yul\":7384:7433   */\n      tag_232\n      jump\t// in\n    tag_368:\n        /* \"#utility.yul\":7368:7434   */\n      tag_231\n      jump\t// in\n    tag_367:\n        /* \"#utility.yul\":7359:7434   */\n      swap1\n      pop\n        /* \"#utility.yul\":7457:7463   */\n      dup3\n        /* \"#utility.yul\":7450:7455   */\n      dup2\n        /* \"#utility.yul\":7443:7464   */\n      mstore\n        /* \"#utility.yul\":7495:7499   */\n      0x20\n        /* \"#utility.yul\":7488:7493   */\n      dup2\n        /* \"#utility.yul\":7484:7500   */\n      add\n        /* \"#utility.yul\":7533:7536   */\n      dup5\n        /* \"#utility.yul\":7524:7530   */\n      dup5\n        /* \"#utility.yul\":7519:7522   */\n      dup5\n        /* \"#utility.yul\":7515:7531   */\n      add\n        /* \"#utility.yul\":7512:7537   */\n      gt\n        /* \"#utility.yul\":7509:7621   */\n      iszero\n      tag_369\n      jumpi\n        /* \"#utility.yul\":7540:7619   */\n      tag_370\n      tag_228\n      jump\t// in\n    tag_370:\n        /* \"#utility.yul\":7509:7621   */\n    tag_369:\n        /* \"#utility.yul\":7630:7684   */\n      tag_371\n        /* \"#utility.yul\":7677:7683   */\n      dup5\n        /* \"#utility.yul\":7672:7675   */\n      dup3\n        /* \"#utility.yul\":7667:7670   */\n      dup6\n        /* \"#utility.yul\":7630:7684   */\n      tag_233\n      jump\t// in\n    tag_371:\n        /* \"#utility.yul\":7349:7690   */\n      pop\n        /* \"#utility.yul\":7265:7690   */\n      swap4\n      swap3\n      pop\n      pop\n      pop\n      jump\t// out\n        /* \"#utility.yul\":7710:8050   */\n    tag_235:\n        /* \"#utility.yul\":7766:7771   */\n      0x00\n        /* \"#utility.yul\":7815:7818   */\n      dup3\n        /* \"#utility.yul\":7808:7812   */\n      0x1f\n        /* \"#utility.yul\":7800:7806   */\n      dup4\n        /* \"#utility.yul\":7796:7813   */\n      add\n        /* \"#utility.yul\":7792:7819   */\n      slt\n        /* \"#utility.yul\":7782:7904   */\n      tag_373\n      jumpi\n        /* \"#utility.yul\":7823:7902   */\n      tag_374\n      tag_227\n      jump\t// in\n    tag_374:\n        /* \"#utility.yul\":7782:7904   */\n    tag_373:\n        /* \"#utility.yul\":7940:7946   */\n      dup2\n        /* \"#utility.yul\":7927:7947   */\n      calldataload\n        /* \"#utility.yul\":7965:8044   */\n      tag_375\n        /* \"#utility.yul\":8040:8043   */\n      dup5\n        /* \"#utility.yul\":8032:8038   */\n      dup3\n        /* \"#utility.yul\":8025:8029   */\n      0x20\n        /* \"#utility.yul\":8017:8023   */\n      dup7\n        /* \"#utility.yul\":8013:8030   */\n      add\n        /* \"#utility.yul\":7965:8044   */\n      tag_234\n      jump\t// in\n    tag_375:\n        /* \"#utility.yul\":7956:8044   */\n      swap2\n      pop\n        /* \"#utility.yul\":7772:8050   */\n      pop\n        /* \"#utility.yul\":7710:8050   */\n      swap3\n      swap2\n      pop\n      pop\n      jump\t// out\n        /* \"#utility.yul\":8056:8565   */\n    tag_65:\n        /* \"#utility.yul\":8125:8131   */\n      0x00\n        /* \"#utility.yul\":8174:8176   */\n      0x20\n        /* \"#utility.yul\":8162:8171   */\n      dup3\n        /* \"#utility.yul\":8153:8160   */\n      dup5\n        /* \"#utility.yul\":8149:8172   */\n      sub\n        /* \"#utility.yul\":8145:8177   */\n      slt\n        /* \"#utility.yul\":8142:8261   */\n      iszero\n      tag_377\n      jumpi\n        /* \"#utility.yul\":8180:8259   */\n      tag_378\n      tag_208\n      jump\t// in\n    tag_378:\n        /* \"#utility.yul\":8142:8261   */\n    tag_377:\n        /* \"#utility.yul\":8328:8329   */\n      0x00\n        /* \"#utility.yul\":8317:8326   */\n      dup3\n        /* \"#utility.yul\":8313:8330   */\n      add\n        /* \"#utility.yul\":8300:8331   */\n      calldataload\n        /* \"#utility.yul\":8358:8376   */\n      0xffffffffffffffff\n        /* \"#utility.yul\":8350:8356   */\n      dup2\n        /* \"#utility.yul\":8347:8377   */\n      gt\n        /* \"#utility.yul\":8344:8461   */\n      iszero\n      tag_379\n      jumpi\n        /* \"#utility.yul\":8380:8459   */\n      tag_380\n      tag_209\n      jump\t// in\n    tag_380:\n        /* \"#utility.yul\":8344:8461   */\n    tag_379:\n        /* \"#utility.yul\":8485:8548   */\n      tag_381\n        /* \"#utility.yul\":8540:8547   */\n      dup5\n        /* \"#utility.yul\":8531:8537   */\n      dup3\n        /* \"#utility.yul\":8520:8529   */\n      dup6\n        /* \"#utility.yul\":8516:8538   */\n      add\n        /* \"#utility.yul\":8485:8548   */\n      tag_235\n      jump\t// in\n    tag_381:\n        /* \"#utility.yul\":8475:8548   */\n      swap2\n      pop\n        /* \"#utility.yul\":8271:8558   */\n      pop\n        /* \"#utility.yul\":8056:8565   */\n      swap3\n      swap2\n      pop\n      pop\n      jump\t// out\n        /* \"#utility.yul\":8571:9045   */\n    tag_69:\n        /* \"#utility.yul\":8639:8645   */\n      0x00\n        /* \"#utility.yul\":8647:8653   */\n      dup1\n        /* \"#utility.yul\":8696:8698   */\n      0x40\n        /* \"#utility.yul\":8684:8693   */\n      dup4\n        /* \"#utility.yul\":8675:8682   */\n      dup6\n        /* \"#utility.yul\":8671:8694   */\n      sub\n        /* \"#utility.yul\":8667:8699   */\n      slt\n        /* \"#utility.yul\":8664:8783   */\n      iszero\n      tag_383\n      jumpi\n        /* \"#utility.yul\":8702:8781   */\n      tag_384\n      tag_208\n      jump\t// in\n    tag_384:\n        /* \"#utility.yul\":8664:8783   */\n    tag_383:\n        /* \"#utility.yul\":8822:8823   */\n      0x00\n        /* \"#utility.yul\":8847:8900   */\n      tag_385\n        /* \"#utility.yul\":8892:8899   */\n      dup6\n        /* \"#utility.yul\":8883:8889   */\n      dup3\n        /* \"#utility.yul\":8872:8881   */\n      dup7\n        /* \"#utility.yul\":8868:8890   */\n      add\n        /* \"#utility.yul\":8847:8900   */\n      tag_212\n      jump\t// in\n    tag_385:\n        /* \"#utility.yul\":8837:8900   */\n      swap3\n      pop\n        /* \"#utility.yul\":8793:8910   */\n      pop\n        /* \"#utility.yul\":8949:8951   */\n      0x20\n        /* \"#utility.yul\":8975:9028   */\n      tag_386\n        /* \"#utility.yul\":9020:9027   */\n      dup6\n        /* \"#utility.yul\":9011:9017   */\n      dup3\n        /* \"#utility.yul\":9000:9009   */\n      dup7\n        /* \"#utility.yul\":8996:9018   */\n      add\n        /* \"#utility.yul\":8975:9028   */\n      tag_224\n      jump\t// in\n    tag_386:\n        /* \"#utility.yul\":8965:9028   */\n      swap2\n      pop\n        /* \"#utility.yul\":8920:9038   */\n      pop\n        /* \"#utility.yul\":8571:9045   */\n      swap3\n      pop\n      swap3\n      swap1\n      pop\n      jump\t// out\n        /* \"#utility.yul\":9051:9190   */\n    tag_236:\n        /* \"#utility.yul\":9143:9149   */\n      0x00\n        /* \"#utility.yul\":9177:9182   */\n      dup2\n        /* \"#utility.yul\":9171:9183   */\n      mload\n        /* \"#utility.yul\":9161:9183   */\n      swap1\n      pop\n        /* \"#utility.yul\":9051:9190   */\n      swap2\n      swap1\n      pop\n      jump\t// out\n        /* \"#utility.yul\":9196:9405   */\n    tag_237:\n        /* \"#utility.yul\":9320:9331   */\n      0x00\n        /* \"#utility.yul\":9354:9360   */\n      dup3\n        /* \"#utility.yul\":9349:9352   */\n      dup3\n        /* \"#utility.yul\":9342:9361   */\n      mstore\n        /* \"#utility.yul\":9394:9398   */\n      0x20\n        /* \"#utility.yul\":9389:9392   */\n      dup3\n        /* \"#utility.yul\":9385:9399   */\n      add\n        /* \"#utility.yul\":9370:9399   */\n      swap1\n      pop\n        /* \"#utility.yul\":9196:9405   */\n      swap3\n      swap2\n      pop\n      pop\n      jump\t// out\n        /* \"#utility.yul\":9411:9568   */\n    tag_238:\n        /* \"#utility.yul\":9503:9507   */\n      0x00\n        /* \"#utility.yul\":9526:9529   */\n      dup2\n        /* \"#utility.yul\":9518:9529   */\n      swap1\n      pop\n        /* \"#utility.yul\":9556:9560   */\n      0x20\n        /* \"#utility.yul\":9551:9554   */\n      dup3\n        /* \"#utility.yul\":9547:9561   */\n      add\n        /* \"#utility.yul\":9539:9561   */\n      swap1\n      pop\n        /* \"#utility.yul\":9411:9568   */\n      swap2\n      swap1\n      pop\n      jump\t// out\n        /* \"#utility.yul\":9574:9733   */\n    tag_239:\n        /* \"#utility.yul\":9648:9659   */\n      0x00\n        /* \"#utility.yul\":9682:9688   */\n      dup3\n        /* \"#utility.yul\":9677:9680   */\n      dup3\n        /* \"#utility.yul\":9670:9689   */\n      mstore\n        /* \"#utility.yul\":9722:9726   */\n      0x20\n        /* \"#utility.yul\":9717:9720   */\n      dup3\n        /* \"#utility.yul\":9713:9727   */\n      add\n        /* \"#utility.yul\":9698:9727   */\n      swap1\n      pop\n        /* \"#utility.yul\":9574:9733   */\n      swap3\n      swap2\n      pop\n      pop\n      jump\t// out\n        /* \"#utility.yul\":9739:10096   */\n    tag_240:\n        /* \"#utility.yul\":9817:9820   */\n      0x00\n        /* \"#utility.yul\":9845:9884   */\n      tag_392\n        /* \"#utility.yul\":9878:9883   */\n      dup3\n        /* \"#utility.yul\":9845:9884   */\n      tag_213\n      jump\t// in\n    tag_392:\n        /* \"#utility.yul\":9900:9961   */\n      tag_393\n        /* \"#utility.yul\":9954:9960   */\n      dup2\n        /* \"#utility.yul\":9949:9952   */\n      dup6\n        /* \"#utility.yul\":9900:9961   */\n      tag_239\n      jump\t// in\n    tag_393:\n        /* \"#utility.yul\":9893:9961   */\n      swap4\n      pop\n        /* \"#utility.yul\":9970:10035   */\n      tag_394\n        /* \"#utility.yul\":10028:10034   */\n      dup2\n        /* \"#utility.yul\":10023:10026   */\n      dup6\n        /* \"#utility.yul\":10016:10020   */\n      0x20\n        /* \"#utility.yul\":10009:10014   */\n      dup7\n        /* \"#utility.yul\":10005:10021   */\n      add\n        /* \"#utility.yul\":9970:10035   */\n      tag_215\n      jump\t// in\n    tag_394:\n        /* \"#utility.yul\":10060:10089   */\n      tag_395\n        /* \"#utility.yul\":10082:10088   */\n      dup2\n        /* \"#utility.yul\":10060:10089   */\n      tag_216\n      jump\t// in\n    tag_395:\n        /* \"#utility.yul\":10055:10058   */\n      dup5\n        /* \"#utility.yul\":10051:10090   */\n      add\n        /* \"#utility.yul\":10044:10090   */\n      swap2\n      pop\n        /* \"#utility.yul\":9821:10096   */\n      pop\n        /* \"#utility.yul\":9739:10096   */\n      swap3\n      swap2\n      pop\n      pop\n      jump\t// out\n        /* \"#utility.yul\":10102:10210   */\n    tag_241:\n        /* \"#utility.yul\":10179:10203   */\n      tag_397\n        /* \"#utility.yul\":10197:10202   */\n      dup2\n        /* \"#utility.yul\":10179:10203   */\n      tag_210\n      jump\t// in\n    tag_397:\n        /* \"#utility.yul\":10174:10177   */\n      dup3\n        /* \"#utility.yul\":10167:10204   */\n      mstore\n        /* \"#utility.yul\":10102:10210   */\n      pop\n      pop\n      jump\t// out\n        /* \"#utility.yul\":10216:10315   */\n    tag_242:\n        /* \"#utility.yul\":10287:10308   */\n      tag_399\n        /* \"#utility.yul\":10302:10307   */\n      dup2\n        /* \"#utility.yul\":10287:10308   */\n      tag_219\n      jump\t// in\n    tag_399:\n        /* \"#utility.yul\":10282:10285   */\n      dup3\n        /* \"#utility.yul\":10275:10309   */\n      mstore\n        /* \"#utility.yul\":10216:10315   */\n      pop\n      pop\n      jump\t// out\n        /* \"#utility.yul\":10387:11167   */\n    tag_243:\n        /* \"#utility.yul\":10496:10499   */\n      0x00\n        /* \"#utility.yul\":10532:10536   */\n      0x60\n        /* \"#utility.yul\":10527:10530   */\n      dup4\n        /* \"#utility.yul\":10523:10537   */\n      add\n        /* \"#utility.yul\":10626:10630   */\n      0x00\n        /* \"#utility.yul\":10619:10624   */\n      dup4\n        /* \"#utility.yul\":10615:10631   */\n      add\n        /* \"#utility.yul\":10609:10632   */\n      mload\n        /* \"#utility.yul\":10679:10682   */\n      dup5\n        /* \"#utility.yul\":10673:10677   */\n      dup3\n        /* \"#utility.yul\":10669:10683   */\n      sub\n        /* \"#utility.yul\":10662:10666   */\n      0x00\n        /* \"#utility.yul\":10657:10660   */\n      dup7\n        /* \"#utility.yul\":10653:10667   */\n      add\n        /* \"#utility.yul\":10646:10684   */\n      mstore\n        /* \"#utility.yul\":10705:10778   */\n      tag_401\n        /* \"#utility.yul\":10773:10777   */\n      dup3\n        /* \"#utility.yul\":10759:10771   */\n      dup3\n        /* \"#utility.yul\":10705:10778   */\n      tag_240\n      jump\t// in\n    tag_401:\n        /* \"#utility.yul\":10697:10778   */\n      swap2\n      pop\n        /* \"#utility.yul\":10547:10789   */\n      pop\n        /* \"#utility.yul\":10876:10880   */\n      0x20\n        /* \"#utility.yul\":10869:10874   */\n      dup4\n        /* \"#utility.yul\":10865:10881   */\n      add\n        /* \"#utility.yul\":10859:10882   */\n      mload\n        /* \"#utility.yul\":10895:10958   */\n      tag_402\n        /* \"#utility.yul\":10952:10956   */\n      0x20\n        /* \"#utility.yul\":10947:10950   */\n      dup7\n        /* \"#utility.yul\":10943:10957   */\n      add\n        /* \"#utility.yul\":10929:10941   */\n      dup3\n        /* \"#utility.yul\":10895:10958   */\n      tag_241\n      jump\t// in\n    tag_402:\n        /* \"#utility.yul\":10799:10968   */\n      pop\n        /* \"#utility.yul\":11054:11058   */\n      0x40\n        /* \"#utility.yul\":11047:11052   */\n      dup4\n        /* \"#utility.yul\":11043:11059   */\n      add\n        /* \"#utility.yul\":11037:11060   */\n      mload\n        /* \"#utility.yul\":11073:11130   */\n      tag_403\n        /* \"#utility.yul\":11124:11128   */\n      0x40\n        /* \"#utility.yul\":11119:11122   */\n      dup7\n        /* \"#utility.yul\":11115:11129   */\n      add\n        /* \"#utility.yul\":11101:11113   */\n      dup3\n        /* \"#utility.yul\":11073:11130   */\n      tag_242\n      jump\t// in\n    tag_403:\n        /* \"#utility.yul\":10978:11140   */\n      pop\n        /* \"#utility.yul\":11157:11161   */\n      dup1\n        /* \"#utility.yul\":11150:11161   */\n      swap2\n      pop\n        /* \"#utility.yul\":10501:11167   */\n      pop\n        /* \"#utility.yul\":10387:11167   */\n      swap3\n      swap2\n      pop\n      pop\n      jump\t// out\n        /* \"#utility.yul\":11173:11429   */\n    tag_244:\n        /* \"#utility.yul\":11292:11302   */\n      0x00\n        /* \"#utility.yul\":11327:11423   */\n      tag_405\n        /* \"#utility.yul\":11419:11422   */\n      dup4\n        /* \"#utility.yul\":11411:11417   */\n      dup4\n        /* \"#utility.yul\":11327:11423   */\n      tag_243\n      jump\t// in\n    tag_405:\n        /* \"#utility.yul\":11313:11423   */\n      swap1\n      pop\n        /* \"#utility.yul\":11173:11429   */\n      swap3\n      swap2\n      pop\n      pop\n      jump\t// out\n        /* \"#utility.yul\":11435:11573   */\n    tag_245:\n        /* \"#utility.yul\":11530:11534   */\n      0x00\n        /* \"#utility.yul\":11562:11566   */\n      0x20\n        /* \"#utility.yul\":11557:11560   */\n      dup3\n        /* \"#utility.yul\":11553:11567   */\n      add\n        /* \"#utility.yul\":11545:11567   */\n      swap1\n      pop\n        /* \"#utility.yul\":11435:11573   */\n      swap2\n      swap1\n      pop\n      jump\t// out\n        /* \"#utility.yul\":11649:12760   */\n    tag_246:\n        /* \"#utility.yul\":11818:11821   */\n      0x00\n        /* \"#utility.yul\":11847:11926   */\n      tag_408\n        /* \"#utility.yul\":11920:11925   */\n      dup3\n        /* \"#utility.yul\":11847:11926   */\n      tag_236\n      jump\t// in\n    tag_408:\n        /* \"#utility.yul\":11942:12053   */\n      tag_409\n        /* \"#utility.yul\":12046:12052   */\n      dup2\n        /* \"#utility.yul\":12041:12044   */\n      dup6\n        /* \"#utility.yul\":11942:12053   */\n      tag_237\n      jump\t// in\n    tag_409:\n        /* \"#utility.yul\":11935:12053   */\n      swap4\n      pop\n        /* \"#utility.yul\":12079:12082   */\n      dup4\n        /* \"#utility.yul\":12124:12128   */\n      0x20\n        /* \"#utility.yul\":12116:12122   */\n      dup3\n        /* \"#utility.yul\":12112:12129   */\n      mul\n        /* \"#utility.yul\":12107:12110   */\n      dup6\n        /* \"#utility.yul\":12103:12130   */\n      add\n        /* \"#utility.yul\":12154:12235   */\n      tag_410\n        /* \"#utility.yul\":12229:12234   */\n      dup6\n        /* \"#utility.yul\":12154:12235   */\n      tag_238\n      jump\t// in\n    tag_410:\n        /* \"#utility.yul\":12258:12265   */\n      dup1\n        /* \"#utility.yul\":12289:12290   */\n      0x00\n        /* \"#utility.yul\":12274:12715   */\n    tag_411:\n        /* \"#utility.yul\":12299:12305   */\n      dup6\n        /* \"#utility.yul\":12296:12297   */\n      dup2\n        /* \"#utility.yul\":12293:12306   */\n      lt\n        /* \"#utility.yul\":12274:12715   */\n      iszero\n      tag_413\n      jumpi\n        /* \"#utility.yul\":12370:12379   */\n      dup5\n        /* \"#utility.yul\":12364:12368   */\n      dup5\n        /* \"#utility.yul\":12360:12380   */\n      sub\n        /* \"#utility.yul\":12355:12358   */\n      dup10\n        /* \"#utility.yul\":12348:12381   */\n      mstore\n        /* \"#utility.yul\":12421:12427   */\n      dup2\n        /* \"#utility.yul\":12415:12428   */\n      mload\n        /* \"#utility.yul\":12449:12563   */\n      tag_414\n        /* \"#utility.yul\":12558:12562   */\n      dup6\n        /* \"#utility.yul\":12543:12556   */\n      dup3\n        /* \"#utility.yul\":12449:12563   */\n      tag_244\n      jump\t// in\n    tag_414:\n        /* \"#utility.yul\":12441:12563   */\n      swap5\n      pop\n        /* \"#utility.yul\":12586:12671   */\n      tag_415\n        /* \"#utility.yul\":12664:12670   */\n      dup4\n        /* \"#utility.yul\":12586:12671   */\n      tag_245\n      jump\t// in\n    tag_415:\n        /* \"#utility.yul\":12576:12671   */\n      swap3\n      pop\n        /* \"#utility.yul\":12700:12704   */\n      0x20\n        /* \"#utility.yul\":12695:12698   */\n      dup11\n        /* \"#utility.yul\":12691:12705   */\n      add\n        /* \"#utility.yul\":12684:12705   */\n      swap10\n      pop\n        /* \"#utility.yul\":12334:12715   */\n      pop\n        /* \"#utility.yul\":12321:12322   */\n      0x01\n        /* \"#utility.yul\":12318:12319   */\n      dup2\n        /* \"#utility.yul\":12314:12323   */\n      add\n        /* \"#utility.yul\":12309:12323   */\n      swap1\n      pop\n        /* \"#utility.yul\":12274:12715   */\n      jump(tag_411)\n    tag_413:\n        /* \"#utility.yul\":12278:12292   */\n      pop\n        /* \"#utility.yul\":12731:12735   */\n      dup3\n        /* \"#utility.yul\":12724:12735   */\n      swap8\n      pop\n        /* \"#utility.yul\":12751:12754   */\n      dup8\n        /* \"#utility.yul\":12744:12754   */\n      swap6\n      pop\n        /* \"#utility.yul\":11823:12760   */\n      pop\n      pop\n      pop\n      pop\n      pop\n        /* \"#utility.yul\":11649:12760   */\n      swap3\n      swap2\n      pop\n      pop\n      jump\t// out\n        /* \"#utility.yul\":12766:13239   */\n    tag_75:\n        /* \"#utility.yul\":12959:12963   */\n      0x00\n        /* \"#utility.yul\":12997:12999   */\n      0x20\n        /* \"#utility.yul\":12986:12995   */\n      dup3\n        /* \"#utility.yul\":12982:13000   */\n      add\n        /* \"#utility.yul\":12974:13000   */\n      swap1\n      pop\n        /* \"#utility.yul\":13046:13055   */\n      dup2\n        /* \"#utility.yul\":13040:13044   */\n      dup2\n        /* \"#utility.yul\":13036:13056   */\n      sub\n        /* \"#utility.yul\":13032:13033   */\n      0x00\n        /* \"#utility.yul\":13021:13030   */\n      dup4\n        /* \"#utility.yul\":13017:13034   */\n      add\n        /* \"#utility.yul\":13010:13057   */\n      mstore\n        /* \"#utility.yul\":13074:13232   */\n      tag_417\n        /* \"#utility.yul\":13227:13231   */\n      dup2\n        /* \"#utility.yul\":13218:13224   */\n      dup5\n        /* \"#utility.yul\":13074:13232   */\n      tag_246\n      jump\t// in\n    tag_417:\n        /* \"#utility.yul\":13066:13232   */\n      swap1\n      pop\n        /* \"#utility.yul\":12766:13239   */\n      swap3\n      swap2\n      pop\n      pop\n      jump\t// out\n        /* \"#utility.yul\":13245:13363   */\n    tag_247:\n        /* \"#utility.yul\":13332:13356   */\n      tag_419\n        /* \"#utility.yul\":13350:13355   */\n      dup2\n        /* \"#utility.yul\":13332:13356   */\n      tag_222\n      jump\t// in\n    tag_419:\n        /* \"#utility.yul\":13327:13330   */\n      dup3\n        /* \"#utility.yul\":13320:13357   */\n      mstore\n        /* \"#utility.yul\":13245:13363   */\n      pop\n      pop\n      jump\t// out\n        /* \"#utility.yul\":13369:13591   */\n    tag_90:\n        /* \"#utility.yul\":13462:13466   */\n      0x00\n        /* \"#utility.yul\":13500:13502   */\n      0x20\n        /* \"#utility.yul\":13489:13498   */\n      dup3\n        /* \"#utility.yul\":13485:13503   */\n      add\n        /* \"#utility.yul\":13477:13503   */\n      swap1\n      pop\n        /* \"#utility.yul\":13513:13584   */\n      tag_421\n        /* \"#utility.yul\":13581:13582   */\n      0x00\n        /* \"#utility.yul\":13570:13579   */\n      dup4\n        /* \"#utility.yul\":13566:13583   */\n      add\n        /* \"#utility.yul\":13557:13563   */\n      dup5\n        /* \"#utility.yul\":13513:13584   */\n      tag_247\n      jump\t// in\n    tag_421:\n        /* \"#utility.yul\":13369:13591   */\n      swap3\n      swap2\n      pop\n      pop\n      jump\t// out\n        /* \"#utility.yul\":13597:14071   */\n    tag_93:\n        /* \"#utility.yul\":13665:13671   */\n      0x00\n        /* \"#utility.yul\":13673:13679   */\n      dup1\n        /* \"#utility.yul\":13722:13724   */\n      0x40\n        /* \"#utility.yul\":13710:13719   */\n      dup4\n        /* \"#utility.yul\":13701:13708   */\n      dup6\n        /* \"#utility.yul\":13697:13720   */\n      sub\n        /* \"#utility.yul\":13693:13725   */\n      slt\n        /* \"#utility.yul\":13690:13809   */\n      iszero\n      tag_423\n      jumpi\n        /* \"#utility.yul\":13728:13807   */\n      tag_424\n      tag_208\n      jump\t// in\n    tag_424:\n        /* \"#utility.yul\":13690:13809   */\n    tag_423:\n        /* \"#utility.yul\":13848:13849   */\n      0x00\n        /* \"#utility.yul\":13873:13926   */\n      tag_425\n        /* \"#utility.yul\":13918:13925   */\n      dup6\n        /* \"#utility.yul\":13909:13915   */\n      dup3\n        /* \"#utility.yul\":13898:13907   */\n      dup7\n        /* \"#utility.yul\":13894:13916   */\n      add\n        /* \"#utility.yul\":13873:13926   */\n      tag_224\n      jump\t// in\n    tag_425:\n        /* \"#utility.yul\":13863:13926   */\n      swap3\n      pop\n        /* \"#utility.yul\":13819:13936   */\n      pop\n        /* \"#utility.yul\":13975:13977   */\n      0x20\n        /* \"#utility.yul\":14001:14054   */\n      tag_426\n        /* \"#utility.yul\":14046:14053   */\n      dup6\n        /* \"#utility.yul\":14037:14043   */\n      dup3\n        /* \"#utility.yul\":14026:14035   */\n      dup7\n        /* \"#utility.yul\":14022:14044   */\n      add\n        /* \"#utility.yul\":14001:14054   */\n      tag_224\n      jump\t// in\n    tag_426:\n        /* \"#utility.yul\":13991:14054   */\n      swap2\n      pop\n        /* \"#utility.yul\":13946:14064   */\n      pop\n        /* \"#utility.yul\":13597:14071   */\n      swap3\n      pop\n      swap3\n      swap1\n      pop\n      jump\t// out\n        /* \"#utility.yul\":14077:14246   */\n    tag_248:\n        /* \"#utility.yul\":14217:14238   */\n      0x496e76616c69642070726f706f73616c20494400000000000000000000000000\n        /* \"#utility.yul\":14213:14214   */\n      0x00\n        /* \"#utility.yul\":14205:14211   */\n      dup3\n        /* \"#utility.yul\":14201:14215   */\n      add\n        /* \"#utility.yul\":14194:14239   */\n      mstore\n        /* \"#utility.yul\":14077:14246   */\n      pop\n      jump\t// out\n        /* \"#utility.yul\":14252:14618   */\n    tag_249:\n        /* \"#utility.yul\":14394:14397   */\n      0x00\n        /* \"#utility.yul\":14415:14482   */\n      tag_429\n        /* \"#utility.yul\":14479:14481   */\n      0x13\n        /* \"#utility.yul\":14474:14477   */\n      dup4\n        /* \"#utility.yul\":14415:14482   */\n      tag_214\n      jump\t// in\n    tag_429:\n        /* \"#utility.yul\":14408:14482   */\n      swap2\n      pop\n        /* \"#utility.yul\":14491:14584   */\n      tag_430\n        /* \"#utility.yul\":14580:14583   */\n      dup3\n        /* \"#utility.yul\":14491:14584   */\n      tag_248\n      jump\t// in\n    tag_430:\n        /* \"#utility.yul\":14609:14611   */\n      0x20\n        /* \"#utility.yul\":14604:14607   */\n      dup3\n        /* \"#utility.yul\":14600:14612   */\n      add\n        /* \"#utility.yul\":14593:14612   */\n      swap1\n      pop\n        /* \"#utility.yul\":14252:14618   */\n      swap2\n      swap1\n      pop\n      jump\t// out\n        /* \"#utility.yul\":14624:15043   */\n    tag_99:\n        /* \"#utility.yul\":14790:14794   */\n      0x00\n        /* \"#utility.yul\":14828:14830   */\n      0x20\n        /* \"#utility.yul\":14817:14826   */\n      dup3\n        /* \"#utility.yul\":14813:14831   */\n      add\n        /* \"#utility.yul\":14805:14831   */\n      swap1\n      pop\n        /* \"#utility.yul\":14877:14886   */\n      dup2\n        /* \"#utility.yul\":14871:14875   */\n      dup2\n        /* \"#utility.yul\":14867:14887   */\n      sub\n        /* \"#utility.yul\":14863:14864   */\n      0x00\n        /* \"#utility.yul\":14852:14861   */\n      dup4\n        /* \"#utility.yul\":14848:14865   */\n      add\n        /* \"#utility.yul\":14841:14888   */\n      mstore\n        /* \"#utility.yul\":14905:15036   */\n      tag_432\n        /* \"#utility.yul\":15031:15035   */\n      dup2\n        /* \"#utility.yul\":14905:15036   */\n      tag_249\n      jump\t// in\n    tag_432:\n        /* \"#utility.yul\":14897:15036   */\n      swap1\n      pop\n        /* \"#utility.yul\":14624:15043   */\n      swap2\n      swap1\n      pop\n      jump\t// out\n        /* \"#utility.yul\":15049:15212   */\n    tag_250:\n        /* \"#utility.yul\":15189:15204   */\n      0x416c726561647920766f74656400000000000000000000000000000000000000\n        /* \"#utility.yul\":15185:15186   */\n      0x00\n        /* \"#utility.yul\":15177:15183   */\n      dup3\n        /* \"#utility.yul\":15173:15187   */\n      add\n        /* \"#utility.yul\":15166:15205   */\n      mstore\n        /* \"#utility.yul\":15049:15212   */\n      pop\n      jump\t// out\n        /* \"#utility.yul\":15218:15584   */\n    tag_251:\n        /* \"#utility.yul\":15360:15363   */\n      0x00\n        /* \"#utility.yul\":15381:15448   */\n      tag_435\n        /* \"#utility.yul\":15445:15447   */\n      0x0d\n        /* \"#utility.yul\":15440:15443   */\n      dup4\n        /* \"#utility.yul\":15381:15448   */\n      tag_214\n      jump\t// in\n    tag_435:\n        /* \"#utility.yul\":15374:15448   */\n      swap2\n      pop\n        /* \"#utility.yul\":15457:15550   */\n      tag_436\n        /* \"#utility.yul\":15546:15549   */\n      dup3\n        /* \"#utility.yul\":15457:15550   */\n      tag_250\n      jump\t// in\n    tag_436:\n        /* \"#utility.yul\":15575:15577   */\n      0x20\n        /* \"#utility.yul\":15570:15573   */\n      dup3\n        /* \"#utility.yul\":15566:15578   */\n      add\n        /* \"#utility.yul\":15559:15578   */\n      swap1\n      pop\n        /* \"#utility.yul\":15218:15584   */\n      swap2\n      swap1\n      pop\n      jump\t// out\n        /* \"#utility.yul\":15590:16009   */\n    tag_102:\n        /* \"#utility.yul\":15756:15760   */\n      0x00\n        /* \"#utility.yul\":15794:15796   */\n      0x20\n        /* \"#utility.yul\":15783:15792   */\n      dup3\n        /* \"#utility.yul\":15779:15797   */\n      add\n        /* \"#utility.yul\":15771:15797   */\n      swap1\n      pop\n        /* \"#utility.yul\":15843:15852   */\n      dup2\n        /* \"#utility.yul\":15837:15841   */\n      dup2\n        /* \"#utility.yul\":15833:15853   */\n      sub\n        /* \"#utility.yul\":15829:15830   */\n      0x00\n        /* \"#utility.yul\":15818:15827   */\n      dup4\n        /* \"#utility.yul\":15814:15831   */\n      add\n        /* \"#utility.yul\":15807:15854   */\n      mstore\n        /* \"#utility.yul\":15871:16002   */\n      tag_438\n        /* \"#utility.yul\":15997:16001   */\n      dup2\n        /* \"#utility.yul\":15871:16002   */\n      tag_251\n      jump\t// in\n    tag_438:\n        /* \"#utility.yul\":15863:16002   */\n      swap1\n      pop\n        /* \"#utility.yul\":15590:16009   */\n      swap2\n      swap1\n      pop\n      jump\t// out\n        /* \"#utility.yul\":16015:16184   */\n    tag_252:\n        /* \"#utility.yul\":16155:16176   */\n      0x4d757374206f776e20535020746f20766f746500000000000000000000000000\n        /* \"#utility.yul\":16151:16152   */\n      0x00\n        /* \"#utility.yul\":16143:16149   */\n      dup3\n        /* \"#utility.yul\":16139:16153   */\n      add\n        /* \"#utility.yul\":16132:16177   */\n      mstore\n        /* \"#utility.yul\":16015:16184   */\n      pop\n      jump\t// out\n        /* \"#utility.yul\":16190:16556   */\n    tag_253:\n        /* \"#utility.yul\":16332:16335   */\n      0x00\n        /* \"#utility.yul\":16353:16420   */\n      tag_441\n        /* \"#utility.yul\":16417:16419   */\n      0x13\n        /* \"#utility.yul\":16412:16415   */\n      dup4\n        /* \"#utility.yul\":16353:16420   */\n      tag_214\n      jump\t// in\n    tag_441:\n        /* \"#utility.yul\":16346:16420   */\n      swap2\n      pop\n        /* \"#utility.yul\":16429:16522   */\n      tag_442\n        /* \"#utility.yul\":16518:16521   */\n      dup3\n        /* \"#utility.yul\":16429:16522   */\n      tag_252\n      jump\t// in\n    tag_442:\n        /* \"#utility.yul\":16547:16549   */\n      0x20\n        /* \"#utility.yul\":16542:16545   */\n      dup3\n        /* \"#utility.yul\":16538:16550   */\n      add\n        /* \"#utility.yul\":16531:16550   */\n      swap1\n      pop\n        /* \"#utility.yul\":16190:16556   */\n      swap2\n      swap1\n      pop\n      jump\t// out\n        /* \"#utility.yul\":16562:16981   */\n    tag_106:\n        /* \"#utility.yul\":16728:16732   */\n      0x00\n        /* \"#utility.yul\":16766:16768   */\n      0x20\n        /* \"#utility.yul\":16755:16764   */\n      dup3\n        /* \"#utility.yul\":16751:16769   */\n      add\n        /* \"#utility.yul\":16743:16769   */\n      swap1\n      pop\n        /* \"#utility.yul\":16815:16824   */\n      dup2\n        /* \"#utility.yul\":16809:16813   */\n      dup2\n        /* \"#utility.yul\":16805:16825   */\n      sub\n        /* \"#utility.yul\":16801:16802   */\n      0x00\n        /* \"#utility.yul\":16790:16799   */\n      dup4\n        /* \"#utility.yul\":16786:16803   */\n      add\n        /* \"#utility.yul\":16779:16826   */\n      mstore\n        /* \"#utility.yul\":16843:16974   */\n      tag_444\n        /* \"#utility.yul\":16969:16973   */\n      dup2\n        /* \"#utility.yul\":16843:16974   */\n      tag_253\n      jump\t// in\n    tag_444:\n        /* \"#utility.yul\":16835:16974   */\n      swap1\n      pop\n        /* \"#utility.yul\":16562:16981   */\n      swap2\n      swap1\n      pop\n      jump\t// out\n        /* \"#utility.yul\":16987:17167   */\n    tag_110:\n        /* \"#utility.yul\":17035:17112   */\n      0x4e487b7100000000000000000000000000000000000000000000000000000000\n        /* \"#utility.yul\":17032:17033   */\n      0x00\n        /* \"#utility.yul\":17025:17113   */\n      mstore\n        /* \"#utility.yul\":17132:17136   */\n      0x32\n        /* \"#utility.yul\":17129:17130   */\n      0x04\n        /* \"#utility.yul\":17122:17137   */\n      mstore\n        /* \"#utility.yul\":17156:17160   */\n      0x24\n        /* \"#utility.yul\":17153:17154   */\n      0x00\n        /* \"#utility.yul\":17146:17161   */\n      revert\n        /* \"#utility.yul\":17173:17353   */\n    tag_254:\n        /* \"#utility.yul\":17221:17298   */\n      0x4e487b7100000000000000000000000000000000000000000000000000000000\n        /* \"#utility.yul\":17218:17219   */\n      0x00\n        /* \"#utility.yul\":17211:17299   */\n      mstore\n        /* \"#utility.yul\":17318:17322   */\n      0x11\n        /* \"#utility.yul\":17315:17316   */\n      0x04\n        /* \"#utility.yul\":17308:17323   */\n      mstore\n        /* \"#utility.yul\":17342:17346   */\n      0x24\n        /* \"#utility.yul\":17339:17340   */\n      0x00\n        /* \"#utility.yul\":17332:17347   */\n      revert\n        /* \"#utility.yul\":17359:17550   */\n    tag_113:\n        /* \"#utility.yul\":17399:17402   */\n      0x00\n        /* \"#utility.yul\":17418:17438   */\n      tag_448\n        /* \"#utility.yul\":17436:17437   */\n      dup3\n        /* \"#utility.yul\":17418:17438   */\n      tag_210\n      jump\t// in\n    tag_448:\n        /* \"#utility.yul\":17413:17438   */\n      swap2\n      pop\n        /* \"#utility.yul\":17452:17472   */\n      tag_449\n        /* \"#utility.yul\":17470:17471   */\n      dup4\n        /* \"#utility.yul\":17452:17472   */\n      tag_210\n      jump\t// in\n    tag_449:\n        /* \"#utility.yul\":17447:17472   */\n      swap3\n      pop\n        /* \"#utility.yul\":17495:17496   */\n      dup3\n        /* \"#utility.yul\":17492:17493   */\n      dup3\n        /* \"#utility.yul\":17488:17497   */\n      add\n        /* \"#utility.yul\":17481:17497   */\n      swap1\n      pop\n        /* \"#utility.yul\":17516:17519   */\n      dup1\n        /* \"#utility.yul\":17513:17514   */\n      dup3\n        /* \"#utility.yul\":17510:17520   */\n      gt\n        /* \"#utility.yul\":17507:17543   */\n      iszero\n      tag_450\n      jumpi\n        /* \"#utility.yul\":17523:17541   */\n      tag_451\n      tag_254\n      jump\t// in\n    tag_451:\n        /* \"#utility.yul\":17507:17543   */\n    tag_450:\n        /* \"#utility.yul\":17359:17550   */\n      swap3\n      swap2\n      pop\n      pop\n      jump\t// out\n        /* \"#utility.yul\":17556:17888   */\n    tag_115:\n        /* \"#utility.yul\":17677:17681   */\n      0x00\n        /* \"#utility.yul\":17715:17717   */\n      0x40\n        /* \"#utility.yul\":17704:17713   */\n      dup3\n        /* \"#utility.yul\":17700:17718   */\n      add\n        /* \"#utility.yul\":17692:17718   */\n      swap1\n      pop\n        /* \"#utility.yul\":17728:17799   */\n      tag_453\n        /* \"#utility.yul\":17796:17797   */\n      0x00\n        /* \"#utility.yul\":17785:17794   */\n      dup4\n        /* \"#utility.yul\":17781:17798   */\n      add\n        /* \"#utility.yul\":17772:17778   */\n      dup6\n        /* \"#utility.yul\":17728:17799   */\n      tag_247\n      jump\t// in\n    tag_453:\n        /* \"#utility.yul\":17809:17881   */\n      tag_454\n        /* \"#utility.yul\":17877:17879   */\n      0x20\n        /* \"#utility.yul\":17866:17875   */\n      dup4\n        /* \"#utility.yul\":17862:17880   */\n      add\n        /* \"#utility.yul\":17853:17859   */\n      dup5\n        /* \"#utility.yul\":17809:17881   */\n      tag_218\n      jump\t// in\n    tag_454:\n        /* \"#utility.yul\":17556:17888   */\n      swap4\n      swap3\n      pop\n      pop\n      pop\n      jump\t// out\n        /* \"#utility.yul\":17894:18074   */\n    tag_255:\n        /* \"#utility.yul\":17942:18019   */\n      0x4e487b7100000000000000000000000000000000000000000000000000000000\n        /* \"#utility.yul\":17939:17940   */\n      0x00\n        /* \"#utility.yul\":17932:18020   */\n      mstore\n        /* \"#utility.yul\":18039:18043   */\n      0x22\n        /* \"#utility.yul\":18036:18037   */\n      0x04\n        /* \"#utility.yul\":18029:18044   */\n      mstore\n        /* \"#utility.yul\":18063:18067   */\n      0x24\n        /* \"#utility.yul\":18060:18061   */\n      0x00\n        /* \"#utility.yul\":18053:18068   */\n      revert\n        /* \"#utility.yul\":18080:18400   */\n    tag_119:\n        /* \"#utility.yul\":18124:18130   */\n      0x00\n        /* \"#utility.yul\":18161:18162   */\n      0x02\n        /* \"#utility.yul\":18155:18159   */\n      dup3\n        /* \"#utility.yul\":18151:18163   */\n      div\n        /* \"#utility.yul\":18141:18163   */\n      swap1\n      pop\n        /* \"#utility.yul\":18208:18209   */\n      0x01\n        /* \"#utility.yul\":18202:18206   */\n      dup3\n        /* \"#utility.yul\":18198:18210   */\n      and\n        /* \"#utility.yul\":18229:18247   */\n      dup1\n        /* \"#utility.yul\":18219:18300   */\n      tag_457\n      jumpi\n        /* \"#utility.yul\":18285:18289   */\n      0x7f\n        /* \"#utility.yul\":18277:18283   */\n      dup3\n        /* \"#utility.yul\":18273:18290   */\n      and\n        /* \"#utility.yul\":18263:18290   */\n      swap2\n      pop\n        /* \"#utility.yul\":18219:18300   */\n    tag_457:\n        /* \"#utility.yul\":18347:18349   */\n      0x20\n        /* \"#utility.yul\":18339:18345   */\n      dup3\n        /* \"#utility.yul\":18336:18350   */\n      lt\n        /* \"#utility.yul\":18316:18334   */\n      dup2\n        /* \"#utility.yul\":18313:18351   */\n      sub\n        /* \"#utility.yul\":18310:18394   */\n      tag_458\n      jumpi\n        /* \"#utility.yul\":18366:18384   */\n      tag_459\n      tag_255\n      jump\t// in\n    tag_459:\n        /* \"#utility.yul\":18310:18394   */\n    tag_458:\n        /* \"#utility.yul\":18131:18400   */\n      pop\n        /* \"#utility.yul\":18080:18400   */\n      swap2\n      swap1\n      pop\n      jump\t// out\n        /* \"#utility.yul\":18406:18626   */\n    tag_256:\n        /* \"#utility.yul\":18546:18580   */\n      0x4f6e6c79206f776e65722063616e2063616c6c20746869732066756e6374696f\n        /* \"#utility.yul\":18542:18543   */\n      0x00\n        /* \"#utility.yul\":18534:18540   */\n      dup3\n        /* \"#utility.yul\":18530:18544   */\n      add\n        /* \"#utility.yul\":18523:18581   */\n      mstore\n        /* \"#utility.yul\":18615:18618   */\n      0x6e00000000000000000000000000000000000000000000000000000000000000\n        /* \"#utility.yul\":18610:18612   */\n      0x20\n        /* \"#utility.yul\":18602:18608   */\n      dup3\n        /* \"#utility.yul\":18598:18613   */\n      add\n        /* \"#utility.yul\":18591:18619   */\n      mstore\n        /* \"#utility.yul\":18406:18626   */\n      pop\n      jump\t// out\n        /* \"#utility.yul\":18632:18998   */\n    tag_257:\n        /* \"#utility.yul\":18774:18777   */\n      0x00\n        /* \"#utility.yul\":18795:18862   */\n      tag_462\n        /* \"#utility.yul\":18859:18861   */\n      0x21\n        /* \"#utility.yul\":18854:18857   */\n      dup4\n        /* \"#utility.yul\":18795:18862   */\n      tag_214\n      jump\t// in\n    tag_462:\n        /* \"#utility.yul\":18788:18862   */\n      swap2\n      pop\n        /* \"#utility.yul\":18871:18964   */\n      tag_463\n        /* \"#utility.yul\":18960:18963   */\n      dup3\n        /* \"#utility.yul\":18871:18964   */\n      tag_256\n      jump\t// in\n    tag_463:\n        /* \"#utility.yul\":18989:18991   */\n      0x40\n        /* \"#utility.yul\":18984:18987   */\n      dup3\n        /* \"#utility.yul\":18980:18992   */\n      add\n        /* \"#utility.yul\":18973:18992   */\n      swap1\n      pop\n        /* \"#utility.yul\":18632:18998   */\n      swap2\n      swap1\n      pop\n      jump\t// out\n        /* \"#utility.yul\":19004:19423   */\n    tag_134:\n        /* \"#utility.yul\":19170:19174   */\n      0x00\n        /* \"#utility.yul\":19208:19210   */\n      0x20\n        /* \"#utility.yul\":19197:19206   */\n      dup3\n        /* \"#utility.yul\":19193:19211   */\n      add\n        /* \"#utility.yul\":19185:19211   */\n      swap1\n      pop\n        /* \"#utility.yul\":19257:19266   */\n      dup2\n        /* \"#utility.yul\":19251:19255   */\n      dup2\n        /* \"#utility.yul\":19247:19267   */\n      sub\n        /* \"#utility.yul\":19243:19244   */\n      0x00\n        /* \"#utility.yul\":19232:19241   */\n      dup4\n        /* \"#utility.yul\":19228:19245   */\n      add\n        /* \"#utility.yul\":19221:19268   */\n      mstore\n        /* \"#utility.yul\":19285:19416   */\n      tag_465\n        /* \"#utility.yul\":19411:19415   */\n      dup2\n        /* \"#utility.yul\":19285:19416   */\n      tag_257\n      jump\t// in\n    tag_465:\n        /* \"#utility.yul\":19277:19416   */\n      swap1\n      pop\n        /* \"#utility.yul\":19004:19423   */\n      swap2\n      swap1\n      pop\n      jump\t// out\n        /* \"#utility.yul\":19429:19604   */\n    tag_258:\n        /* \"#utility.yul\":19569:19596   */\n      0x50726f706f73616c20616c726561647920657865637574656400000000000000\n        /* \"#utility.yul\":19565:19566   */\n      0x00\n        /* \"#utility.yul\":19557:19563   */\n      dup3\n        /* \"#utility.yul\":19553:19567   */\n      add\n        /* \"#utility.yul\":19546:19597   */\n      mstore\n        /* \"#utility.yul\":19429:19604   */\n      pop\n      jump\t// out\n        /* \"#utility.yul\":19610:19976   */\n    tag_259:\n        /* \"#utility.yul\":19752:19755   */\n      0x00\n        /* \"#utility.yul\":19773:19840   */\n      tag_468\n        /* \"#utility.yul\":19837:19839   */\n      0x19\n        /* \"#utility.yul\":19832:19835   */\n      dup4\n        /* \"#utility.yul\":19773:19840   */\n      tag_214\n      jump\t// in\n    tag_468:\n        /* \"#utility.yul\":19766:19840   */\n      swap2\n      pop\n        /* \"#utility.yul\":19849:19942   */\n      tag_469\n        /* \"#utility.yul\":19938:19941   */\n      dup3\n        /* \"#utility.yul\":19849:19942   */\n      tag_258\n      jump\t// in\n    tag_469:\n        /* \"#utility.yul\":19967:19969   */\n      0x20\n        /* \"#utility.yul\":19962:19965   */\n      dup3\n        /* \"#utility.yul\":19958:19970   */\n      add\n        /* \"#utility.yul\":19951:19970   */\n      swap1\n      pop\n        /* \"#utility.yul\":19610:19976   */\n      swap2\n      swap1\n      pop\n      jump\t// out\n        /* \"#utility.yul\":19982:20401   */\n    tag_143:\n        /* \"#utility.yul\":20148:20152   */\n      0x00\n        /* \"#utility.yul\":20186:20188   */\n      0x20\n        /* \"#utility.yul\":20175:20184   */\n      dup3\n        /* \"#utility.yul\":20171:20189   */\n      add\n        /* \"#utility.yul\":20163:20189   */\n      swap1\n      pop\n        /* \"#utility.yul\":20235:20244   */\n      dup2\n        /* \"#utility.yul\":20229:20233   */\n      dup2\n        /* \"#utility.yul\":20225:20245   */\n      sub\n        /* \"#utility.yul\":20221:20222   */\n      0x00\n        /* \"#utility.yul\":20210:20219   */\n      dup4\n        /* \"#utility.yul\":20206:20223   */\n      add\n        /* \"#utility.yul\":20199:20246   */\n      mstore\n        /* \"#utility.yul\":20263:20394   */\n      tag_471\n        /* \"#utility.yul\":20389:20393   */\n      dup2\n        /* \"#utility.yul\":20263:20394   */\n      tag_259\n      jump\t// in\n    tag_471:\n        /* \"#utility.yul\":20255:20394   */\n      swap1\n      pop\n        /* \"#utility.yul\":19982:20401   */\n      swap2\n      swap1\n      pop\n      jump\t// out\n        /* \"#utility.yul\":20407:20548   */\n    tag_260:\n        /* \"#utility.yul\":20456:20460   */\n      0x00\n        /* \"#utility.yul\":20479:20482   */\n      dup2\n        /* \"#utility.yul\":20471:20482   */\n      swap1\n      pop\n        /* \"#utility.yul\":20502:20505   */\n      dup2\n        /* \"#utility.yul\":20499:20500   */\n      0x00\n        /* \"#utility.yul\":20492:20506   */\n      mstore\n        /* \"#utility.yul\":20536:20540   */\n      0x20\n        /* \"#utility.yul\":20533:20534   */\n      0x00\n        /* \"#utility.yul\":20523:20541   */\n      keccak256\n        /* \"#utility.yul\":20515:20541   */\n      swap1\n      pop\n        /* \"#utility.yul\":20407:20548   */\n      swap2\n      swap1\n      pop\n      jump\t// out\n        /* \"#utility.yul\":20578:21409   */\n    tag_261:\n        /* \"#utility.yul\":20663:20666   */\n      0x00\n        /* \"#utility.yul\":20700:20705   */\n      dup2\n        /* \"#utility.yul\":20694:20706   */\n      sload\n        /* \"#utility.yul\":20729:20765   */\n      tag_474\n        /* \"#utility.yul\":20755:20764   */\n      dup2\n        /* \"#utility.yul\":20729:20765   */\n      tag_119\n      jump\t// in\n    tag_474:\n        /* \"#utility.yul\":20781:20852   */\n      tag_475\n        /* \"#utility.yul\":20845:20851   */\n      dup2\n        /* \"#utility.yul\":20840:20843   */\n      dup7\n        /* \"#utility.yul\":20781:20852   */\n      tag_214\n      jump\t// in\n    tag_475:\n        /* \"#utility.yul\":20774:20852   */\n      swap5\n      pop\n        /* \"#utility.yul\":20883:20884   */\n      0x01\n        /* \"#utility.yul\":20872:20881   */\n      dup3\n        /* \"#utility.yul\":20868:20885   */\n      and\n        /* \"#utility.yul\":20899:20900   */\n      0x00\n        /* \"#utility.yul\":20894:21058   */\n      dup2\n      eq\n      tag_477\n      jumpi\n        /* \"#utility.yul\":21072:21073   */\n      0x01\n        /* \"#utility.yul\":21067:21403   */\n      dup2\n      eq\n      tag_478\n      jumpi\n        /* \"#utility.yul\":20861:21403   */\n      jump(tag_476)\n        /* \"#utility.yul\":20894:21058   */\n    tag_477:\n        /* \"#utility.yul\":20978:20982   */\n      0xff\n        /* \"#utility.yul\":20974:20983   */\n      not\n        /* \"#utility.yul\":20963:20972   */\n      dup4\n        /* \"#utility.yul\":20959:20984   */\n      and\n        /* \"#utility.yul\":20954:20957   */\n      dup7\n        /* \"#utility.yul\":20947:20985   */\n      mstore\n        /* \"#utility.yul\":21038:21044   */\n      dup2\n        /* \"#utility.yul\":21031:21045   */\n      iszero\n        /* \"#utility.yul\":21024:21046   */\n      iszero\n        /* \"#utility.yul\":21018:21022   */\n      0x20\n        /* \"#utility.yul\":21014:21047   */\n      mul\n        /* \"#utility.yul\":21009:21012   */\n      dup7\n        /* \"#utility.yul\":21005:21048   */\n      add\n        /* \"#utility.yul\":20998:21048   */\n      swap4\n      pop\n        /* \"#utility.yul\":20894:21058   */\n      jump(tag_476)\n        /* \"#utility.yul\":21067:21403   */\n    tag_478:\n        /* \"#utility.yul\":21134:21172   */\n      tag_479\n        /* \"#utility.yul\":21166:21171   */\n      dup6\n        /* \"#utility.yul\":21134:21172   */\n      tag_260\n      jump\t// in\n    tag_479:\n        /* \"#utility.yul\":21194:21195   */\n      0x00\n        /* \"#utility.yul\":21208:21362   */\n    tag_480:\n        /* \"#utility.yul\":21222:21228   */\n      dup4\n        /* \"#utility.yul\":21219:21220   */\n      dup2\n        /* \"#utility.yul\":21216:21229   */\n      lt\n        /* \"#utility.yul\":21208:21362   */\n      iszero\n      tag_482\n      jumpi\n        /* \"#utility.yul\":21296:21303   */\n      dup2\n        /* \"#utility.yul\":21290:21304   */\n      sload\n        /* \"#utility.yul\":21286:21287   */\n      dup2\n        /* \"#utility.yul\":21281:21284   */\n      dup10\n        /* \"#utility.yul\":21277:21288   */\n      add\n        /* \"#utility.yul\":21270:21305   */\n      mstore\n        /* \"#utility.yul\":21346:21347   */\n      0x01\n        /* \"#utility.yul\":21337:21344   */\n      dup3\n        /* \"#utility.yul\":21333:21348   */\n      add\n        /* \"#utility.yul\":21322:21348   */\n      swap2\n      pop\n        /* \"#utility.yul\":21244:21248   */\n      0x20\n        /* \"#utility.yul\":21241:21242   */\n      dup2\n        /* \"#utility.yul\":21237:21249   */\n      add\n        /* \"#utility.yul\":21232:21249   */\n      swap1\n      pop\n        /* \"#utility.yul\":21208:21362   */\n      jump(tag_480)\n    tag_482:\n        /* \"#utility.yul\":21391:21392   */\n      dup1\n        /* \"#utility.yul\":21386:21389   */\n      dup9\n        /* \"#utility.yul\":21382:21393   */\n      add\n        /* \"#utility.yul\":21375:21393   */\n      swap6\n      pop\n        /* \"#utility.yul\":21074:21403   */\n      pop\n      pop\n        /* \"#utility.yul\":20861:21403   */\n    tag_476:\n      pop\n        /* \"#utility.yul\":20667:21409   */\n      pop\n      pop\n        /* \"#utility.yul\":20578:21409   */\n      swap3\n      swap2\n      pop\n      pop\n      jump\t// out\n        /* \"#utility.yul\":21415:21832   */\n    tag_151:\n        /* \"#utility.yul\":21553:21557   */\n      0x00\n        /* \"#utility.yul\":21591:21593   */\n      0x40\n        /* \"#utility.yul\":21580:21589   */\n      dup3\n        /* \"#utility.yul\":21576:21594   */\n      add\n        /* \"#utility.yul\":21568:21594   */\n      swap1\n      pop\n        /* \"#utility.yul\":21604:21675   */\n      tag_484\n        /* \"#utility.yul\":21672:21673   */\n      0x00\n        /* \"#utility.yul\":21661:21670   */\n      dup4\n        /* \"#utility.yul\":21657:21674   */\n      add\n        /* \"#utility.yul\":21648:21654   */\n      dup6\n        /* \"#utility.yul\":21604:21675   */\n      tag_218\n      jump\t// in\n    tag_484:\n        /* \"#utility.yul\":21722:21731   */\n      dup2\n        /* \"#utility.yul\":21716:21720   */\n      dup2\n        /* \"#utility.yul\":21712:21732   */\n      sub\n        /* \"#utility.yul\":21707:21709   */\n      0x20\n        /* \"#utility.yul\":21696:21705   */\n      dup4\n        /* \"#utility.yul\":21692:21710   */\n      add\n        /* \"#utility.yul\":21685:21733   */\n      mstore\n        /* \"#utility.yul\":21750:21825   */\n      tag_485\n        /* \"#utility.yul\":21820:21824   */\n      dup2\n        /* \"#utility.yul\":21811:21817   */\n      dup5\n        /* \"#utility.yul\":21750:21825   */\n      tag_261\n      jump\t// in\n    tag_485:\n        /* \"#utility.yul\":21742:21825   */\n      swap1\n      pop\n        /* \"#utility.yul\":21415:21832   */\n      swap4\n      swap3\n      pop\n      pop\n      pop\n      jump\t// out\n        /* \"#utility.yul\":21838:22008   */\n    tag_262:\n        /* \"#utility.yul\":21978:22000   */\n      0x496e73756666696369656e742062616c616e6365000000000000000000000000\n        /* \"#utility.yul\":21974:21975   */\n      0x00\n        /* \"#utility.yul\":21966:21972   */\n      dup3\n        /* \"#utility.yul\":21962:21976   */\n      add\n        /* \"#utility.yul\":21955:22001   */\n      mstore\n        /* \"#utility.yul\":21838:22008   */\n      pop\n      jump\t// out\n        /* \"#utility.yul\":22014:22380   */\n    tag_263:\n        /* \"#utility.yul\":22156:22159   */\n      0x00\n        /* \"#utility.yul\":22177:22244   */\n      tag_488\n        /* \"#utility.yul\":22241:22243   */\n      0x14\n        /* \"#utility.yul\":22236:22239   */\n      dup4\n        /* \"#utility.yul\":22177:22244   */\n      tag_214\n      jump\t// in\n    tag_488:\n        /* \"#utility.yul\":22170:22244   */\n      swap2\n      pop\n        /* \"#utility.yul\":22253:22346   */\n      tag_489\n        /* \"#utility.yul\":22342:22345   */\n      dup3\n        /* \"#utility.yul\":22253:22346   */\n      tag_262\n      jump\t// in\n    tag_489:\n        /* \"#utility.yul\":22371:22373   */\n      0x20\n        /* \"#utility.yul\":22366:22369   */\n      dup3\n        /* \"#utility.yul\":22362:22374   */\n      add\n        /* \"#utility.yul\":22355:22374   */\n      swap1\n      pop\n        /* \"#utility.yul\":22014:22380   */\n      swap2\n      swap1\n      pop\n      jump\t// out\n        /* \"#utility.yul\":22386:22805   */\n    tag_156:\n        /* \"#utility.yul\":22552:22556   */\n      0x00\n        /* \"#utility.yul\":22590:22592   */\n      0x20\n        /* \"#utility.yul\":22579:22588   */\n      dup3\n        /* \"#utility.yul\":22575:22593   */\n      add\n        /* \"#utility.yul\":22567:22593   */\n      swap1\n      pop\n        /* \"#utility.yul\":22639:22648   */\n      dup2\n        /* \"#utility.yul\":22633:22637   */\n      dup2\n        /* \"#utility.yul\":22629:22649   */\n      sub\n        /* \"#utility.yul\":22625:22626   */\n      0x00\n        /* \"#utility.yul\":22614:22623   */\n      dup4\n        /* \"#utility.yul\":22610:22627   */\n      add\n        /* \"#utility.yul\":22603:22650   */\n      mstore\n        /* \"#utility.yul\":22667:22798   */\n      tag_491\n        /* \"#utility.yul\":22793:22797   */\n      dup2\n        /* \"#utility.yul\":22667:22798   */\n      tag_263\n      jump\t// in\n    tag_491:\n        /* \"#utility.yul\":22659:22798   */\n      swap1\n      pop\n        /* \"#utility.yul\":22386:22805   */\n      swap2\n      swap1\n      pop\n      jump\t// out\n        /* \"#utility.yul\":22811:22979   */\n    tag_264:\n        /* \"#utility.yul\":22951:22971   */\n      0x416c6c6f77616e63652065786365656465640000000000000000000000000000\n        /* \"#utility.yul\":22947:22948   */\n      0x00\n        /* \"#utility.yul\":22939:22945   */\n      dup3\n        /* \"#utility.yul\":22935:22949   */\n      add\n        /* \"#utility.yul\":22928:22972   */\n      mstore\n        /* \"#utility.yul\":22811:22979   */\n      pop\n      jump\t// out\n        /* \"#utility.yul\":22985:23351   */\n    tag_265:\n        /* \"#utility.yul\":23127:23130   */\n      0x00\n        /* \"#utility.yul\":23148:23215   */\n      tag_494\n        /* \"#utility.yul\":23212:23214   */\n      0x12\n        /* \"#utility.yul\":23207:23210   */\n      dup4\n        /* \"#utility.yul\":23148:23215   */\n      tag_214\n      jump\t// in\n    tag_494:\n        /* \"#utility.yul\":23141:23215   */\n      swap2\n      pop\n        /* \"#utility.yul\":23224:23317   */\n      tag_495\n        /* \"#utility.yul\":23313:23316   */\n      dup3\n        /* \"#utility.yul\":23224:23317   */\n      tag_264\n      jump\t// in\n    tag_495:\n        /* \"#utility.yul\":23342:23344   */\n      0x20\n        /* \"#utility.yul\":23337:23340   */\n      dup3\n        /* \"#utility.yul\":23333:23345   */\n      add\n        /* \"#utility.yul\":23326:23345   */\n      swap1\n      pop\n        /* \"#utility.yul\":22985:23351   */\n      swap2\n      swap1\n      pop\n      jump\t// out\n        /* \"#utility.yul\":23357:23776   */\n    tag_159:\n        /* \"#utility.yul\":23523:23527   */\n      0x00\n        /* \"#utility.yul\":23561:23563   */\n      0x20\n        /* \"#utility.yul\":23550:23559   */\n      dup3\n        /* \"#utility.yul\":23546:23564   */\n      add\n        /* \"#utility.yul\":23538:23564   */\n      swap1\n      pop\n        /* \"#utility.yul\":23610:23619   */\n      dup2\n        /* \"#utility.yul\":23604:23608   */\n      dup2\n        /* \"#utility.yul\":23600:23620   */\n      sub\n        /* \"#utility.yul\":23596:23597   */\n      0x00\n        /* \"#utility.yul\":23585:23594   */\n      dup4\n        /* \"#utility.yul\":23581:23598   */\n      add\n        /* \"#utility.yul\":23574:23621   */\n      mstore\n        /* \"#utility.yul\":23638:23769   */\n      tag_497\n        /* \"#utility.yul\":23764:23768   */\n      dup2\n        /* \"#utility.yul\":23638:23769   */\n      tag_265\n      jump\t// in\n    tag_497:\n        /* \"#utility.yul\":23630:23769   */\n      swap1\n      pop\n        /* \"#utility.yul\":23357:23776   */\n      swap2\n      swap1\n      pop\n      jump\t// out\n        /* \"#utility.yul\":23782:23962   */\n    tag_266:\n        /* \"#utility.yul\":23830:23907   */\n      0x4e487b7100000000000000000000000000000000000000000000000000000000\n        /* \"#utility.yul\":23827:23828   */\n      0x00\n        /* \"#utility.yul\":23820:23908   */\n      mstore\n        /* \"#utility.yul\":23927:23931   */\n      0x12\n        /* \"#utility.yul\":23924:23925   */\n      0x04\n        /* \"#utility.yul\":23917:23932   */\n      mstore\n        /* \"#utility.yul\":23951:23955   */\n      0x24\n        /* \"#utility.yul\":23948:23949   */\n      0x00\n        /* \"#utility.yul\":23941:23956   */\n      revert\n        /* \"#utility.yul\":23968:24153   */\n    tag_161:\n        /* \"#utility.yul\":24008:24009   */\n      0x00\n        /* \"#utility.yul\":24025:24045   */\n      tag_500\n        /* \"#utility.yul\":24043:24044   */\n      dup3\n        /* \"#utility.yul\":24025:24045   */\n      tag_210\n      jump\t// in\n    tag_500:\n        /* \"#utility.yul\":24020:24045   */\n      swap2\n      pop\n        /* \"#utility.yul\":24059:24079   */\n      tag_501\n        /* \"#utility.yul\":24077:24078   */\n      dup4\n        /* \"#utility.yul\":24059:24079   */\n      tag_210\n      jump\t// in\n    tag_501:\n        /* \"#utility.yul\":24054:24079   */\n      swap3\n      pop\n        /* \"#utility.yul\":24098:24099   */\n      dup3\n        /* \"#utility.yul\":24088:24123   */\n      tag_502\n      jumpi\n        /* \"#utility.yul\":24103:24121   */\n      tag_503\n      tag_266\n      jump\t// in\n    tag_503:\n        /* \"#utility.yul\":24088:24123   */\n    tag_502:\n        /* \"#utility.yul\":24145:24146   */\n      dup3\n        /* \"#utility.yul\":24142:24143   */\n      dup3\n        /* \"#utility.yul\":24138:24147   */\n      div\n        /* \"#utility.yul\":24133:24147   */\n      swap1\n      pop\n        /* \"#utility.yul\":23968:24153   */\n      swap3\n      swap2\n      pop\n      pop\n      jump\t// out\n        /* \"#utility.yul\":24159:24334   */\n    tag_267:\n        /* \"#utility.yul\":24299:24326   */\n      0x45786365656473206d6178206f776e6572736869702063617000000000000000\n        /* \"#utility.yul\":24295:24296   */\n      0x00\n        /* \"#utility.yul\":24287:24293   */\n      dup3\n        /* \"#utility.yul\":24283:24297   */\n      add\n        /* \"#utility.yul\":24276:24327   */\n      mstore\n        /* \"#utility.yul\":24159:24334   */\n      pop\n      jump\t// out\n        /* \"#utility.yul\":24340:24706   */\n    tag_268:\n        /* \"#utility.yul\":24482:24485   */\n      0x00\n        /* \"#utility.yul\":24503:24570   */\n      tag_506\n        /* \"#utility.yul\":24567:24569   */\n      0x19\n        /* \"#utility.yul\":24562:24565   */\n      dup4\n        /* \"#utility.yul\":24503:24570   */\n      tag_214\n      jump\t// in\n    tag_506:\n        /* \"#utility.yul\":24496:24570   */\n      swap2\n      pop\n        /* \"#utility.yul\":24579:24672   */\n      tag_507\n        /* \"#utility.yul\":24668:24671   */\n      dup3\n        /* \"#utility.yul\":24579:24672   */\n      tag_267\n      jump\t// in\n    tag_507:\n        /* \"#utility.yul\":24697:24699   */\n      0x20\n        /* \"#utility.yul\":24692:24695   */\n      dup3\n        /* \"#utility.yul\":24688:24700   */\n      add\n        /* \"#utility.yul\":24681:24700   */\n      swap1\n      pop\n        /* \"#utility.yul\":24340:24706   */\n      swap2\n      swap1\n      pop\n      jump\t// out\n        /* \"#utility.yul\":24712:25131   */\n    tag_165:\n        /* \"#utility.yul\":24878:24882   */\n      0x00\n        /* \"#utility.yul\":24916:24918   */\n      0x20\n        /* \"#utility.yul\":24905:24914   */\n      dup3\n        /* \"#utility.yul\":24901:24919   */\n      add\n        /* \"#utility.yul\":24893:24919   */\n      swap1\n      pop\n        /* \"#utility.yul\":24965:24974   */\n      dup2\n        /* \"#utility.yul\":24959:24963   */\n      dup2\n        /* \"#utility.yul\":24955:24975   */\n      sub\n        /* \"#utility.yul\":24951:24952   */\n      0x00\n        /* \"#utility.yul\":24940:24949   */\n      dup4\n        /* \"#utility.yul\":24936:24953   */\n      add\n        /* \"#utility.yul\":24929:24976   */\n      mstore\n        /* \"#utility.yul\":24993:25124   */\n      tag_509\n        /* \"#utility.yul\":25119:25123   */\n      dup2\n        /* \"#utility.yul\":24993:25124   */\n      tag_268\n      jump\t// in\n    tag_509:\n        /* \"#utility.yul\":24985:25124   */\n      swap1\n      pop\n        /* \"#utility.yul\":24712:25131   */\n      swap2\n      swap1\n      pop\n      jump\t// out\n        /* \"#utility.yul\":25137:25331   */\n    tag_167:\n        /* \"#utility.yul\":25177:25181   */\n      0x00\n        /* \"#utility.yul\":25197:25217   */\n      tag_511\n        /* \"#utility.yul\":25215:25216   */\n      dup3\n        /* \"#utility.yul\":25197:25217   */\n      tag_210\n      jump\t// in\n    tag_511:\n        /* \"#utility.yul\":25192:25217   */\n      swap2\n      pop\n        /* \"#utility.yul\":25231:25251   */\n      tag_512\n        /* \"#utility.yul\":25249:25250   */\n      dup4\n        /* \"#utility.yul\":25231:25251   */\n      tag_210\n      jump\t// in\n    tag_512:\n        /* \"#utility.yul\":25226:25251   */\n      swap3\n      pop\n        /* \"#utility.yul\":25275:25276   */\n      dup3\n        /* \"#utility.yul\":25272:25273   */\n      dup3\n        /* \"#utility.yul\":25268:25277   */\n      sub\n        /* \"#utility.yul\":25260:25277   */\n      swap1\n      pop\n        /* \"#utility.yul\":25299:25300   */\n      dup2\n        /* \"#utility.yul\":25293:25297   */\n      dup2\n        /* \"#utility.yul\":25290:25301   */\n      gt\n        /* \"#utility.yul\":25287:25324   */\n      iszero\n      tag_513\n      jumpi\n        /* \"#utility.yul\":25304:25322   */\n      tag_514\n      tag_254\n      jump\t// in\n    tag_514:\n        /* \"#utility.yul\":25287:25324   */\n    tag_513:\n        /* \"#utility.yul\":25137:25331   */\n      swap3\n      swap2\n      pop\n      pop\n      jump\t// out\n        /* \"#utility.yul\":25337:25514   */\n    tag_269:\n        /* \"#utility.yul\":25477:25506   */\n      0x4465736372697074696f6e2063616e6e6f7420626520656d7074790000000000\n        /* \"#utility.yul\":25473:25474   */\n      0x00\n        /* \"#utility.yul\":25465:25471   */\n      dup3\n        /* \"#utility.yul\":25461:25475   */\n      add\n        /* \"#utility.yul\":25454:25507   */\n      mstore\n        /* \"#utility.yul\":25337:25514   */\n      pop\n      jump\t// out\n        /* \"#utility.yul\":25520:25886   */\n    tag_270:\n        /* \"#utility.yul\":25662:25665   */\n      0x00\n        /* \"#utility.yul\":25683:25750   */\n      tag_517\n        /* \"#utility.yul\":25747:25749   */\n      0x1b\n        /* \"#utility.yul\":25742:25745   */\n      dup4\n        /* \"#utility.yul\":25683:25750   */\n      tag_214\n      jump\t// in\n    tag_517:\n        /* \"#utility.yul\":25676:25750   */\n      swap2\n      pop\n        /* \"#utility.yul\":25759:25852   */\n      tag_518\n        /* \"#utility.yul\":25848:25851   */\n      dup3\n        /* \"#utility.yul\":25759:25852   */\n      tag_269\n      jump\t// in\n    tag_518:\n        /* \"#utility.yul\":25877:25879   */\n      0x20\n        /* \"#utility.yul\":25872:25875   */\n      dup3\n        /* \"#utility.yul\":25868:25880   */\n      add\n        /* \"#utility.yul\":25861:25880   */\n      swap1\n      pop\n        /* \"#utility.yul\":25520:25886   */\n      swap2\n      swap1\n      pop\n      jump\t// out\n        /* \"#utility.yul\":25892:26311   */\n    tag_174:\n        /* \"#utility.yul\":26058:26062   */\n      0x00\n        /* \"#utility.yul\":26096:26098   */\n      0x20\n        /* \"#utility.yul\":26085:26094   */\n      dup3\n        /* \"#utility.yul\":26081:26099   */\n      add\n        /* \"#utility.yul\":26073:26099   */\n      swap1\n      pop\n        /* \"#utility.yul\":26145:26154   */\n      dup2\n        /* \"#utility.yul\":26139:26143   */\n      dup2\n        /* \"#utility.yul\":26135:26155   */\n      sub\n        /* \"#utility.yul\":26131:26132   */\n      0x00\n        /* \"#utility.yul\":26120:26129   */\n      dup4\n        /* \"#utility.yul\":26116:26133   */\n      add\n        /* \"#utility.yul\":26109:26156   */\n      mstore\n        /* \"#utility.yul\":26173:26304   */\n      tag_520\n        /* \"#utility.yul\":26299:26303   */\n      dup2\n        /* \"#utility.yul\":26173:26304   */\n      tag_270\n      jump\t// in\n    tag_520:\n        /* \"#utility.yul\":26165:26304   */\n      swap1\n      pop\n        /* \"#utility.yul\":25892:26311   */\n      swap2\n      swap1\n      pop\n      jump\t// out\n        /* \"#utility.yul\":26317:26410   */\n    tag_271:\n        /* \"#utility.yul\":26354:26360   */\n      0x00\n        /* \"#utility.yul\":26401:26403   */\n      0x20\n        /* \"#utility.yul\":26396:26398   */\n      0x1f\n        /* \"#utility.yul\":26389:26394   */\n      dup4\n        /* \"#utility.yul\":26385:26399   */\n      add\n        /* \"#utility.yul\":26381:26404   */\n      div\n        /* \"#utility.yul\":26371:26404   */\n      swap1\n      pop\n        /* \"#utility.yul\":26317:26410   */\n      swap2\n      swap1\n      pop\n      jump\t// out\n        /* \"#utility.yul\":26416:26523   */\n    tag_272:\n        /* \"#utility.yul\":26460:26468   */\n      0x00\n        /* \"#utility.yul\":26510:26515   */\n      dup3\n        /* \"#utility.yul\":26504:26508   */\n      dup3\n        /* \"#utility.yul\":26500:26516   */\n      shl\n        /* \"#utility.yul\":26479:26516   */\n      swap1\n      pop\n        /* \"#utility.yul\":26416:26523   */\n      swap3\n      swap2\n      pop\n      pop\n      jump\t// out\n        /* \"#utility.yul\":26529:26922   */\n    tag_273:\n        /* \"#utility.yul\":26598:26604   */\n      0x00\n        /* \"#utility.yul\":26648:26649   */\n      0x08\n        /* \"#utility.yul\":26636:26646   */\n      dup4\n        /* \"#utility.yul\":26632:26650   */\n      mul\n        /* \"#utility.yul\":26671:26768   */\n      tag_524\n        /* \"#utility.yul\":26701:26767   */\n      0xffffffffffffffffffffffffffffffffffffffffffffffffffffffffffffffff\n        /* \"#utility.yul\":26690:26699   */\n      dup3\n        /* \"#utility.yul\":26671:26768   */\n      tag_272\n      jump\t// in\n    tag_524:\n        /* \"#utility.yul\":26789:26828   */\n      tag_525\n        /* \"#utility.yul\":26819:26827   */\n      dup7\n        /* \"#utility.yul\":26808:26817   */\n      dup4\n        /* \"#utility.yul\":26789:26828   */\n      tag_272\n      jump\t// in\n    tag_525:\n        /* \"#utility.yul\":26777:26828   */\n      swap6\n      pop\n        /* \"#utility.yul\":26861:26865   */\n      dup1\n        /* \"#utility.yul\":26857:26866   */\n      not\n        /* \"#utility.yul\":26850:26855   */\n      dup5\n        /* \"#utility.yul\":26846:26867   */\n      and\n        /* \"#utility.yul\":26837:26867   */\n      swap4\n      pop\n        /* \"#utility.yul\":26910:26914   */\n      dup1\n        /* \"#utility.yul\":26900:26908   */\n      dup7\n        /* \"#utility.yul\":26896:26915   */\n      and\n        /* \"#utility.yul\":26889:26894   */\n      dup5\n        /* \"#utility.yul\":26886:26916   */\n      or\n        /* \"#utility.yul\":26876:26916   */\n      swap3\n      pop\n        /* \"#utility.yul\":26605:26922   */\n      pop\n      pop\n        /* \"#utility.yul\":26529:26922   */\n      swap4\n      swap3\n      pop\n      pop\n      pop\n      jump\t// out\n        /* \"#utility.yul\":26928:26988   */\n    tag_274:\n        /* \"#utility.yul\":26956:26959   */\n      0x00\n        /* \"#utility.yul\":26977:26982   */\n      dup2\n        /* \"#utility.yul\":26970:26982   */\n      swap1\n      pop\n        /* \"#utility.yul\":26928:26988   */\n      swap2\n      swap1\n      pop\n      jump\t// out\n        /* \"#utility.yul\":26994:27136   */\n    tag_275:\n        /* \"#utility.yul\":27044:27053   */\n      0x00\n        /* \"#utility.yul\":27077:27130   */\n      tag_528\n        /* \"#utility.yul\":27095:27129   */\n      tag_529\n        /* \"#utility.yul\":27104:27128   */\n      tag_530\n        /* \"#utility.yul\":27122:27127   */\n      dup5\n        /* \"#utility.yul\":27104:27128   */\n      tag_210\n      jump\t// in\n    tag_530:\n        /* \"#utility.yul\":27095:27129   */\n      tag_274\n      jump\t// in\n    tag_529:\n        /* \"#utility.yul\":27077:27130   */\n      tag_210\n      jump\t// in\n    tag_528:\n        /* \"#utility.yul\":27064:27130   */\n      swap1\n      pop\n        /* \"#utility.yul\":26994:27136   */\n      swap2\n      swap1\n      pop\n      jump\t// out\n        /* \"#utility.yul\":27142:27217   */\n    tag_276:\n        /* \"#utility.yul\":27185:27188   */\n      0x00\n        /* \"#utility.yul\":27206:27211   */\n      dup2\n        /* \"#utility.yul\":27199:27211   */\n      swap1\n      pop\n        /* \"#utility.yul\":27142:27217   */\n      swap2\n      swap1\n      pop\n      jump\t// out\n        /* \"#utility.yul\":27223:27492   */\n    tag_277:\n        /* \"#utility.yul\":27333:27372   */\n      tag_533\n        /* \"#utility.yul\":27364:27371   */\n      dup4\n        /* \"#utility.yul\":27333:27372   */\n      tag_275\n      jump\t// in\n    tag_533:\n        /* \"#utility.yul\":27394:27485   */\n      tag_534\n        /* \"#utility.yul\":27443:27484   */\n      tag_535\n        /* \"#utility.yul\":27467:27483   */\n      dup3\n        /* \"#utility.yul\":27443:27484   */\n      tag_276\n      jump\t// in\n    tag_535:\n        /* \"#utility.yul\":27435:27441   */\n      dup5\n        /* \"#utility.yul\":27428:27432   */\n      dup5\n        /* \"#utility.yul\":27422:27433   */\n      sload\n        /* \"#utility.yul\":27394:27485   */\n      tag_273\n      jump\t// in\n    tag_534:\n        /* \"#utility.yul\":27388:27392   */\n      dup3\n        /* \"#utility.yul\":27381:27486   */\n      sstore\n        /* \"#utility.yul\":27299:27492   */\n      pop\n        /* \"#utility.yul\":27223:27492   */\n      pop\n      pop\n      pop\n      jump\t// out\n        /* \"#utility.yul\":27498:27571   */\n    tag_278:\n        /* \"#utility.yul\":27543:27546   */\n      0x00\n        /* \"#utility.yul\":27498:27571   */\n      swap1\n      jump\t// out\n        /* \"#utility.yul\":27577:27766   */\n    tag_279:\n        /* \"#utility.yul\":27654:27686   */\n      tag_538\n      tag_278\n      jump\t// in\n    tag_538:\n        /* \"#utility.yul\":27695:27760   */\n      tag_539\n        /* \"#utility.yul\":27753:27759   */\n      dup2\n        /* \"#utility.yul\":27745:27751   */\n      dup5\n        /* \"#utility.yul\":27739:27743   */\n      dup5\n        /* \"#utility.yul\":27695:27760   */\n      tag_277\n      jump\t// in\n    tag_539:\n        /* \"#utility.yul\":27630:27766   */\n      pop\n        /* \"#utility.yul\":27577:27766   */\n      pop\n      pop\n      jump\t// out\n        /* \"#utility.yul\":27772:27958   */\n    tag_280:\n        /* \"#utility.yul\":27832:27952   */\n    tag_541:\n        /* \"#utility.yul\":27849:27852   */\n      dup2\n        /* \"#utility.yul\":27842:27847   */\n      dup2\n        /* \"#utility.yul\":27839:27853   */\n      lt\n        /* \"#utility.yul\":27832:27952   */\n      iszero\n      tag_543\n      jumpi\n        /* \"#utility.yul\":27903:27942   */\n      tag_544\n        /* \"#utility.yul\":27940:27941   */\n      0x00\n        /* \"#utility.yul\":27933:27938   */\n      dup3\n        /* \"#utility.yul\":27903:27942   */\n      tag_279\n      jump\t// in\n    tag_544:\n        /* \"#utility.yul\":27876:27877   */\n      0x01\n        /* \"#utility.yul\":27869:27874   */\n      dup2\n        /* \"#utility.yul\":27865:27878   */\n      add\n        /* \"#utility.yul\":27856:27878   */\n      swap1\n      pop\n        /* \"#utility.yul\":27832:27952   */\n      jump(tag_541)\n    tag_543:\n        /* \"#utility.yul\":27772:27958   */\n      pop\n      pop\n      jump\t// out\n        /* \"#utility.yul\":27964:28507   */\n    tag_281:\n        /* \"#utility.yul\":28065:28067   */\n      0x1f\n        /* \"#utility.yul\":28060:28063   */\n      dup3\n        /* \"#utility.yul\":28057:28068   */\n      gt\n        /* \"#utility.yul\":28054:28500   */\n      iszero\n      tag_546\n      jumpi\n        /* \"#utility.yul\":28099:28137   */\n      tag_547\n        /* \"#utility.yul\":28131:28136   */\n      dup2\n        /* \"#utility.yul\":28099:28137   */\n      tag_260\n      jump\t// in\n    tag_547:\n        /* \"#utility.yul\":28183:28212   */\n      tag_548\n        /* \"#utility.yul\":28201:28211   */\n      dup5\n        /* \"#utility.yul\":28183:28212   */\n      tag_271\n      jump\t// in\n    tag_548:\n        /* \"#utility.yul\":28173:28181   */\n      dup2\n        /* \"#utility.yul\":28169:28213   */\n      add\n        /* \"#utility.yul\":28366:28368   */\n      0x20\n        /* \"#utility.yul\":28354:28364   */\n      dup6\n        /* \"#utility.yul\":28351:28369   */\n      lt\n        /* \"#utility.yul\":28348:28397   */\n      iszero\n      tag_549\n      jumpi\n        /* \"#utility.yul\":28387:28395   */\n      dup2\n        /* \"#utility.yul\":28372:28395   */\n      swap1\n      pop\n        /* \"#utility.yul\":28348:28397   */\n    tag_549:\n        /* \"#utility.yul\":28410:28490   */\n      tag_550\n        /* \"#utility.yul\":28466:28488   */\n      tag_551\n        /* \"#utility.yul\":28484:28487   */\n      dup6\n        /* \"#utility.yul\":28466:28488   */\n      tag_271\n      jump\t// in\n    tag_551:\n        /* \"#utility.yul\":28456:28464   */\n      dup4\n        /* \"#utility.yul\":28452:28489   */\n      add\n        /* \"#utility.yul\":28439:28450   */\n      dup3\n        /* \"#utility.yul\":28410:28490   */\n      tag_280\n      jump\t// in\n    tag_550:\n        /* \"#utility.yul\":28069:28500   */\n      pop\n      pop\n        /* \"#utility.yul\":28054:28500   */\n    tag_546:\n        /* \"#utility.yul\":27964:28507   */\n      pop\n      pop\n      pop\n      jump\t// out\n        /* \"#utility.yul\":28513:28630   */\n    tag_282:\n        /* \"#utility.yul\":28567:28575   */\n      0x00\n        /* \"#utility.yul\":28617:28622   */\n      dup3\n        /* \"#utility.yul\":28611:28615   */\n      dup3\n        /* \"#utility.yul\":28607:28623   */\n      shr\n        /* \"#utility.yul\":28586:28623   */\n      swap1\n      pop\n        /* \"#utility.yul\":28513:28630   */\n      swap3\n      swap2\n      pop\n      pop\n      jump\t// out\n        /* \"#utility.yul\":28636:28805   */\n    tag_283:\n        /* \"#utility.yul\":28680:28686   */\n      0x00\n        /* \"#utility.yul\":28713:28764   */\n      tag_554\n        /* \"#utility.yul\":28761:28762   */\n      0x00\n        /* \"#utility.yul\":28757:28763   */\n      not\n        /* \"#utility.yul\":28749:28754   */\n      dup5\n        /* \"#utility.yul\":28746:28747   */\n      0x08\n        /* \"#utility.yul\":28742:28755   */\n      mul\n        /* \"#utility.yul\":28713:28764   */\n      tag_282\n      jump\t// in\n    tag_554:\n        /* \"#utility.yul\":28709:28765   */\n      not\n        /* \"#utility.yul\":28794:28798   */\n      dup1\n        /* \"#utility.yul\":28788:28792   */\n      dup4\n        /* \"#utility.yul\":28784:28799   */\n      and\n        /* \"#utility.yul\":28774:28799   */\n      swap2\n      pop\n        /* \"#utility.yul\":28687:28805   */\n      pop\n        /* \"#utility.yul\":28636:28805   */\n      swap3\n      swap2\n      pop\n      pop\n      jump\t// out\n        /* \"#utility.yul\":28810:29105   */\n    tag_284:\n        /* \"#utility.yul\":28886:28890   */\n      0x00\n        /* \"#utility.yul\":29032:29061   */\n      tag_556\n        /* \"#utility.yul\":29057:29060   */\n      dup4\n        /* \"#utility.yul\":29051:29055   */\n      dup4\n        /* \"#utility.yul\":29032:29061   */\n      tag_283\n      jump\t// in\n    tag_556:\n        /* \"#utility.yul\":29024:29061   */\n      swap2\n      pop\n        /* \"#utility.yul\":29094:29097   */\n      dup3\n        /* \"#utility.yul\":29091:29092   */\n      0x02\n        /* \"#utility.yul\":29087:29098   */\n      mul\n        /* \"#utility.yul\":29081:29085   */\n      dup3\n        /* \"#utility.yul\":29078:29099   */\n      or\n        /* \"#utility.yul\":29070:29099   */\n      swap1\n      pop\n        /* \"#utility.yul\":28810:29105   */\n      swap3\n      swap2\n      pop\n      pop\n      jump\t// out\n        /* \"#utility.yul\":29110:30505   */\n    tag_177:\n        /* \"#utility.yul\":29227:29264   */\n      tag_558\n        /* \"#utility.yul\":29260:29263   */\n      dup3\n        /* \"#utility.yul\":29227:29264   */\n      tag_213\n      jump\t// in\n    tag_558:\n        /* \"#utility.yul\":29329:29347   */\n      0xffffffffffffffff\n        /* \"#utility.yul\":29321:29327   */\n      dup2\n        /* \"#utility.yul\":29318:29348   */\n      gt\n        /* \"#utility.yul\":29315:29371   */\n      iszero\n      tag_559\n      jumpi\n        /* \"#utility.yul\":29351:29369   */\n      tag_560\n      tag_229\n      jump\t// in\n    tag_560:\n        /* \"#utility.yul\":29315:29371   */\n    tag_559:\n        /* \"#utility.yul\":29395:29433   */\n      tag_561\n        /* \"#utility.yul\":29427:29431   */\n      dup3\n        /* \"#utility.yul\":29421:29432   */\n      sload\n        /* \"#utility.yul\":29395:29433   */\n      tag_119\n      jump\t// in\n    tag_561:\n        /* \"#utility.yul\":29480:29547   */\n      tag_562\n        /* \"#utility.yul\":29540:29546   */\n      dup3\n        /* \"#utility.yul\":29532:29538   */\n      dup3\n        /* \"#utility.yul\":29526:29530   */\n      dup6\n        /* \"#utility.yul\":29480:29547   */\n      tag_281\n      jump\t// in\n    tag_562:\n        /* \"#utility.yul\":29574:29575   */\n      0x00\n        /* \"#utility.yul\":29598:29602   */\n      0x20\n        /* \"#utility.yul\":29585:29602   */\n      swap1\n      pop\n        /* \"#utility.yul\":29630:29632   */\n      0x1f\n        /* \"#utility.yul\":29622:29628   */\n      dup4\n        /* \"#utility.yul\":29619:29633   */\n      gt\n        /* \"#utility.yul\":29647:29648   */\n      0x01\n        /* \"#utility.yul\":29642:30260   */\n      dup2\n      eq\n      tag_564\n      jumpi\n        /* \"#utility.yul\":30304:30305   */\n      0x00\n        /* \"#utility.yul\":30321:30327   */\n      dup5\n        /* \"#utility.yul\":30318:30395   */\n      iszero\n      tag_565\n      jumpi\n        /* \"#utility.yul\":30370:30379   */\n      dup3\n        /* \"#utility.yul\":30365:30368   */\n      dup8\n        /* \"#utility.yul\":30361:30380   */\n      add\n        /* \"#utility.yul\":30355:30381   */\n      mload\n        /* \"#utility.yul\":30346:30381   */\n      swap1\n      pop\n        /* \"#utility.yul\":30318:30395   */\n    tag_565:\n        /* \"#utility.yul\":30421:30488   */\n      tag_566\n        /* \"#utility.yul\":30481:30487   */\n      dup6\n        /* \"#utility.yul\":30474:30479   */\n      dup3\n        /* \"#utility.yul\":30421:30488   */\n      tag_284\n      jump\t// in\n    tag_566:\n        /* \"#utility.yul\":30415:30419   */\n      dup7\n        /* \"#utility.yul\":30408:30489   */\n      sstore\n        /* \"#utility.yul\":30277:30499   */\n      pop\n        /* \"#utility.yul\":29612:30499   */\n      jump(tag_563)\n        /* \"#utility.yul\":29642:30260   */\n    tag_564:\n        /* \"#utility.yul\":29694:29698   */\n      0x1f\n        /* \"#utility.yul\":29690:29699   */\n      not\n        /* \"#utility.yul\":29682:29688   */\n      dup5\n        /* \"#utility.yul\":29678:29700   */\n      and\n        /* \"#utility.yul\":29728:29765   */\n      tag_567\n        /* \"#utility.yul\":29760:29764   */\n      dup7\n        /* \"#utility.yul\":29728:29765   */\n      tag_260\n      jump\t// in\n    tag_567:\n        /* \"#utility.yul\":29787:29788   */\n      0x00\n        /* \"#utility.yul\":29801:30009   */\n    tag_568:\n        /* \"#utility.yul\":29815:29822   */\n      dup3\n        /* \"#utility.yul\":29812:29813   */\n      dup2\n        /* \"#utility.yul\":29809:29823   */\n      lt\n        /* \"#utility.yul\":29801:30009   */\n      iszero\n      tag_570\n      jumpi\n        /* \"#utility.yul\":29894:29903   */\n      dup5\n        /* \"#utility.yul\":29889:29892   */\n      dup10\n        /* \"#utility.yul\":29885:29904   */\n      add\n        /* \"#utility.yul\":29879:29905   */\n      mload\n        /* \"#utility.yul\":29871:29877   */\n      dup3\n        /* \"#utility.yul\":29864:29906   */\n      sstore\n        /* \"#utility.yul\":29945:29946   */\n      0x01\n        /* \"#utility.yul\":29937:29943   */\n      dup3\n        /* \"#utility.yul\":29933:29947   */\n      add\n        /* \"#utility.yul\":29923:29947   */\n      swap2\n      pop\n        /* \"#utility.yul\":29992:29994   */\n      0x20\n        /* \"#utility.yul\":29981:29990   */\n      dup6\n        /* \"#utility.yul\":29977:29995   */\n      add\n        /* \"#utility.yul\":29964:29995   */\n      swap5\n      pop\n        /* \"#utility.yul\":29838:29842   */\n      0x20\n        /* \"#utility.yul\":29835:29836   */\n      dup2\n        /* \"#utility.yul\":29831:29843   */\n      add\n        /* \"#utility.yul\":29826:29843   */\n      swap1\n      pop\n        /* \"#utility.yul\":29801:30009   */\n      jump(tag_568)\n    tag_570:\n        /* \"#utility.yul\":30037:30043   */\n      dup7\n        /* \"#utility.yul\":30028:30035   */\n      dup4\n        /* \"#utility.yul\":30025:30044   */\n      lt\n        /* \"#utility.yul\":30022:30201   */\n      iszero\n      tag_571\n      jumpi\n        /* \"#utility.yul\":30095:30104   */\n      dup5\n        /* \"#utility.yul\":30090:30093   */\n      dup10\n        /* \"#utility.yul\":30086:30105   */\n      add\n        /* \"#utility.yul\":30080:30106   */\n      mload\n        /* \"#utility.yul\":30138:30186   */\n      tag_572\n        /* \"#utility.yul\":30180:30184   */\n      0x1f\n        /* \"#utility.yul\":30172:30178   */\n      dup10\n        /* \"#utility.yul\":30168:30185   */\n      and\n        /* \"#utility.yul\":30157:30166   */\n      dup3\n        /* \"#utility.yul\":30138:30186   */\n      tag_283\n      jump\t// in\n    tag_572:\n        /* \"#utility.yul\":30130:30136   */\n      dup4\n        /* \"#utility.yul\":30123:30187   */\n      sstore\n        /* \"#utility.yul\":30045:30201   */\n      pop\n        /* \"#utility.yul\":30022:30201   */\n    tag_571:\n        /* \"#utility.yul\":30247:30248   */\n      0x01\n        /* \"#utility.yul\":30243:30244   */\n      0x02\n        /* \"#utility.yul\":30235:30241   */\n      dup9\n        /* \"#utility.yul\":30231:30245   */\n      mul\n        /* \"#utility.yul\":30227:30249   */\n      add\n        /* \"#utility.yul\":30221:30225   */\n      dup9\n        /* \"#utility.yul\":30214:30250   */\n      sstore\n        /* \"#utility.yul\":29649:30260   */\n      pop\n      pop\n      pop\n        /* \"#utility.yul\":29612:30499   */\n    tag_563:\n      pop\n        /* \"#utility.yul\":29202:30505   */\n      pop\n      pop\n      pop\n        /* \"#utility.yul\":29110:30505   */\n      pop\n      pop\n      jump\t// out\n        /* \"#utility.yul\":30511:30934   */\n    tag_180:\n        /* \"#utility.yul\":30652:30656   */\n      0x00\n        /* \"#utility.yul\":30690:30692   */\n      0x40\n        /* \"#utility.yul\":30679:30688   */\n      dup3\n        /* \"#utility.yul\":30675:30693   */\n      add\n        /* \"#utility.yul\":30667:30693   */\n      swap1\n      pop\n        /* \"#utility.yul\":30703:30774   */\n      tag_574\n        /* \"#utility.yul\":30771:30772   */\n      0x00\n        /* \"#utility.yul\":30760:30769   */\n      dup4\n        /* \"#utility.yul\":30756:30773   */\n      add\n        /* \"#utility.yul\":30747:30753   */\n      dup6\n        /* \"#utility.yul\":30703:30774   */\n      tag_218\n      jump\t// in\n    tag_574:\n        /* \"#utility.yul\":30821:30830   */\n      dup2\n        /* \"#utility.yul\":30815:30819   */\n      dup2\n        /* \"#utility.yul\":30811:30831   */\n      sub\n        /* \"#utility.yul\":30806:30808   */\n      0x20\n        /* \"#utility.yul\":30795:30804   */\n      dup4\n        /* \"#utility.yul\":30791:30809   */\n      add\n        /* \"#utility.yul\":30784:30832   */\n      mstore\n        /* \"#utility.yul\":30849:30927   */\n      tag_575\n        /* \"#utility.yul\":30922:30926   */\n      dup2\n        /* \"#utility.yul\":30913:30919   */\n      dup5\n        /* \"#utility.yul\":30849:30927   */\n      tag_217\n      jump\t// in\n    tag_575:\n        /* \"#utility.yul\":30841:30927   */\n      swap1\n      pop\n        /* \"#utility.yul\":30511:30934   */\n      swap4\n      swap3\n      pop\n      pop\n      pop\n      jump\t// out\n\n    auxdata: 0xa26469706673582212201ef0062e684e54cd7ff64007d00af3b7d833370184ec8c56170082bc4cfb059e64736f6c634300081a0033\n}\n",
				"bytecode": {
					"linkReferences": {},
					"object": "608060405269d3c21bcecceda10000006002556040518060400160405280600b81526020017f53706f727443727970746f000000000000000000000000000000000000000000815250600390816100569190610385565b506040518060400160405280600281526020017f53500000000000000000000000000000000000000000000000000000000000008152506004908161009b9190610385565b50601260055f6101000a81548160ff021916908360ff1602179055503480156100c2575f80fd5b506002545f803373ffffffffffffffffffffffffffffffffffffffff1673ffffffffffffffffffffffffffffffffffffffff1681526020019081526020015f20819055503360085f6101000a81548173ffffffffffffffffffffffffffffffffffffffff021916908373ffffffffffffffffffffffffffffffffffffffff160217905550610454565b5f81519050919050565b7f4e487b71000000000000000000000000000000000000000000000000000000005f52604160045260245ffd5b7f4e487b71000000000000000000000000000000000000000000000000000000005f52602260045260245ffd5b5f60028204905060018216806101c657607f821691505b6020821081036101d9576101d8610182565b5b50919050565b5f819050815f5260205f209050919050565b5f6020601f8301049050919050565b5f82821b905092915050565b5f6008830261023b7fffffffffffffffffffffffffffffffffffffffffffffffffffffffffffffffff82610200565b6102458683610200565b95508019841693508086168417925050509392505050565b5f819050919050565b5f819050919050565b5f61028961028461027f8461025d565b610266565b61025d565b9050919050565b5f819050919050565b6102a28361026f565b6102b66102ae82610290565b84845461020c565b825550505050565b5f90565b6102ca6102be565b6102d5818484610299565b505050565b5b818110156102f8576102ed5f826102c2565b6001810190506102db565b5050565b601f82111561033d5761030e816101df565b610317846101f1565b81016020851015610326578190505b61033a610332856101f1565b8301826102da565b50505b505050565b5f82821c905092915050565b5f61035d5f1984600802610342565b1980831691505092915050565b5f610375838361034e565b9150826002028217905092915050565b61038e8261014b565b67ffffffffffffffff8111156103a7576103a6610155565b5b6103b182546101af565b6103bc8282856102fc565b5f60209050601f8311600181146103ed575f84156103db578287015190505b6103e5858261036a565b86555061044c565b601f1984166103fb866101df565b5f5b82811015610422578489015182556001820191506020850194506020810190506103fd565b8683101561043f578489015161043b601f89168261034e565b8355505b6001600288020188555050505b505050505050565b6121f7806104615f395ff3fe608060405234801561000f575f80fd5b5060043610610109575f3560e01c8063313ce567116100a057806370a082311161006f57806370a08231146102cb57806395d89b41146102fb578063a9059cbb14610319578063ce606ee014610349578063dd62ed3e1461036757610109565b8063313ce5671461024357806349c2a1a6146102615780635277b4ae1461027d57806362564c48146102ad57610109565b80630d61b519116100dc5780630d61b519146101a957806318160ddd146101c557806323b872dd146101e357806327e235e31461021357610109565b80630121b93f1461010d578063013cf08b1461012957806306fdde031461015b578063095ea7b314610179575b5f80fd5b610127600480360381019061012291906112cb565b610397565b005b610143600480360381019061013e91906112cb565b6105a2565b6040516101529392919061138f565b60405180910390f35b610163610669565b60405161017091906113cb565b60405180910390f35b610193600480360381019061018e9190611445565b6106f5565b6040516101a09190611483565b60405180910390f35b6101c360048036038101906101be91906112cb565b6107e2565b005b6101cd6109c0565b6040516101da919061149c565b60405180910390f35b6101fd60048036038101906101f891906114b5565b6109c6565b60405161020a9190611483565b60405180910390f35b61022d60048036038101906102289190611505565b610d07565b60405161023a919061149c565b60405180910390f35b61024b610d1b565b604051610258919061154b565b60405180910390f35b61027b60048036038101906102769190611690565b610d2d565b005b610297600480360381019061029291906116d7565b610e41565b6040516102a49190611483565b60405180910390f35b6102b5610e6b565b6040516102c29190611883565b60405180910390f35b6102e560048036038101906102e09190611505565b610f7a565b6040516102f2919061149c565b60405180910390f35b610303610fbf565b60405161031091906113cb565b60405180910390f35b610333600480360381019061032e9190611445565b61104b565b6040516103409190611483565b60405180910390f35b610351611242565b60405161035e91906118b2565b60405180910390f35b610381600480360381019061037c91906118cb565b611267565b60405161038e919061149c565b60405180910390f35b60068054905081106103de576040517f08c379a00000000000000000000000000000000000000000000000000000000081526004016103d590611953565b60405180910390fd5b60075f8281526020019081526020015f205f3373ffffffffffffffffffffffffffffffffffffffff1673ffffffffffffffffffffffffffffffffffffffff1681526020019081526020015f205f9054906101000a900460ff1615610477576040517f08c379a000000000000000000000000000000000000000000000000000000000815260040161046e906119bb565b60405180910390fd5b5f61048133610f7a565b116104c1576040517f08c379a00000000000000000000000000000000000000000000000000000000081526004016104b890611a23565b60405180910390fd5b6104ca33610f7a565b600682815481106104de576104dd611a41565b5b905f5260205f2090600302016001015f8282546104fb9190611a9b565b92505081905550600160075f8381526020019081526020015f205f3373ffffffffffffffffffffffffffffffffffffffff1673ffffffffffffffffffffffffffffffffffffffff1681526020019081526020015f205f6101000a81548160ff0219169083151502179055507fd0e6c39f2e086dc49f1524b47725526a56945cd1ff661f37976f1725a1e569863382604051610597929190611ace565b60405180910390a150565b600681815481106105b1575f80fd5b905f5260205f2090600302015f91509050805f0180546105d090611b22565b80601f01602080910402602001604051908101604052809291908181526020018280546105fc90611b22565b80156106475780601f1061061e57610100808354040283529160200191610647565b820191905f5260205f20905b81548152906001019060200180831161062a57829003601f168201915b505050505090806001015490806002015f9054906101000a900460ff16905083565b6003805461067690611b22565b80601f01602080910402602001604051908101604052809291908181526020018280546106a290611b22565b80156106ed5780601f106106c4576101008083540402835291602001916106ed565b820191905f5260205f20905b8154815290600101906020018083116106d057829003601f168201915b505050505081565b5f8160015f3373ffffffffffffffffffffffffffffffffffffffff1673ffffffffffffffffffffffffffffffffffffffff1681526020019081526020015f205f8573ffffffffffffffffffffffffffffffffffffffff1673ffffffffffffffffffffffffffffffffffffffff1681526020019081526020015f20819055508273ffffffffffffffffffffffffffffffffffffffff163373ffffffffffffffffffffffffffffffffffffffff167f8c5be1e5ebec7d5bd14f71427d1e84f3dd0314c0f7b2291e5b200ac8c7c3b925846040516107d0919061149c565b60405180910390a36001905092915050565b60085f9054906101000a900473ffffffffffffffffffffffffffffffffffffffff1673ffffffffffffffffffffffffffffffffffffffff163373ffffffffffffffffffffffffffffffffffffffff1614610871576040517f08c379a000000000000000000000000000000000000000000000000000000000815260040161086890611bc2565b60405180910390fd5b60068054905081106108b8576040517f08c379a00000000000000000000000000000000000000000000000000000000081526004016108af90611953565b60405180910390fd5b600681815481106108cc576108cb611a41565b5b905f5260205f2090600302016002015f9054906101000a900460ff1615610928576040517f08c379a000000000000000000000000000000000000000000000000000000000815260040161091f90611c2a565b60405180910390fd5b60016006828154811061093e5761093d611a41565b5b905f5260205f2090600302016002015f6101000a81548160ff0219169083151502179055507f537137e7fc21556269dc66003ff063d7ee0ce98cf05ad2feddda124690976e95816006838154811061099957610998611a41565b5b905f5260205f2090600302015f016040516109b5929190611cdb565b60405180910390a150565b60025481565b5f816109d185610f7a565b1015610a12576040517f08c379a0000000000000000000000000000000000000000000000000000000008152600401610a0990611d53565b60405180910390fd5b8160015f8673ffffffffffffffffffffffffffffffffffffffff1673ffffffffffffffffffffffffffffffffffffffff1681526020019081526020015f205f3373ffffffffffffffffffffffffffffffffffffffff1673ffffffffffffffffffffffffffffffffffffffff1681526020019081526020015f20541015610acd576040517f08c379a0000000000000000000000000000000000000000000000000000000008152600401610ac490611dbb565b60405180910390fd5b600a600254610adc9190611e06565b825f808673ffffffffffffffffffffffffffffffffffffffff1673ffffffffffffffffffffffffffffffffffffffff1681526020019081526020015f2054610b249190611a9b565b1115610b65576040517f08c379a0000000000000000000000000000000000000000000000000000000008152600401610b5c90611e80565b60405180910390fd5b8160015f8673ffffffffffffffffffffffffffffffffffffffff1673ffffffffffffffffffffffffffffffffffffffff1681526020019081526020015f205f3373ffffffffffffffffffffffffffffffffffffffff1673ffffffffffffffffffffffffffffffffffffffff1681526020019081526020015f205f828254610bec9190611e9e565b92505081905550815f808573ffffffffffffffffffffffffffffffffffffffff1673ffffffffffffffffffffffffffffffffffffffff1681526020019081526020015f205f828254610c3e9190611a9b565b92505081905550815f808673ffffffffffffffffffffffffffffffffffffffff1673ffffffffffffffffffffffffffffffffffffffff1681526020019081526020015f205f828254610c909190611e9e565b925050819055508273ffffffffffffffffffffffffffffffffffffffff168473ffffffffffffffffffffffffffffffffffffffff167fddf252ad1be2c89b69c2b068fc378daa952ba7f163c4a11628f55a4df523b3ef84604051610cf4919061149c565b60405180910390a3600190509392505050565b5f602052805f5260405f205f915090505481565b60055f9054906101000a900460ff1681565b5f815111610d70576040517f08c379a0000000000000000000000000000000000000000000000000000000008152600401610d6790611f1b565b60405180910390fd5b600660405180606001604052808381526020015f81526020015f1515815250908060018154018082558091505060019003905f5260205f2090600302015f909190919091505f820151815f019081610dc891906120c4565b50602082015181600101556040820151816002015f6101000a81548160ff02191690831515021790555050507f9c770c289ab5bf7e57cb1d23c8ceae993aea46eb64847072fd3d78ca60d3e4326001600680549050610e279190611e9e565b82604051610e36929190612193565b60405180910390a150565b6007602052815f5260405f20602052805f5260405f205f915091509054906101000a900460ff1681565b60606006805480602002602001604051908101604052809291908181526020015f905b82821015610f71578382905f5260205f2090600302016040518060600160405290815f82018054610ebe90611b22565b80601f0160208091040260200160405190810160405280929190818152602001828054610eea90611b22565b8015610f355780601f10610f0c57610100808354040283529160200191610f35565b820191905f5260205f20905b815481529060010190602001808311610f1857829003601f168201915b5050505050815260200160018201548152602001600282015f9054906101000a900460ff16151515158152505081526020019060010190610e8e565b50505050905090565b5f805f8373ffffffffffffffffffffffffffffffffffffffff1673ffffffffffffffffffffffffffffffffffffffff1681526020019081526020015f20549050919050565b60048054610fcc90611b22565b80601f0160208091040260200160405190810160405280929190818152602001828054610ff890611b22565b80156110435780601f1061101a57610100808354040283529160200191611043565b820191905f5260205f20905b81548152906001019060200180831161102657829003601f168201915b505050505081565b5f8161105633610f7a565b1015611097576040517f08c379a000000000000000000000000000000000000000000000000000000000815260040161108e90611d53565b60405180910390fd5b600a6002546110a69190611e06565b825f808673ffffffffffffffffffffffffffffffffffffffff1673ffffffffffffffffffffffffffffffffffffffff1681526020019081526020015f20546110ee9190611a9b565b111561112f576040517f08c379a000000000000000000000000000000000000000000000000000000000815260040161112690611e80565b60405180910390fd5b815f808573ffffffffffffffffffffffffffffffffffffffff1673ffffffffffffffffffffffffffffffffffffffff1681526020019081526020015f205f82825461117a9190611a9b565b92505081905550815f803373ffffffffffffffffffffffffffffffffffffffff1673ffffffffffffffffffffffffffffffffffffffff1681526020019081526020015f205f8282546111cc9190611e9e565b925050819055508273ffffffffffffffffffffffffffffffffffffffff163373ffffffffffffffffffffffffffffffffffffffff167fddf252ad1be2c89b69c2b068fc378daa952ba7f163c4a11628f55a4df523b3ef84604051611230919061149c565b60405180910390a36001905092915050565b60085f9054906101000a900473ffffffffffffffffffffffffffffffffffffffff1681565b6001602052815f5260405f20602052805f5260405f205f91509150505481565b5f604051905090565b5f80fd5b5f80fd5b5f819050919050565b6112aa81611298565b81146112b4575f80fd5b50565b5f813590506112c5816112a1565b92915050565b5f602082840312156112e0576112df611290565b5b5f6112ed848285016112b7565b91505092915050565b5f81519050919050565b5f82825260208201905092915050565b8281835e5f83830152505050565b5f601f19601f8301169050919050565b5f611338826112f6565b6113428185611300565b9350611352818560208601611310565b61135b8161131e565b840191505092915050565b61136f81611298565b82525050565b5f8115159050919050565b61138981611375565b82525050565b5f6060820190508181035f8301526113a7818661132e565b90506113b66020830185611366565b6113c36040830184611380565b949350505050565b5f6020820190508181035f8301526113e3818461132e565b905092915050565b5f73ffffffffffffffffffffffffffffffffffffffff82169050919050565b5f611414826113eb565b9050919050565b6114248161140a565b811461142e575f80fd5b50565b5f8135905061143f8161141b565b92915050565b5f806040838503121561145b5761145a611290565b5b5f61146885828601611431565b9250506020611479858286016112b7565b9150509250929050565b5f6020820190506114965f830184611380565b92915050565b5f6020820190506114af5f830184611366565b92915050565b5f805f606084860312156114cc576114cb611290565b5b5f6114d986828701611431565b93505060206114ea86828701611431565b92505060406114fb868287016112b7565b9150509250925092565b5f6020828403121561151a57611519611290565b5b5f61152784828501611431565b91505092915050565b5f60ff82169050919050565b61154581611530565b82525050565b5f60208201905061155e5f83018461153c565b92915050565b5f80fd5b5f80fd5b7f4e487b71000000000000000000000000000000000000000000000000000000005f52604160045260245ffd5b6115a28261131e565b810181811067ffffffffffffffff821117156115c1576115c061156c565b5b80604052505050565b5f6115d3611287565b90506115df8282611599565b919050565b5f67ffffffffffffffff8211156115fe576115fd61156c565b5b6116078261131e565b9050602081019050919050565b828183375f83830152505050565b5f61163461162f846115e4565b6115ca565b9050828152602081018484840111156116505761164f611568565b5b61165b848285611614565b509392505050565b5f82601f83011261167757611676611564565b5b8135611687848260208601611622565b91505092915050565b5f602082840312156116a5576116a4611290565b5b5f82013567ffffffffffffffff8111156116c2576116c1611294565b5b6116ce84828501611663565b91505092915050565b5f80604083850312156116ed576116ec611290565b5b5f6116fa858286016112b7565b925050602061170b85828601611431565b9150509250929050565b5f81519050919050565b5f82825260208201905092915050565b5f819050602082019050919050565b5f82825260208201905092915050565b5f611758826112f6565b611762818561173e565b9350611772818560208601611310565b61177b8161131e565b840191505092915050565b61178f81611298565b82525050565b61179e81611375565b82525050565b5f606083015f8301518482035f8601526117be828261174e565b91505060208301516117d36020860182611786565b5060408301516117e66040860182611795565b508091505092915050565b5f6117fc83836117a4565b905092915050565b5f602082019050919050565b5f61181a82611715565b611824818561171f565b9350836020820285016118368561172f565b805f5b85811015611871578484038952815161185285826117f1565b945061185d83611804565b925060208a01995050600181019050611839565b50829750879550505050505092915050565b5f6020820190508181035f83015261189b8184611810565b905092915050565b6118ac8161140a565b82525050565b5f6020820190506118c55f8301846118a3565b92915050565b5f80604083850312156118e1576118e0611290565b5b5f6118ee85828601611431565b92505060206118ff85828601611431565b9150509250929050565b7f496e76616c69642070726f706f73616c204944000000000000000000000000005f82015250565b5f61193d601383611300565b915061194882611909565b602082019050919050565b5f6020820190508181035f83015261196a81611931565b9050919050565b7f416c726561647920766f746564000000000000000000000000000000000000005f82015250565b5f6119a5600d83611300565b91506119b082611971565b602082019050919050565b5f6020820190508181035f8301526119d281611999565b9050919050565b7f4d757374206f776e20535020746f20766f7465000000000000000000000000005f82015250565b5f611a0d601383611300565b9150611a18826119d9565b602082019050919050565b5f6020820190508181035f830152611a3a81611a01565b9050919050565b7f4e487b71000000000000000000000000000000000000000000000000000000005f52603260045260245ffd5b7f4e487b71000000000000000000000000000000000000000000000000000000005f52601160045260245ffd5b5f611aa582611298565b9150611ab083611298565b9250828201905080821115611ac857611ac7611a6e565b5b92915050565b5f604082019050611ae15f8301856118a3565b611aee6020830184611366565b9392505050565b7f4e487b71000000000000000000000000000000000000000000000000000000005f52602260045260245ffd5b5f6002820490506001821680611b3957607f821691505b602082108103611b4c57611b4b611af5565b5b50919050565b7f4f6e6c79206f776e65722063616e2063616c6c20746869732066756e6374696f5f8201527f6e00000000000000000000000000000000000000000000000000000000000000602082015250565b5f611bac602183611300565b9150611bb782611b52565b604082019050919050565b5f6020820190508181035f830152611bd981611ba0565b9050919050565b7f50726f706f73616c20616c7265616479206578656375746564000000000000005f82015250565b5f611c14601983611300565b9150611c1f82611be0565b602082019050919050565b5f6020820190508181035f830152611c4181611c08565b9050919050565b5f819050815f5260205f209050919050565b5f8154611c6681611b22565b611c708186611300565b9450600182165f8114611c8a5760018114611ca057611cd2565b60ff198316865281151560200286019350611cd2565b611ca985611c48565b5f5b83811015611cca57815481890152600182019150602081019050611cab565b808801955050505b50505092915050565b5f604082019050611cee5f830185611366565b8181036020830152611d008184611c5a565b90509392505050565b7f496e73756666696369656e742062616c616e63650000000000000000000000005f82015250565b5f611d3d601483611300565b9150611d4882611d09565b602082019050919050565b5f6020820190508181035f830152611d6a81611d31565b9050919050565b7f416c6c6f77616e636520657863656564656400000000000000000000000000005f82015250565b5f611da5601283611300565b9150611db082611d71565b602082019050919050565b5f6020820190508181035f830152611dd281611d99565b9050919050565b7f4e487b71000000000000000000000000000000000000000000000000000000005f52601260045260245ffd5b5f611e1082611298565b9150611e1b83611298565b925082611e2b57611e2a611dd9565b5b828204905092915050565b7f45786365656473206d6178206f776e65727368697020636170000000000000005f82015250565b5f611e6a601983611300565b9150611e7582611e36565b602082019050919050565b5f6020820190508181035f830152611e9781611e5e565b9050919050565b5f611ea882611298565b9150611eb383611298565b9250828203905081811115611ecb57611eca611a6e565b5b92915050565b7f4465736372697074696f6e2063616e6e6f7420626520656d70747900000000005f82015250565b5f611f05601b83611300565b9150611f1082611ed1565b602082019050919050565b5f6020820190508181035f830152611f3281611ef9565b9050919050565b5f6020601f8301049050919050565b5f82821b905092915050565b5f60088302611f837fffffffffffffffffffffffffffffffffffffffffffffffffffffffffffffffff82611f48565b611f8d8683611f48565b95508019841693508086168417925050509392505050565b5f819050919050565b5f611fc8611fc3611fbe84611298565b611fa5565b611298565b9050919050565b5f819050919050565b611fe183611fae565b611ff5611fed82611fcf565b848454611f54565b825550505050565b5f90565b612009611ffd565b612014818484611fd8565b505050565b5b818110156120375761202c5f82612001565b60018101905061201a565b5050565b601f82111561207c5761204d81611c48565b61205684611f39565b81016020851015612065578190505b61207961207185611f39565b830182612019565b50505b505050565b5f82821c905092915050565b5f61209c5f1984600802612081565b1980831691505092915050565b5f6120b4838361208d565b9150826002028217905092915050565b6120cd826112f6565b67ffffffffffffffff8111156120e6576120e561156c565b5b6120f08254611b22565b6120fb82828561203b565b5f60209050601f83116001811461212c575f841561211a578287015190505b61212485826120a9565b86555061218b565b601f19841661213a86611c48565b5f5b828110156121615784890151825560018201915060208501945060208101905061213c565b8683101561217e578489015161217a601f89168261208d565b8355505b6001600288020188555050505b505050505050565b5f6040820190506121a65f830185611366565b81810360208301526121b8818461132e565b9050939250505056fea26469706673582212201ef0062e684e54cd7ff64007d00af3b7d833370184ec8c56170082bc4cfb059e64736f6c634300081a0033",
					"opcodes": "PUSH1 0x80 PUSH1 0x40 MSTORE PUSH10 0xD3C21BCECCEDA1000000 PUSH1 0x2 SSTORE PUSH1 0x40 MLOAD DUP1 PUSH1 0x40 ADD PUSH1 0x40 MSTORE DUP1 PUSH1 0xB DUP2 MSTORE PUSH1 0x20 ADD PUSH32 0x53706F727443727970746F000000000000000000000000000000000000000000 DUP2 MSTORE POP PUSH1 0x3 SWAP1 DUP2 PUSH2 0x56 SWAP2 SWAP1 PUSH2 0x385 JUMP JUMPDEST POP PUSH1 0x40 MLOAD DUP1 PUSH1 0x40 ADD PUSH1 0x40 MSTORE DUP1 PUSH1 0x2 DUP2 MSTORE PUSH1 0x20 ADD PUSH32 0x5350000000000000000000000000000000000000000000000000000000000000 DUP2 MSTORE POP PUSH1 0x4 SWAP1 DUP2 PUSH2 0x9B SWAP2 SWAP1 PUSH2 0x385 JUMP JUMPDEST POP PUSH1 0x12 PUSH1 0x5 PUSH0 PUSH2 0x100 EXP DUP2 SLOAD DUP2 PUSH1 0xFF MUL NOT AND SWAP1 DUP4 PUSH1 0xFF AND MUL OR SWAP1 SSTORE POP CALLVALUE DUP1 ISZERO PUSH2 0xC2 JUMPI PUSH0 DUP1 REVERT JUMPDEST POP PUSH1 0x2 SLOAD PUSH0 DUP1 CALLER PUSH20 0xFFFFFFFFFFFFFFFFFFFFFFFFFFFFFFFFFFFFFFFF AND PUSH20 0xFFFFFFFFFFFFFFFFFFFFFFFFFFFFFFFFFFFFFFFF AND DUP2 MSTORE PUSH1 0x20 ADD SWAP1 DUP2 MSTORE PUSH1 0x20 ADD PUSH0 KECCAK256 DUP2 SWAP1 SSTORE POP CALLER PUSH1 0x8 PUSH0 PUSH2 0x100 EXP DUP2 SLOAD DUP2 PUSH20 0xFFFFFFFFFFFFFFFFFFFFFFFFFFFFFFFFFFFFFFFF MUL NOT AND SWAP1 DUP4 PUSH20 0xFFFFFFFFFFFFFFFFFFFFFFFFFFFFFFFFFFFFFFFF AND MUL OR SWAP1 SSTORE POP PUSH2 0x454 JUMP JUMPDEST PUSH0 DUP2 MLOAD SWAP1 POP SWAP2 SWAP1 POP JUMP JUMPDEST PUSH32 0x4E487B7100000000000000000000000000000000000000000000000000000000 PUSH0 MSTORE PUSH1 0x41 PUSH1 0x4 MSTORE PUSH1 0x24 PUSH0 REVERT JUMPDEST PUSH32 0x4E487B7100000000000000000000000000000000000000000000000000000000 PUSH0 MSTORE PUSH1 0x22 PUSH1 0x4 MSTORE PUSH1 0x24 PUSH0 REVERT JUMPDEST PUSH0 PUSH1 0x2 DUP3 DIV SWAP1 POP PUSH1 0x1 DUP3 AND DUP1 PUSH2 0x1C6 JUMPI PUSH1 0x7F DUP3 AND SWAP2 POP JUMPDEST PUSH1 0x20 DUP3 LT DUP2 SUB PUSH2 0x1D9 JUMPI PUSH2 0x1D8 PUSH2 0x182 JUMP JUMPDEST JUMPDEST POP SWAP2 SWAP1 POP JUMP JUMPDEST PUSH0 DUP2 SWAP1 POP DUP2 PUSH0 MSTORE PUSH1 0x20 PUSH0 KECCAK256 SWAP1 POP SWAP2 SWAP1 POP JUMP JUMPDEST PUSH0 PUSH1 0x20 PUSH1 0x1F DUP4 ADD DIV SWAP1 POP SWAP2 SWAP1 POP JUMP JUMPDEST PUSH0 DUP3 DUP3 SHL SWAP1 POP SWAP3 SWAP2 POP POP JUMP JUMPDEST PUSH0 PUSH1 0x8 DUP4 MUL PUSH2 0x23B PUSH32 0xFFFFFFFFFFFFFFFFFFFFFFFFFFFFFFFFFFFFFFFFFFFFFFFFFFFFFFFFFFFFFFFF DUP3 PUSH2 0x200 JUMP JUMPDEST PUSH2 0x245 DUP7 DUP4 PUSH2 0x200 JUMP JUMPDEST SWAP6 POP DUP1 NOT DUP5 AND SWAP4 POP DUP1 DUP7 AND DUP5 OR SWAP3 POP POP POP SWAP4 SWAP3 POP POP POP JUMP JUMPDEST PUSH0 DUP2 SWAP1 POP SWAP2 SWAP1 POP JUMP JUMPDEST PUSH0 DUP2 SWAP1 POP SWAP2 SWAP1 POP JUMP JUMPDEST PUSH0 PUSH2 0x289 PUSH2 0x284 PUSH2 0x27F DUP5 PUSH2 0x25D JUMP JUMPDEST PUSH2 0x266 JUMP JUMPDEST PUSH2 0x25D JUMP JUMPDEST SWAP1 POP SWAP2 SWAP1 POP JUMP JUMPDEST PUSH0 DUP2 SWAP1 POP SWAP2 SWAP1 POP JUMP JUMPDEST PUSH2 0x2A2 DUP4 PUSH2 0x26F JUMP JUMPDEST PUSH2 0x2B6 PUSH2 0x2AE DUP3 PUSH2 0x290 JUMP JUMPDEST DUP5 DUP5 SLOAD PUSH2 0x20C JUMP JUMPDEST DUP3 SSTORE POP POP POP POP JUMP JUMPDEST PUSH0 SWAP1 JUMP JUMPDEST PUSH2 0x2CA PUSH2 0x2BE JUMP JUMPDEST PUSH2 0x2D5 DUP2 DUP5 DUP5 PUSH2 0x299 JUMP JUMPDEST POP POP POP JUMP JUMPDEST JUMPDEST DUP2 DUP2 LT ISZERO PUSH2 0x2F8 JUMPI PUSH2 0x2ED PUSH0 DUP3 PUSH2 0x2C2 JUMP JUMPDEST PUSH1 0x1 DUP2 ADD SWAP1 POP PUSH2 0x2DB JUMP JUMPDEST POP POP JUMP JUMPDEST PUSH1 0x1F DUP3 GT ISZERO PUSH2 0x33D JUMPI PUSH2 0x30E DUP2 PUSH2 0x1DF JUMP JUMPDEST PUSH2 0x317 DUP5 PUSH2 0x1F1 JUMP JUMPDEST DUP2 ADD PUSH1 0x20 DUP6 LT ISZERO PUSH2 0x326 JUMPI DUP2 SWAP1 POP JUMPDEST PUSH2 0x33A PUSH2 0x332 DUP6 PUSH2 0x1F1 JUMP JUMPDEST DUP4 ADD DUP3 PUSH2 0x2DA JUMP JUMPDEST POP POP JUMPDEST POP POP POP JUMP JUMPDEST PUSH0 DUP3 DUP3 SHR SWAP1 POP SWAP3 SWAP2 POP POP JUMP JUMPDEST PUSH0 PUSH2 0x35D PUSH0 NOT DUP5 PUSH1 0x8 MUL PUSH2 0x342 JUMP JUMPDEST NOT DUP1 DUP4 AND SWAP2 POP POP SWAP3 SWAP2 POP POP JUMP JUMPDEST PUSH0 PUSH2 0x375 DUP4 DUP4 PUSH2 0x34E JUMP JUMPDEST SWAP2 POP DUP3 PUSH1 0x2 MUL DUP3 OR SWAP1 POP SWAP3 SWAP2 POP POP JUMP JUMPDEST PUSH2 0x38E DUP3 PUSH2 0x14B JUMP JUMPDEST PUSH8 0xFFFFFFFFFFFFFFFF DUP2 GT ISZERO PUSH2 0x3A7 JUMPI PUSH2 0x3A6 PUSH2 0x155 JUMP JUMPDEST JUMPDEST PUSH2 0x3B1 DUP3 SLOAD PUSH2 0x1AF JUMP JUMPDEST PUSH2 0x3BC DUP3 DUP3 DUP6 PUSH2 0x2FC JUMP JUMPDEST PUSH0 PUSH1 0x20 SWAP1 POP PUSH1 0x1F DUP4 GT PUSH1 0x1 DUP2 EQ PUSH2 0x3ED JUMPI PUSH0 DUP5 ISZERO PUSH2 0x3DB JUMPI DUP3 DUP8 ADD MLOAD SWAP1 POP JUMPDEST PUSH2 0x3E5 DUP6 DUP3 PUSH2 0x36A JUMP JUMPDEST DUP7 SSTORE POP PUSH2 0x44C JUMP JUMPDEST PUSH1 0x1F NOT DUP5 AND PUSH2 0x3FB DUP7 PUSH2 0x1DF JUMP JUMPDEST PUSH0 JUMPDEST DUP3 DUP2 LT ISZERO PUSH2 0x422 JUMPI DUP5 DUP10 ADD MLOAD DUP3 SSTORE PUSH1 0x1 DUP3 ADD SWAP2 POP PUSH1 0x20 DUP6 ADD SWAP5 POP PUSH1 0x20 DUP2 ADD SWAP1 POP PUSH2 0x3FD JUMP JUMPDEST DUP7 DUP4 LT ISZERO PUSH2 0x43F JUMPI DUP5 DUP10 ADD MLOAD PUSH2 0x43B PUSH1 0x1F DUP10 AND DUP3 PUSH2 0x34E JUMP JUMPDEST DUP4 SSTORE POP JUMPDEST PUSH1 0x1 PUSH1 0x2 DUP9 MUL ADD DUP9 SSTORE POP POP POP JUMPDEST POP POP POP POP POP POP JUMP JUMPDEST PUSH2 0x21F7 DUP1 PUSH2 0x461 PUSH0 CODECOPY PUSH0 RETURN INVALID PUSH1 0x80 PUSH1 0x40 MSTORE CALLVALUE DUP1 ISZERO PUSH2 0xF JUMPI PUSH0 DUP1 REVERT JUMPDEST POP PUSH1 0x4 CALLDATASIZE LT PUSH2 0x109 JUMPI PUSH0 CALLDATALOAD PUSH1 0xE0 SHR DUP1 PUSH4 0x313CE567 GT PUSH2 0xA0 JUMPI DUP1 PUSH4 0x70A08231 GT PUSH2 0x6F JUMPI DUP1 PUSH4 0x70A08231 EQ PUSH2 0x2CB JUMPI DUP1 PUSH4 0x95D89B41 EQ PUSH2 0x2FB JUMPI DUP1 PUSH4 0xA9059CBB EQ PUSH2 0x319 JUMPI DUP1 PUSH4 0xCE606EE0 EQ PUSH2 0x349 JUMPI DUP1 PUSH4 0xDD62ED3E EQ PUSH2 0x367 JUMPI PUSH2 0x109 JUMP JUMPDEST DUP1 PUSH4 0x313CE567 EQ PUSH2 0x243 JUMPI DUP1 PUSH4 0x49C2A1A6 EQ PUSH2 0x261 JUMPI DUP1 PUSH4 0x5277B4AE EQ PUSH2 0x27D JUMPI DUP1 PUSH4 0x62564C48 EQ PUSH2 0x2AD JUMPI PUSH2 0x109 JUMP JUMPDEST DUP1 PUSH4 0xD61B519 GT PUSH2 0xDC JUMPI DUP1 PUSH4 0xD61B519 EQ PUSH2 0x1A9 JUMPI DUP1 PUSH4 0x18160DDD EQ PUSH2 0x1C5 JUMPI DUP1 PUSH4 0x23B872DD EQ PUSH2 0x1E3 JUMPI DUP1 PUSH4 0x27E235E3 EQ PUSH2 0x213 JUMPI PUSH2 0x109 JUMP JUMPDEST DUP1 PUSH4 0x121B93F EQ PUSH2 0x10D JUMPI DUP1 PUSH4 0x13CF08B EQ PUSH2 0x129 JUMPI DUP1 PUSH4 0x6FDDE03 EQ PUSH2 0x15B JUMPI DUP1 PUSH4 0x95EA7B3 EQ PUSH2 0x179 JUMPI JUMPDEST PUSH0 DUP1 REVERT JUMPDEST PUSH2 0x127 PUSH1 0x4 DUP1 CALLDATASIZE SUB DUP2 ADD SWAP1 PUSH2 0x122 SWAP2 SWAP1 PUSH2 0x12CB JUMP JUMPDEST PUSH2 0x397 JUMP JUMPDEST STOP JUMPDEST PUSH2 0x143 PUSH1 0x4 DUP1 CALLDATASIZE SUB DUP2 ADD SWAP1 PUSH2 0x13E SWAP2 SWAP1 PUSH2 0x12CB JUMP JUMPDEST PUSH2 0x5A2 JUMP JUMPDEST PUSH1 0x40 MLOAD PUSH2 0x152 SWAP4 SWAP3 SWAP2 SWAP1 PUSH2 0x138F JUMP JUMPDEST PUSH1 0x40 MLOAD DUP1 SWAP2 SUB SWAP1 RETURN JUMPDEST PUSH2 0x163 PUSH2 0x669 JUMP JUMPDEST PUSH1 0x40 MLOAD PUSH2 0x170 SWAP2 SWAP1 PUSH2 0x13CB JUMP JUMPDEST PUSH1 0x40 MLOAD DUP1 SWAP2 SUB SWAP1 RETURN JUMPDEST PUSH2 0x193 PUSH1 0x4 DUP1 CALLDATASIZE SUB DUP2 ADD SWAP1 PUSH2 0x18E SWAP2 SWAP1 PUSH2 0x1445 JUMP JUMPDEST PUSH2 0x6F5 JUMP JUMPDEST PUSH1 0x40 MLOAD PUSH2 0x1A0 SWAP2 SWAP1 PUSH2 0x1483 JUMP JUMPDEST PUSH1 0x40 MLOAD DUP1 SWAP2 SUB SWAP1 RETURN JUMPDEST PUSH2 0x1C3 PUSH1 0x4 DUP1 CALLDATASIZE SUB DUP2 ADD SWAP1 PUSH2 0x1BE SWAP2 SWAP1 PUSH2 0x12CB JUMP JUMPDEST PUSH2 0x7E2 JUMP JUMPDEST STOP JUMPDEST PUSH2 0x1CD PUSH2 0x9C0 JUMP JUMPDEST PUSH1 0x40 MLOAD PUSH2 0x1DA SWAP2 SWAP1 PUSH2 0x149C JUMP JUMPDEST PUSH1 0x40 MLOAD DUP1 SWAP2 SUB SWAP1 RETURN JUMPDEST PUSH2 0x1FD PUSH1 0x4 DUP1 CALLDATASIZE SUB DUP2 ADD SWAP1 PUSH2 0x1F8 SWAP2 SWAP1 PUSH2 0x14B5 JUMP JUMPDEST PUSH2 0x9C6 JUMP JUMPDEST PUSH1 0x40 MLOAD PUSH2 0x20A SWAP2 SWAP1 PUSH2 0x1483 JUMP JUMPDEST PUSH1 0x40 MLOAD DUP1 SWAP2 SUB SWAP1 RETURN JUMPDEST PUSH2 0x22D PUSH1 0x4 DUP1 CALLDATASIZE SUB DUP2 ADD SWAP1 PUSH2 0x228 SWAP2 SWAP1 PUSH2 0x1505 JUMP JUMPDEST PUSH2 0xD07 JUMP JUMPDEST PUSH1 0x40 MLOAD PUSH2 0x23A SWAP2 SWAP1 PUSH2 0x149C JUMP JUMPDEST PUSH1 0x40 MLOAD DUP1 SWAP2 SUB SWAP1 RETURN JUMPDEST PUSH2 0x24B PUSH2 0xD1B JUMP JUMPDEST PUSH1 0x40 MLOAD PUSH2 0x258 SWAP2 SWAP1 PUSH2 0x154B JUMP JUMPDEST PUSH1 0x40 MLOAD DUP1 SWAP2 SUB SWAP1 RETURN JUMPDEST PUSH2 0x27B PUSH1 0x4 DUP1 CALLDATASIZE SUB DUP2 ADD SWAP1 PUSH2 0x276 SWAP2 SWAP1 PUSH2 0x1690 JUMP JUMPDEST PUSH2 0xD2D JUMP JUMPDEST STOP JUMPDEST PUSH2 0x297 PUSH1 0x4 DUP1 CALLDATASIZE SUB DUP2 ADD SWAP1 PUSH2 0x292 SWAP2 SWAP1 PUSH2 0x16D7 JUMP JUMPDEST PUSH2 0xE41 JUMP JUMPDEST PUSH1 0x40 MLOAD PUSH2 0x2A4 SWAP2 SWAP1 PUSH2 0x1483 JUMP JUMPDEST PUSH1 0x40 MLOAD DUP1 SWAP2 SUB SWAP1 RETURN JUMPDEST PUSH2 0x2B5 PUSH2 0xE6B JUMP JUMPDEST PUSH1 0x40 MLOAD PUSH2 0x2C2 SWAP2 SWAP1 PUSH2 0x1883 JUMP JUMPDEST PUSH1 0x40 MLOAD DUP1 SWAP2 SUB SWAP1 RETURN JUMPDEST PUSH2 0x2E5 PUSH1 0x4 DUP1 CALLDATASIZE SUB DUP2 ADD SWAP1 PUSH2 0x2E0 SWAP2 SWAP1 PUSH2 0x1505 JUMP JUMPDEST PUSH2 0xF7A JUMP JUMPDEST PUSH1 0x40 MLOAD PUSH2 0x2F2 SWAP2 SWAP1 PUSH2 0x149C JUMP JUMPDEST PUSH1 0x40 MLOAD DUP1 SWAP2 SUB SWAP1 RETURN JUMPDEST PUSH2 0x303 PUSH2 0xFBF JUMP JUMPDEST PUSH1 0x40 MLOAD PUSH2 0x310 SWAP2 SWAP1 PUSH2 0x13CB JUMP JUMPDEST PUSH1 0x40 MLOAD DUP1 SWAP2 SUB SWAP1 RETURN JUMPDEST PUSH2 0x333 PUSH1 0x4 DUP1 CALLDATASIZE SUB DUP2 ADD SWAP1 PUSH2 0x32E SWAP2 SWAP1 PUSH2 0x1445 JUMP JUMPDEST PUSH2 0x104B JUMP JUMPDEST PUSH1 0x40 MLOAD PUSH2 0x340 SWAP2 SWAP1 PUSH2 0x1483 JUMP JUMPDEST PUSH1 0x40 MLOAD DUP1 SWAP2 SUB SWAP1 RETURN JUMPDEST PUSH2 0x351 PUSH2 0x1242 JUMP JUMPDEST PUSH1 0x40 MLOAD PUSH2 0x35E SWAP2 SWAP1 PUSH2 0x18B2 JUMP JUMPDEST PUSH1 0x40 MLOAD DUP1 SWAP2 SUB SWAP1 RETURN JUMPDEST PUSH2 0x381 PUSH1 0x4 DUP1 CALLDATASIZE SUB DUP2 ADD SWAP1 PUSH2 0x37C SWAP2 SWAP1 PUSH2 0x18CB JUMP JUMPDEST PUSH2 0x1267 JUMP JUMPDEST PUSH1 0x40 MLOAD PUSH2 0x38E SWAP2 SWAP1 PUSH2 0x149C JUMP JUMPDEST PUSH1 0x40 MLOAD DUP1 SWAP2 SUB SWAP1 RETURN JUMPDEST PUSH1 0x6 DUP1 SLOAD SWAP1 POP DUP2 LT PUSH2 0x3DE JUMPI PUSH1 0x40 MLOAD PUSH32 0x8C379A000000000000000000000000000000000000000000000000000000000 DUP2 MSTORE PUSH1 0x4 ADD PUSH2 0x3D5 SWAP1 PUSH2 0x1953 JUMP JUMPDEST PUSH1 0x40 MLOAD DUP1 SWAP2 SUB SWAP1 REVERT JUMPDEST PUSH1 0x7 PUSH0 DUP3 DUP2 MSTORE PUSH1 0x20 ADD SWAP1 DUP2 MSTORE PUSH1 0x20 ADD PUSH0 KECCAK256 PUSH0 CALLER PUSH20 0xFFFFFFFFFFFFFFFFFFFFFFFFFFFFFFFFFFFFFFFF AND PUSH20 0xFFFFFFFFFFFFFFFFFFFFFFFFFFFFFFFFFFFFFFFF AND DUP2 MSTORE PUSH1 0x20 ADD SWAP1 DUP2 MSTORE PUSH1 0x20 ADD PUSH0 KECCAK256 PUSH0 SWAP1 SLOAD SWAP1 PUSH2 0x100 EXP SWAP1 DIV PUSH1 0xFF AND ISZERO PUSH2 0x477 JUMPI PUSH1 0x40 MLOAD PUSH32 0x8C379A000000000000000000000000000000000000000000000000000000000 DUP2 MSTORE PUSH1 0x4 ADD PUSH2 0x46E SWAP1 PUSH2 0x19BB JUMP JUMPDEST PUSH1 0x40 MLOAD DUP1 SWAP2 SUB SWAP1 REVERT JUMPDEST PUSH0 PUSH2 0x481 CALLER PUSH2 0xF7A JUMP JUMPDEST GT PUSH2 0x4C1 JUMPI PUSH1 0x40 MLOAD PUSH32 0x8C379A000000000000000000000000000000000000000000000000000000000 DUP2 MSTORE PUSH1 0x4 ADD PUSH2 0x4B8 SWAP1 PUSH2 0x1A23 JUMP JUMPDEST PUSH1 0x40 MLOAD DUP1 SWAP2 SUB SWAP1 REVERT JUMPDEST PUSH2 0x4CA CALLER PUSH2 0xF7A JUMP JUMPDEST PUSH1 0x6 DUP3 DUP2 SLOAD DUP2 LT PUSH2 0x4DE JUMPI PUSH2 0x4DD PUSH2 0x1A41 JUMP JUMPDEST JUMPDEST SWAP1 PUSH0 MSTORE PUSH1 0x20 PUSH0 KECCAK256 SWAP1 PUSH1 0x3 MUL ADD PUSH1 0x1 ADD PUSH0 DUP3 DUP3 SLOAD PUSH2 0x4FB SWAP2 SWAP1 PUSH2 0x1A9B JUMP JUMPDEST SWAP3 POP POP DUP2 SWAP1 SSTORE POP PUSH1 0x1 PUSH1 0x7 PUSH0 DUP4 DUP2 MSTORE PUSH1 0x20 ADD SWAP1 DUP2 MSTORE PUSH1 0x20 ADD PUSH0 KECCAK256 PUSH0 CALLER PUSH20 0xFFFFFFFFFFFFFFFFFFFFFFFFFFFFFFFFFFFFFFFF AND PUSH20 0xFFFFFFFFFFFFFFFFFFFFFFFFFFFFFFFFFFFFFFFF AND DUP2 MSTORE PUSH1 0x20 ADD SWAP1 DUP2 MSTORE PUSH1 0x20 ADD PUSH0 KECCAK256 PUSH0 PUSH2 0x100 EXP DUP2 SLOAD DUP2 PUSH1 0xFF MUL NOT AND SWAP1 DUP4 ISZERO ISZERO MUL OR SWAP1 SSTORE POP PUSH32 0xD0E6C39F2E086DC49F1524B47725526A56945CD1FF661F37976F1725A1E56986 CALLER DUP3 PUSH1 0x40 MLOAD PUSH2 0x597 SWAP3 SWAP2 SWAP1 PUSH2 0x1ACE JUMP JUMPDEST PUSH1 0x40 MLOAD DUP1 SWAP2 SUB SWAP1 LOG1 POP JUMP JUMPDEST PUSH1 0x6 DUP2 DUP2 SLOAD DUP2 LT PUSH2 0x5B1 JUMPI PUSH0 DUP1 REVERT JUMPDEST SWAP1 PUSH0 MSTORE PUSH1 0x20 PUSH0 KECCAK256 SWAP1 PUSH1 0x3 MUL ADD PUSH0 SWAP2 POP SWAP1 POP DUP1 PUSH0 ADD DUP1 SLOAD PUSH2 0x5D0 SWAP1 PUSH2 0x1B22 JUMP JUMPDEST DUP1 PUSH1 0x1F ADD PUSH1 0x20 DUP1 SWAP2 DIV MUL PUSH1 0x20 ADD PUSH1 0x40 MLOAD SWAP1 DUP2 ADD PUSH1 0x40 MSTORE DUP1 SWAP3 SWAP2 SWAP1 DUP2 DUP2 MSTORE PUSH1 0x20 ADD DUP3 DUP1 SLOAD PUSH2 0x5FC SWAP1 PUSH2 0x1B22 JUMP JUMPDEST DUP1 ISZERO PUSH2 0x647 JUMPI DUP1 PUSH1 0x1F LT PUSH2 0x61E JUMPI PUSH2 0x100 DUP1 DUP4 SLOAD DIV MUL DUP4 MSTORE SWAP2 PUSH1 0x20 ADD SWAP2 PUSH2 0x647 JUMP JUMPDEST DUP3 ADD SWAP2 SWAP1 PUSH0 MSTORE PUSH1 0x20 PUSH0 KECCAK256 SWAP1 JUMPDEST DUP2 SLOAD DUP2 MSTORE SWAP1 PUSH1 0x1 ADD SWAP1 PUSH1 0x20 ADD DUP1 DUP4 GT PUSH2 0x62A JUMPI DUP3 SWAP1 SUB PUSH1 0x1F AND DUP3 ADD SWAP2 JUMPDEST POP POP POP POP POP SWAP1 DUP1 PUSH1 0x1 ADD SLOAD SWAP1 DUP1 PUSH1 0x2 ADD PUSH0 SWAP1 SLOAD SWAP1 PUSH2 0x100 EXP SWAP1 DIV PUSH1 0xFF AND SWAP1 POP DUP4 JUMP JUMPDEST PUSH1 0x3 DUP1 SLOAD PUSH2 0x676 SWAP1 PUSH2 0x1B22 JUMP JUMPDEST DUP1 PUSH1 0x1F ADD PUSH1 0x20 DUP1 SWAP2 DIV MUL PUSH1 0x20 ADD PUSH1 0x40 MLOAD SWAP1 DUP2 ADD PUSH1 0x40 MSTORE DUP1 SWAP3 SWAP2 SWAP1 DUP2 DUP2 MSTORE PUSH1 0x20 ADD DUP3 DUP1 SLOAD PUSH2 0x6A2 SWAP1 PUSH2 0x1B22 JUMP JUMPDEST DUP1 ISZERO PUSH2 0x6ED JUMPI DUP1 PUSH1 0x1F LT PUSH2 0x6C4 JUMPI PUSH2 0x100 DUP1 DUP4 SLOAD DIV MUL DUP4 MSTORE SWAP2 PUSH1 0x20 ADD SWAP2 PUSH2 0x6ED JUMP JUMPDEST DUP3 ADD SWAP2 SWAP1 PUSH0 MSTORE PUSH1 0x20 PUSH0 KECCAK256 SWAP1 JUMPDEST DUP2 SLOAD DUP2 MSTORE SWAP1 PUSH1 0x1 ADD SWAP1 PUSH1 0x20 ADD DUP1 DUP4 GT PUSH2 0x6D0 JUMPI DUP3 SWAP1 SUB PUSH1 0x1F AND DUP3 ADD SWAP2 JUMPDEST POP POP POP POP POP DUP2 JUMP JUMPDEST PUSH0 DUP2 PUSH1 0x1 PUSH0 CALLER PUSH20 0xFFFFFFFFFFFFFFFFFFFFFFFFFFFFFFFFFFFFFFFF AND PUSH20 0xFFFFFFFFFFFFFFFFFFFFFFFFFFFFFFFFFFFFFFFF AND DUP2 MSTORE PUSH1 0x20 ADD SWAP1 DUP2 MSTORE PUSH1 0x20 ADD PUSH0 KECCAK256 PUSH0 DUP6 PUSH20 0xFFFFFFFFFFFFFFFFFFFFFFFFFFFFFFFFFFFFFFFF AND PUSH20 0xFFFFFFFFFFFFFFFFFFFFFFFFFFFFFFFFFFFFFFFF AND DUP2 MSTORE PUSH1 0x20 ADD SWAP1 DUP2 MSTORE PUSH1 0x20 ADD PUSH0 KECCAK256 DUP2 SWAP1 SSTORE POP DUP3 PUSH20 0xFFFFFFFFFFFFFFFFFFFFFFFFFFFFFFFFFFFFFFFF AND CALLER PUSH20 0xFFFFFFFFFFFFFFFFFFFFFFFFFFFFFFFFFFFFFFFF AND PUSH32 0x8C5BE1E5EBEC7D5BD14F71427D1E84F3DD0314C0F7B2291E5B200AC8C7C3B925 DUP5 PUSH1 0x40 MLOAD PUSH2 0x7D0 SWAP2 SWAP1 PUSH2 0x149C JUMP JUMPDEST PUSH1 0x40 MLOAD DUP1 SWAP2 SUB SWAP1 LOG3 PUSH1 0x1 SWAP1 POP SWAP3 SWAP2 POP POP JUMP JUMPDEST PUSH1 0x8 PUSH0 SWAP1 SLOAD SWAP1 PUSH2 0x100 EXP SWAP1 DIV PUSH20 0xFFFFFFFFFFFFFFFFFFFFFFFFFFFFFFFFFFFFFFFF AND PUSH20 0xFFFFFFFFFFFFFFFFFFFFFFFFFFFFFFFFFFFFFFFF AND CALLER PUSH20 0xFFFFFFFFFFFFFFFFFFFFFFFFFFFFFFFFFFFFFFFF AND EQ PUSH2 0x871 JUMPI PUSH1 0x40 MLOAD PUSH32 0x8C379A000000000000000000000000000000000000000000000000000000000 DUP2 MSTORE PUSH1 0x4 ADD PUSH2 0x868 SWAP1 PUSH2 0x1BC2 JUMP JUMPDEST PUSH1 0x40 MLOAD DUP1 SWAP2 SUB SWAP1 REVERT JUMPDEST PUSH1 0x6 DUP1 SLOAD SWAP1 POP DUP2 LT PUSH2 0x8B8 JUMPI PUSH1 0x40 MLOAD PUSH32 0x8C379A000000000000000000000000000000000000000000000000000000000 DUP2 MSTORE PUSH1 0x4 ADD PUSH2 0x8AF SWAP1 PUSH2 0x1953 JUMP JUMPDEST PUSH1 0x40 MLOAD DUP1 SWAP2 SUB SWAP1 REVERT JUMPDEST PUSH1 0x6 DUP2 DUP2 SLOAD DUP2 LT PUSH2 0x8CC JUMPI PUSH2 0x8CB PUSH2 0x1A41 JUMP JUMPDEST JUMPDEST SWAP1 PUSH0 MSTORE PUSH1 0x20 PUSH0 KECCAK256 SWAP1 PUSH1 0x3 MUL ADD PUSH1 0x2 ADD PUSH0 SWAP1 SLOAD SWAP1 PUSH2 0x100 EXP SWAP1 DIV PUSH1 0xFF AND ISZERO PUSH2 0x928 JUMPI PUSH1 0x40 MLOAD PUSH32 0x8C379A000000000000000000000000000000000000000000000000000000000 DUP2 MSTORE PUSH1 0x4 ADD PUSH2 0x91F SWAP1 PUSH2 0x1C2A JUMP JUMPDEST PUSH1 0x40 MLOAD DUP1 SWAP2 SUB SWAP1 REVERT JUMPDEST PUSH1 0x1 PUSH1 0x6 DUP3 DUP2 SLOAD DUP2 LT PUSH2 0x93E JUMPI PUSH2 0x93D PUSH2 0x1A41 JUMP JUMPDEST JUMPDEST SWAP1 PUSH0 MSTORE PUSH1 0x20 PUSH0 KECCAK256 SWAP1 PUSH1 0x3 MUL ADD PUSH1 0x2 ADD PUSH0 PUSH2 0x100 EXP DUP2 SLOAD DUP2 PUSH1 0xFF MUL NOT AND SWAP1 DUP4 ISZERO ISZERO MUL OR SWAP1 SSTORE POP PUSH32 0x537137E7FC21556269DC66003FF063D7EE0CE98CF05AD2FEDDDA124690976E95 DUP2 PUSH1 0x6 DUP4 DUP2 SLOAD DUP2 LT PUSH2 0x999 JUMPI PUSH2 0x998 PUSH2 0x1A41 JUMP JUMPDEST JUMPDEST SWAP1 PUSH0 MSTORE PUSH1 0x20 PUSH0 KECCAK256 SWAP1 PUSH1 0x3 MUL ADD PUSH0 ADD PUSH1 0x40 MLOAD PUSH2 0x9B5 SWAP3 SWAP2 SWAP1 PUSH2 0x1CDB JUMP JUMPDEST PUSH1 0x40 MLOAD DUP1 SWAP2 SUB SWAP1 LOG1 POP JUMP JUMPDEST PUSH1 0x2 SLOAD DUP2 JUMP JUMPDEST PUSH0 DUP2 PUSH2 0x9D1 DUP6 PUSH2 0xF7A JUMP JUMPDEST LT ISZERO PUSH2 0xA12 JUMPI PUSH1 0x40 MLOAD PUSH32 0x8C379A000000000000000000000000000000000000000000000000000000000 DUP2 MSTORE PUSH1 0x4 ADD PUSH2 0xA09 SWAP1 PUSH2 0x1D53 JUMP JUMPDEST PUSH1 0x40 MLOAD DUP1 SWAP2 SUB SWAP1 REVERT JUMPDEST DUP2 PUSH1 0x1 PUSH0 DUP7 PUSH20 0xFFFFFFFFFFFFFFFFFFFFFFFFFFFFFFFFFFFFFFFF AND PUSH20 0xFFFFFFFFFFFFFFFFFFFFFFFFFFFFFFFFFFFFFFFF AND DUP2 MSTORE PUSH1 0x20 ADD SWAP1 DUP2 MSTORE PUSH1 0x20 ADD PUSH0 KECCAK256 PUSH0 CALLER PUSH20 0xFFFFFFFFFFFFFFFFFFFFFFFFFFFFFFFFFFFFFFFF AND PUSH20 0xFFFFFFFFFFFFFFFFFFFFFFFFFFFFFFFFFFFFFFFF AND DUP2 MSTORE PUSH1 0x20 ADD SWAP1 DUP2 MSTORE PUSH1 0x20 ADD PUSH0 KECCAK256 SLOAD LT ISZERO PUSH2 0xACD JUMPI PUSH1 0x40 MLOAD PUSH32 0x8C379A000000000000000000000000000000000000000000000000000000000 DUP2 MSTORE PUSH1 0x4 ADD PUSH2 0xAC4 SWAP1 PUSH2 0x1DBB JUMP JUMPDEST PUSH1 0x40 MLOAD DUP1 SWAP2 SUB SWAP1 REVERT JUMPDEST PUSH1 0xA PUSH1 0x2 SLOAD PUSH2 0xADC SWAP2 SWAP1 PUSH2 0x1E06 JUMP JUMPDEST DUP3 PUSH0 DUP1 DUP7 PUSH20 0xFFFFFFFFFFFFFFFFFFFFFFFFFFFFFFFFFFFFFFFF AND PUSH20 0xFFFFFFFFFFFFFFFFFFFFFFFFFFFFFFFFFFFFFFFF AND DUP2 MSTORE PUSH1 0x20 ADD SWAP1 DUP2 MSTORE PUSH1 0x20 ADD PUSH0 KECCAK256 SLOAD PUSH2 0xB24 SWAP2 SWAP1 PUSH2 0x1A9B JUMP JUMPDEST GT ISZERO PUSH2 0xB65 JUMPI PUSH1 0x40 MLOAD PUSH32 0x8C379A000000000000000000000000000000000000000000000000000000000 DUP2 MSTORE PUSH1 0x4 ADD PUSH2 0xB5C SWAP1 PUSH2 0x1E80 JUMP JUMPDEST PUSH1 0x40 MLOAD DUP1 SWAP2 SUB SWAP1 REVERT JUMPDEST DUP2 PUSH1 0x1 PUSH0 DUP7 PUSH20 0xFFFFFFFFFFFFFFFFFFFFFFFFFFFFFFFFFFFFFFFF AND PUSH20 0xFFFFFFFFFFFFFFFFFFFFFFFFFFFFFFFFFFFFFFFF AND DUP2 MSTORE PUSH1 0x20 ADD SWAP1 DUP2 MSTORE PUSH1 0x20 ADD PUSH0 KECCAK256 PUSH0 CALLER PUSH20 0xFFFFFFFFFFFFFFFFFFFFFFFFFFFFFFFFFFFFFFFF AND PUSH20 0xFFFFFFFFFFFFFFFFFFFFFFFFFFFFFFFFFFFFFFFF AND DUP2 MSTORE PUSH1 0x20 ADD SWAP1 DUP2 MSTORE PUSH1 0x20 ADD PUSH0 KECCAK256 PUSH0 DUP3 DUP3 SLOAD PUSH2 0xBEC SWAP2 SWAP1 PUSH2 0x1E9E JUMP JUMPDEST SWAP3 POP POP DUP2 SWAP1 SSTORE POP DUP2 PUSH0 DUP1 DUP6 PUSH20 0xFFFFFFFFFFFFFFFFFFFFFFFFFFFFFFFFFFFFFFFF AND PUSH20 0xFFFFFFFFFFFFFFFFFFFFFFFFFFFFFFFFFFFFFFFF AND DUP2 MSTORE PUSH1 0x20 ADD SWAP1 DUP2 MSTORE PUSH1 0x20 ADD PUSH0 KECCAK256 PUSH0 DUP3 DUP3 SLOAD PUSH2 0xC3E SWAP2 SWAP1 PUSH2 0x1A9B JUMP JUMPDEST SWAP3 POP POP DUP2 SWAP1 SSTORE POP DUP2 PUSH0 DUP1 DUP7 PUSH20 0xFFFFFFFFFFFFFFFFFFFFFFFFFFFFFFFFFFFFFFFF AND PUSH20 0xFFFFFFFFFFFFFFFFFFFFFFFFFFFFFFFFFFFFFFFF AND DUP2 MSTORE PUSH1 0x20 ADD SWAP1 DUP2 MSTORE PUSH1 0x20 ADD PUSH0 KECCAK256 PUSH0 DUP3 DUP3 SLOAD PUSH2 0xC90 SWAP2 SWAP1 PUSH2 0x1E9E JUMP JUMPDEST SWAP3 POP POP DUP2 SWAP1 SSTORE POP DUP3 PUSH20 0xFFFFFFFFFFFFFFFFFFFFFFFFFFFFFFFFFFFFFFFF AND DUP5 PUSH20 0xFFFFFFFFFFFFFFFFFFFFFFFFFFFFFFFFFFFFFFFF AND PUSH32 0xDDF252AD1BE2C89B69C2B068FC378DAA952BA7F163C4A11628F55A4DF523B3EF DUP5 PUSH1 0x40 MLOAD PUSH2 0xCF4 SWAP2 SWAP1 PUSH2 0x149C JUMP JUMPDEST PUSH1 0x40 MLOAD DUP1 SWAP2 SUB SWAP1 LOG3 PUSH1 0x1 SWAP1 POP SWAP4 SWAP3 POP POP POP JUMP JUMPDEST PUSH0 PUSH1 0x20 MSTORE DUP1 PUSH0 MSTORE PUSH1 0x40 PUSH0 KECCAK256 PUSH0 SWAP2 POP SWAP1 POP SLOAD DUP2 JUMP JUMPDEST PUSH1 0x5 PUSH0 SWAP1 SLOAD SWAP1 PUSH2 0x100 EXP SWAP1 DIV PUSH1 0xFF AND DUP2 JUMP JUMPDEST PUSH0 DUP2 MLOAD GT PUSH2 0xD70 JUMPI PUSH1 0x40 MLOAD PUSH32 0x8C379A000000000000000000000000000000000000000000000000000000000 DUP2 MSTORE PUSH1 0x4 ADD PUSH2 0xD67 SWAP1 PUSH2 0x1F1B JUMP JUMPDEST PUSH1 0x40 MLOAD DUP1 SWAP2 SUB SWAP1 REVERT JUMPDEST PUSH1 0x6 PUSH1 0x40 MLOAD DUP1 PUSH1 0x60 ADD PUSH1 0x40 MSTORE DUP1 DUP4 DUP2 MSTORE PUSH1 0x20 ADD PUSH0 DUP2 MSTORE PUSH1 0x20 ADD PUSH0 ISZERO ISZERO DUP2 MSTORE POP SWAP1 DUP1 PUSH1 0x1 DUP2 SLOAD ADD DUP1 DUP3 SSTORE DUP1 SWAP2 POP POP PUSH1 0x1 SWAP1 SUB SWAP1 PUSH0 MSTORE PUSH1 0x20 PUSH0 KECCAK256 SWAP1 PUSH1 0x3 MUL ADD PUSH0 SWAP1 SWAP2 SWAP1 SWAP2 SWAP1 SWAP2 POP PUSH0 DUP3 ADD MLOAD DUP2 PUSH0 ADD SWAP1 DUP2 PUSH2 0xDC8 SWAP2 SWAP1 PUSH2 0x20C4 JUMP JUMPDEST POP PUSH1 0x20 DUP3 ADD MLOAD DUP2 PUSH1 0x1 ADD SSTORE PUSH1 0x40 DUP3 ADD MLOAD DUP2 PUSH1 0x2 ADD PUSH0 PUSH2 0x100 EXP DUP2 SLOAD DUP2 PUSH1 0xFF MUL NOT AND SWAP1 DUP4 ISZERO ISZERO MUL OR SWAP1 SSTORE POP POP POP PUSH32 0x9C770C289AB5BF7E57CB1D23C8CEAE993AEA46EB64847072FD3D78CA60D3E432 PUSH1 0x1 PUSH1 0x6 DUP1 SLOAD SWAP1 POP PUSH2 0xE27 SWAP2 SWAP1 PUSH2 0x1E9E JUMP JUMPDEST DUP3 PUSH1 0x40 MLOAD PUSH2 0xE36 SWAP3 SWAP2 SWAP1 PUSH2 0x2193 JUMP JUMPDEST PUSH1 0x40 MLOAD DUP1 SWAP2 SUB SWAP1 LOG1 POP JUMP JUMPDEST PUSH1 0x7 PUSH1 0x20 MSTORE DUP2 PUSH0 MSTORE PUSH1 0x40 PUSH0 KECCAK256 PUSH1 0x20 MSTORE DUP1 PUSH0 MSTORE PUSH1 0x40 PUSH0 KECCAK256 PUSH0 SWAP2 POP SWAP2 POP SWAP1 SLOAD SWAP1 PUSH2 0x100 EXP SWAP1 DIV PUSH1 0xFF AND DUP2 JUMP JUMPDEST PUSH1 0x60 PUSH1 0x6 DUP1 SLOAD DUP1 PUSH1 0x20 MUL PUSH1 0x20 ADD PUSH1 0x40 MLOAD SWAP1 DUP2 ADD PUSH1 0x40 MSTORE DUP1 SWAP3 SWAP2 SWAP1 DUP2 DUP2 MSTORE PUSH1 0x20 ADD PUSH0 SWAP1 JUMPDEST DUP3 DUP3 LT ISZERO PUSH2 0xF71 JUMPI DUP4 DUP3 SWAP1 PUSH0 MSTORE PUSH1 0x20 PUSH0 KECCAK256 SWAP1 PUSH1 0x3 MUL ADD PUSH1 0x40 MLOAD DUP1 PUSH1 0x60 ADD PUSH1 0x40 MSTORE SWAP1 DUP2 PUSH0 DUP3 ADD DUP1 SLOAD PUSH2 0xEBE SWAP1 PUSH2 0x1B22 JUMP JUMPDEST DUP1 PUSH1 0x1F ADD PUSH1 0x20 DUP1 SWAP2 DIV MUL PUSH1 0x20 ADD PUSH1 0x40 MLOAD SWAP1 DUP2 ADD PUSH1 0x40 MSTORE DUP1 SWAP3 SWAP2 SWAP1 DUP2 DUP2 MSTORE PUSH1 0x20 ADD DUP3 DUP1 SLOAD PUSH2 0xEEA SWAP1 PUSH2 0x1B22 JUMP JUMPDEST DUP1 ISZERO PUSH2 0xF35 JUMPI DUP1 PUSH1 0x1F LT PUSH2 0xF0C JUMPI PUSH2 0x100 DUP1 DUP4 SLOAD DIV MUL DUP4 MSTORE SWAP2 PUSH1 0x20 ADD SWAP2 PUSH2 0xF35 JUMP JUMPDEST DUP3 ADD SWAP2 SWAP1 PUSH0 MSTORE PUSH1 0x20 PUSH0 KECCAK256 SWAP1 JUMPDEST DUP2 SLOAD DUP2 MSTORE SWAP1 PUSH1 0x1 ADD SWAP1 PUSH1 0x20 ADD DUP1 DUP4 GT PUSH2 0xF18 JUMPI DUP3 SWAP1 SUB PUSH1 0x1F AND DUP3 ADD SWAP2 JUMPDEST POP POP POP POP POP DUP2 MSTORE PUSH1 0x20 ADD PUSH1 0x1 DUP3 ADD SLOAD DUP2 MSTORE PUSH1 0x20 ADD PUSH1 0x2 DUP3 ADD PUSH0 SWAP1 SLOAD SWAP1 PUSH2 0x100 EXP SWAP1 DIV PUSH1 0xFF AND ISZERO ISZERO ISZERO ISZERO DUP2 MSTORE POP POP DUP2 MSTORE PUSH1 0x20 ADD SWAP1 PUSH1 0x1 ADD SWAP1 PUSH2 0xE8E JUMP JUMPDEST POP POP POP POP SWAP1 POP SWAP1 JUMP JUMPDEST PUSH0 DUP1 PUSH0 DUP4 PUSH20 0xFFFFFFFFFFFFFFFFFFFFFFFFFFFFFFFFFFFFFFFF AND PUSH20 0xFFFFFFFFFFFFFFFFFFFFFFFFFFFFFFFFFFFFFFFF AND DUP2 MSTORE PUSH1 0x20 ADD SWAP1 DUP2 MSTORE PUSH1 0x20 ADD PUSH0 KECCAK256 SLOAD SWAP1 POP SWAP2 SWAP1 POP JUMP JUMPDEST PUSH1 0x4 DUP1 SLOAD PUSH2 0xFCC SWAP1 PUSH2 0x1B22 JUMP JUMPDEST DUP1 PUSH1 0x1F ADD PUSH1 0x20 DUP1 SWAP2 DIV MUL PUSH1 0x20 ADD PUSH1 0x40 MLOAD SWAP1 DUP2 ADD PUSH1 0x40 MSTORE DUP1 SWAP3 SWAP2 SWAP1 DUP2 DUP2 MSTORE PUSH1 0x20 ADD DUP3 DUP1 SLOAD PUSH2 0xFF8 SWAP1 PUSH2 0x1B22 JUMP JUMPDEST DUP1 ISZERO PUSH2 0x1043 JUMPI DUP1 PUSH1 0x1F LT PUSH2 0x101A JUMPI PUSH2 0x100 DUP1 DUP4 SLOAD DIV MUL DUP4 MSTORE SWAP2 PUSH1 0x20 ADD SWAP2 PUSH2 0x1043 JUMP JUMPDEST DUP3 ADD SWAP2 SWAP1 PUSH0 MSTORE PUSH1 0x20 PUSH0 KECCAK256 SWAP1 JUMPDEST DUP2 SLOAD DUP2 MSTORE SWAP1 PUSH1 0x1 ADD SWAP1 PUSH1 0x20 ADD DUP1 DUP4 GT PUSH2 0x1026 JUMPI DUP3 SWAP1 SUB PUSH1 0x1F AND DUP3 ADD SWAP2 JUMPDEST POP POP POP POP POP DUP2 JUMP JUMPDEST PUSH0 DUP2 PUSH2 0x1056 CALLER PUSH2 0xF7A JUMP JUMPDEST LT ISZERO PUSH2 0x1097 JUMPI PUSH1 0x40 MLOAD PUSH32 0x8C379A000000000000000000000000000000000000000000000000000000000 DUP2 MSTORE PUSH1 0x4 ADD PUSH2 0x108E SWAP1 PUSH2 0x1D53 JUMP JUMPDEST PUSH1 0x40 MLOAD DUP1 SWAP2 SUB SWAP1 REVERT JUMPDEST PUSH1 0xA PUSH1 0x2 SLOAD PUSH2 0x10A6 SWAP2 SWAP1 PUSH2 0x1E06 JUMP JUMPDEST DUP3 PUSH0 DUP1 DUP7 PUSH20 0xFFFFFFFFFFFFFFFFFFFFFFFFFFFFFFFFFFFFFFFF AND PUSH20 0xFFFFFFFFFFFFFFFFFFFFFFFFFFFFFFFFFFFFFFFF AND DUP2 MSTORE PUSH1 0x20 ADD SWAP1 DUP2 MSTORE PUSH1 0x20 ADD PUSH0 KECCAK256 SLOAD PUSH2 0x10EE SWAP2 SWAP1 PUSH2 0x1A9B JUMP JUMPDEST GT ISZERO PUSH2 0x112F JUMPI PUSH1 0x40 MLOAD PUSH32 0x8C379A000000000000000000000000000000000000000000000000000000000 DUP2 MSTORE PUSH1 0x4 ADD PUSH2 0x1126 SWAP1 PUSH2 0x1E80 JUMP JUMPDEST PUSH1 0x40 MLOAD DUP1 SWAP2 SUB SWAP1 REVERT JUMPDEST DUP2 PUSH0 DUP1 DUP6 PUSH20 0xFFFFFFFFFFFFFFFFFFFFFFFFFFFFFFFFFFFFFFFF AND PUSH20 0xFFFFFFFFFFFFFFFFFFFFFFFFFFFFFFFFFFFFFFFF AND DUP2 MSTORE PUSH1 0x20 ADD SWAP1 DUP2 MSTORE PUSH1 0x20 ADD PUSH0 KECCAK256 PUSH0 DUP3 DUP3 SLOAD PUSH2 0x117A SWAP2 SWAP1 PUSH2 0x1A9B JUMP JUMPDEST SWAP3 POP POP DUP2 SWAP1 SSTORE POP DUP2 PUSH0 DUP1 CALLER PUSH20 0xFFFFFFFFFFFFFFFFFFFFFFFFFFFFFFFFFFFFFFFF AND PUSH20 0xFFFFFFFFFFFFFFFFFFFFFFFFFFFFFFFFFFFFFFFF AND DUP2 MSTORE PUSH1 0x20 ADD SWAP1 DUP2 MSTORE PUSH1 0x20 ADD PUSH0 KECCAK256 PUSH0 DUP3 DUP3 SLOAD PUSH2 0x11CC SWAP2 SWAP1 PUSH2 0x1E9E JUMP JUMPDEST SWAP3 POP POP DUP2 SWAP1 SSTORE POP DUP3 PUSH20 0xFFFFFFFFFFFFFFFFFFFFFFFFFFFFFFFFFFFFFFFF AND CALLER PUSH20 0xFFFFFFFFFFFFFFFFFFFFFFFFFFFFFFFFFFFFFFFF AND PUSH32 0xDDF252AD1BE2C89B69C2B068FC378DAA952BA7F163C4A11628F55A4DF523B3EF DUP5 PUSH1 0x40 MLOAD PUSH2 0x1230 SWAP2 SWAP1 PUSH2 0x149C JUMP JUMPDEST PUSH1 0x40 MLOAD DUP1 SWAP2 SUB SWAP1 LOG3 PUSH1 0x1 SWAP1 POP SWAP3 SWAP2 POP POP JUMP JUMPDEST PUSH1 0x8 PUSH0 SWAP1 SLOAD SWAP1 PUSH2 0x100 EXP SWAP1 DIV PUSH20 0xFFFFFFFFFFFFFFFFFFFFFFFFFFFFFFFFFFFFFFFF AND DUP2 JUMP JUMPDEST PUSH1 0x1 PUSH1 0x20 MSTORE DUP2 PUSH0 MSTORE PUSH1 0x40 PUSH0 KECCAK256 PUSH1 0x20 MSTORE DUP1 PUSH0 MSTORE PUSH1 0x40 PUSH0 KECCAK256 PUSH0 SWAP2 POP SWAP2 POP POP SLOAD DUP2 JUMP JUMPDEST PUSH0 PUSH1 0x40 MLOAD SWAP1 POP SWAP1 JUMP JUMPDEST PUSH0 DUP1 REVERT JUMPDEST PUSH0 DUP1 REVERT JUMPDEST PUSH0 DUP2 SWAP1 POP SWAP2 SWAP1 POP JUMP JUMPDEST PUSH2 0x12AA DUP2 PUSH2 0x1298 JUMP JUMPDEST DUP2 EQ PUSH2 0x12B4 JUMPI PUSH0 DUP1 REVERT JUMPDEST POP JUMP JUMPDEST PUSH0 DUP2 CALLDATALOAD SWAP1 POP PUSH2 0x12C5 DUP2 PUSH2 0x12A1 JUMP JUMPDEST SWAP3 SWAP2 POP POP JUMP JUMPDEST PUSH0 PUSH1 0x20 DUP3 DUP5 SUB SLT ISZERO PUSH2 0x12E0 JUMPI PUSH2 0x12DF PUSH2 0x1290 JUMP JUMPDEST JUMPDEST PUSH0 PUSH2 0x12ED DUP5 DUP3 DUP6 ADD PUSH2 0x12B7 JUMP JUMPDEST SWAP2 POP POP SWAP3 SWAP2 POP POP JUMP JUMPDEST PUSH0 DUP2 MLOAD SWAP1 POP SWAP2 SWAP1 POP JUMP JUMPDEST PUSH0 DUP3 DUP3 MSTORE PUSH1 0x20 DUP3 ADD SWAP1 POP SWAP3 SWAP2 POP POP JUMP JUMPDEST DUP3 DUP2 DUP4 MCOPY PUSH0 DUP4 DUP4 ADD MSTORE POP POP POP JUMP JUMPDEST PUSH0 PUSH1 0x1F NOT PUSH1 0x1F DUP4 ADD AND SWAP1 POP SWAP2 SWAP1 POP JUMP JUMPDEST PUSH0 PUSH2 0x1338 DUP3 PUSH2 0x12F6 JUMP JUMPDEST PUSH2 0x1342 DUP2 DUP6 PUSH2 0x1300 JUMP JUMPDEST SWAP4 POP PUSH2 0x1352 DUP2 DUP6 PUSH1 0x20 DUP7 ADD PUSH2 0x1310 JUMP JUMPDEST PUSH2 0x135B DUP2 PUSH2 0x131E JUMP JUMPDEST DUP5 ADD SWAP2 POP POP SWAP3 SWAP2 POP POP JUMP JUMPDEST PUSH2 0x136F DUP2 PUSH2 0x1298 JUMP JUMPDEST DUP3 MSTORE POP POP JUMP JUMPDEST PUSH0 DUP2 ISZERO ISZERO SWAP1 POP SWAP2 SWAP1 POP JUMP JUMPDEST PUSH2 0x1389 DUP2 PUSH2 0x1375 JUMP JUMPDEST DUP3 MSTORE POP POP JUMP JUMPDEST PUSH0 PUSH1 0x60 DUP3 ADD SWAP1 POP DUP2 DUP2 SUB PUSH0 DUP4 ADD MSTORE PUSH2 0x13A7 DUP2 DUP7 PUSH2 0x132E JUMP JUMPDEST SWAP1 POP PUSH2 0x13B6 PUSH1 0x20 DUP4 ADD DUP6 PUSH2 0x1366 JUMP JUMPDEST PUSH2 0x13C3 PUSH1 0x40 DUP4 ADD DUP5 PUSH2 0x1380 JUMP JUMPDEST SWAP5 SWAP4 POP POP POP POP JUMP JUMPDEST PUSH0 PUSH1 0x20 DUP3 ADD SWAP1 POP DUP2 DUP2 SUB PUSH0 DUP4 ADD MSTORE PUSH2 0x13E3 DUP2 DUP5 PUSH2 0x132E JUMP JUMPDEST SWAP1 POP SWAP3 SWAP2 POP POP JUMP JUMPDEST PUSH0 PUSH20 0xFFFFFFFFFFFFFFFFFFFFFFFFFFFFFFFFFFFFFFFF DUP3 AND SWAP1 POP SWAP2 SWAP1 POP JUMP JUMPDEST PUSH0 PUSH2 0x1414 DUP3 PUSH2 0x13EB JUMP JUMPDEST SWAP1 POP SWAP2 SWAP1 POP JUMP JUMPDEST PUSH2 0x1424 DUP2 PUSH2 0x140A JUMP JUMPDEST DUP2 EQ PUSH2 0x142E JUMPI PUSH0 DUP1 REVERT JUMPDEST POP JUMP JUMPDEST PUSH0 DUP2 CALLDATALOAD SWAP1 POP PUSH2 0x143F DUP2 PUSH2 0x141B JUMP JUMPDEST SWAP3 SWAP2 POP POP JUMP JUMPDEST PUSH0 DUP1 PUSH1 0x40 DUP4 DUP6 SUB SLT ISZERO PUSH2 0x145B JUMPI PUSH2 0x145A PUSH2 0x1290 JUMP JUMPDEST JUMPDEST PUSH0 PUSH2 0x1468 DUP6 DUP3 DUP7 ADD PUSH2 0x1431 JUMP JUMPDEST SWAP3 POP POP PUSH1 0x20 PUSH2 0x1479 DUP6 DUP3 DUP7 ADD PUSH2 0x12B7 JUMP JUMPDEST SWAP2 POP POP SWAP3 POP SWAP3 SWAP1 POP JUMP JUMPDEST PUSH0 PUSH1 0x20 DUP3 ADD SWAP1 POP PUSH2 0x1496 PUSH0 DUP4 ADD DUP5 PUSH2 0x1380 JUMP JUMPDEST SWAP3 SWAP2 POP POP JUMP JUMPDEST PUSH0 PUSH1 0x20 DUP3 ADD SWAP1 POP PUSH2 0x14AF PUSH0 DUP4 ADD DUP5 PUSH2 0x1366 JUMP JUMPDEST SWAP3 SWAP2 POP POP JUMP JUMPDEST PUSH0 DUP1 PUSH0 PUSH1 0x60 DUP5 DUP7 SUB SLT ISZERO PUSH2 0x14CC JUMPI PUSH2 0x14CB PUSH2 0x1290 JUMP JUMPDEST JUMPDEST PUSH0 PUSH2 0x14D9 DUP7 DUP3 DUP8 ADD PUSH2 0x1431 JUMP JUMPDEST SWAP4 POP POP PUSH1 0x20 PUSH2 0x14EA DUP7 DUP3 DUP8 ADD PUSH2 0x1431 JUMP JUMPDEST SWAP3 POP POP PUSH1 0x40 PUSH2 0x14FB DUP7 DUP3 DUP8 ADD PUSH2 0x12B7 JUMP JUMPDEST SWAP2 POP POP SWAP3 POP SWAP3 POP SWAP3 JUMP JUMPDEST PUSH0 PUSH1 0x20 DUP3 DUP5 SUB SLT ISZERO PUSH2 0x151A JUMPI PUSH2 0x1519 PUSH2 0x1290 JUMP JUMPDEST JUMPDEST PUSH0 PUSH2 0x1527 DUP5 DUP3 DUP6 ADD PUSH2 0x1431 JUMP JUMPDEST SWAP2 POP POP SWAP3 SWAP2 POP POP JUMP JUMPDEST PUSH0 PUSH1 0xFF DUP3 AND SWAP1 POP SWAP2 SWAP1 POP JUMP JUMPDEST PUSH2 0x1545 DUP2 PUSH2 0x1530 JUMP JUMPDEST DUP3 MSTORE POP POP JUMP JUMPDEST PUSH0 PUSH1 0x20 DUP3 ADD SWAP1 POP PUSH2 0x155E PUSH0 DUP4 ADD DUP5 PUSH2 0x153C JUMP JUMPDEST SWAP3 SWAP2 POP POP JUMP JUMPDEST PUSH0 DUP1 REVERT JUMPDEST PUSH0 DUP1 REVERT JUMPDEST PUSH32 0x4E487B7100000000000000000000000000000000000000000000000000000000 PUSH0 MSTORE PUSH1 0x41 PUSH1 0x4 MSTORE PUSH1 0x24 PUSH0 REVERT JUMPDEST PUSH2 0x15A2 DUP3 PUSH2 0x131E JUMP JUMPDEST DUP2 ADD DUP2 DUP2 LT PUSH8 0xFFFFFFFFFFFFFFFF DUP3 GT OR ISZERO PUSH2 0x15C1 JUMPI PUSH2 0x15C0 PUSH2 0x156C JUMP JUMPDEST JUMPDEST DUP1 PUSH1 0x40 MSTORE POP POP POP JUMP JUMPDEST PUSH0 PUSH2 0x15D3 PUSH2 0x1287 JUMP JUMPDEST SWAP1 POP PUSH2 0x15DF DUP3 DUP3 PUSH2 0x1599 JUMP JUMPDEST SWAP2 SWAP1 POP JUMP JUMPDEST PUSH0 PUSH8 0xFFFFFFFFFFFFFFFF DUP3 GT ISZERO PUSH2 0x15FE JUMPI PUSH2 0x15FD PUSH2 0x156C JUMP JUMPDEST JUMPDEST PUSH2 0x1607 DUP3 PUSH2 0x131E JUMP JUMPDEST SWAP1 POP PUSH1 0x20 DUP2 ADD SWAP1 POP SWAP2 SWAP1 POP JUMP JUMPDEST DUP3 DUP2 DUP4 CALLDATACOPY PUSH0 DUP4 DUP4 ADD MSTORE POP POP POP JUMP JUMPDEST PUSH0 PUSH2 0x1634 PUSH2 0x162F DUP5 PUSH2 0x15E4 JUMP JUMPDEST PUSH2 0x15CA JUMP JUMPDEST SWAP1 POP DUP3 DUP2 MSTORE PUSH1 0x20 DUP2 ADD DUP5 DUP5 DUP5 ADD GT ISZERO PUSH2 0x1650 JUMPI PUSH2 0x164F PUSH2 0x1568 JUMP JUMPDEST JUMPDEST PUSH2 0x165B DUP5 DUP3 DUP6 PUSH2 0x1614 JUMP JUMPDEST POP SWAP4 SWAP3 POP POP POP JUMP JUMPDEST PUSH0 DUP3 PUSH1 0x1F DUP4 ADD SLT PUSH2 0x1677 JUMPI PUSH2 0x1676 PUSH2 0x1564 JUMP JUMPDEST JUMPDEST DUP2 CALLDATALOAD PUSH2 0x1687 DUP5 DUP3 PUSH1 0x20 DUP7 ADD PUSH2 0x1622 JUMP JUMPDEST SWAP2 POP POP SWAP3 SWAP2 POP POP JUMP JUMPDEST PUSH0 PUSH1 0x20 DUP3 DUP5 SUB SLT ISZERO PUSH2 0x16A5 JUMPI PUSH2 0x16A4 PUSH2 0x1290 JUMP JUMPDEST JUMPDEST PUSH0 DUP3 ADD CALLDATALOAD PUSH8 0xFFFFFFFFFFFFFFFF DUP2 GT ISZERO PUSH2 0x16C2 JUMPI PUSH2 0x16C1 PUSH2 0x1294 JUMP JUMPDEST JUMPDEST PUSH2 0x16CE DUP5 DUP3 DUP6 ADD PUSH2 0x1663 JUMP JUMPDEST SWAP2 POP POP SWAP3 SWAP2 POP POP JUMP JUMPDEST PUSH0 DUP1 PUSH1 0x40 DUP4 DUP6 SUB SLT ISZERO PUSH2 0x16ED JUMPI PUSH2 0x16EC PUSH2 0x1290 JUMP JUMPDEST JUMPDEST PUSH0 PUSH2 0x16FA DUP6 DUP3 DUP7 ADD PUSH2 0x12B7 JUMP JUMPDEST SWAP3 POP POP PUSH1 0x20 PUSH2 0x170B DUP6 DUP3 DUP7 ADD PUSH2 0x1431 JUMP JUMPDEST SWAP2 POP POP SWAP3 POP SWAP3 SWAP1 POP JUMP JUMPDEST PUSH0 DUP2 MLOAD SWAP1 POP SWAP2 SWAP1 POP JUMP JUMPDEST PUSH0 DUP3 DUP3 MSTORE PUSH1 0x20 DUP3 ADD SWAP1 POP SWAP3 SWAP2 POP POP JUMP JUMPDEST PUSH0 DUP2 SWAP1 POP PUSH1 0x20 DUP3 ADD SWAP1 POP SWAP2 SWAP1 POP JUMP JUMPDEST PUSH0 DUP3 DUP3 MSTORE PUSH1 0x20 DUP3 ADD SWAP1 POP SWAP3 SWAP2 POP POP JUMP JUMPDEST PUSH0 PUSH2 0x1758 DUP3 PUSH2 0x12F6 JUMP JUMPDEST PUSH2 0x1762 DUP2 DUP6 PUSH2 0x173E JUMP JUMPDEST SWAP4 POP PUSH2 0x1772 DUP2 DUP6 PUSH1 0x20 DUP7 ADD PUSH2 0x1310 JUMP JUMPDEST PUSH2 0x177B DUP2 PUSH2 0x131E JUMP JUMPDEST DUP5 ADD SWAP2 POP POP SWAP3 SWAP2 POP POP JUMP JUMPDEST PUSH2 0x178F DUP2 PUSH2 0x1298 JUMP JUMPDEST DUP3 MSTORE POP POP JUMP JUMPDEST PUSH2 0x179E DUP2 PUSH2 0x1375 JUMP JUMPDEST DUP3 MSTORE POP POP JUMP JUMPDEST PUSH0 PUSH1 0x60 DUP4 ADD PUSH0 DUP4 ADD MLOAD DUP5 DUP3 SUB PUSH0 DUP7 ADD MSTORE PUSH2 0x17BE DUP3 DUP3 PUSH2 0x174E JUMP JUMPDEST SWAP2 POP POP PUSH1 0x20 DUP4 ADD MLOAD PUSH2 0x17D3 PUSH1 0x20 DUP7 ADD DUP3 PUSH2 0x1786 JUMP JUMPDEST POP PUSH1 0x40 DUP4 ADD MLOAD PUSH2 0x17E6 PUSH1 0x40 DUP7 ADD DUP3 PUSH2 0x1795 JUMP JUMPDEST POP DUP1 SWAP2 POP POP SWAP3 SWAP2 POP POP JUMP JUMPDEST PUSH0 PUSH2 0x17FC DUP4 DUP4 PUSH2 0x17A4 JUMP JUMPDEST SWAP1 POP SWAP3 SWAP2 POP POP JUMP JUMPDEST PUSH0 PUSH1 0x20 DUP3 ADD SWAP1 POP SWAP2 SWAP1 POP JUMP JUMPDEST PUSH0 PUSH2 0x181A DUP3 PUSH2 0x1715 JUMP JUMPDEST PUSH2 0x1824 DUP2 DUP6 PUSH2 0x171F JUMP JUMPDEST SWAP4 POP DUP4 PUSH1 0x20 DUP3 MUL DUP6 ADD PUSH2 0x1836 DUP6 PUSH2 0x172F JUMP JUMPDEST DUP1 PUSH0 JUMPDEST DUP6 DUP2 LT ISZERO PUSH2 0x1871 JUMPI DUP5 DUP5 SUB DUP10 MSTORE DUP2 MLOAD PUSH2 0x1852 DUP6 DUP3 PUSH2 0x17F1 JUMP JUMPDEST SWAP5 POP PUSH2 0x185D DUP4 PUSH2 0x1804 JUMP JUMPDEST SWAP3 POP PUSH1 0x20 DUP11 ADD SWAP10 POP POP PUSH1 0x1 DUP2 ADD SWAP1 POP PUSH2 0x1839 JUMP JUMPDEST POP DUP3 SWAP8 POP DUP8 SWAP6 POP POP POP POP POP POP SWAP3 SWAP2 POP POP JUMP JUMPDEST PUSH0 PUSH1 0x20 DUP3 ADD SWAP1 POP DUP2 DUP2 SUB PUSH0 DUP4 ADD MSTORE PUSH2 0x189B DUP2 DUP5 PUSH2 0x1810 JUMP JUMPDEST SWAP1 POP SWAP3 SWAP2 POP POP JUMP JUMPDEST PUSH2 0x18AC DUP2 PUSH2 0x140A JUMP JUMPDEST DUP3 MSTORE POP POP JUMP JUMPDEST PUSH0 PUSH1 0x20 DUP3 ADD SWAP1 POP PUSH2 0x18C5 PUSH0 DUP4 ADD DUP5 PUSH2 0x18A3 JUMP JUMPDEST SWAP3 SWAP2 POP POP JUMP JUMPDEST PUSH0 DUP1 PUSH1 0x40 DUP4 DUP6 SUB SLT ISZERO PUSH2 0x18E1 JUMPI PUSH2 0x18E0 PUSH2 0x1290 JUMP JUMPDEST JUMPDEST PUSH0 PUSH2 0x18EE DUP6 DUP3 DUP7 ADD PUSH2 0x1431 JUMP JUMPDEST SWAP3 POP POP PUSH1 0x20 PUSH2 0x18FF DUP6 DUP3 DUP7 ADD PUSH2 0x1431 JUMP JUMPDEST SWAP2 POP POP SWAP3 POP SWAP3 SWAP1 POP JUMP JUMPDEST PUSH32 0x496E76616C69642070726F706F73616C20494400000000000000000000000000 PUSH0 DUP3 ADD MSTORE POP JUMP JUMPDEST PUSH0 PUSH2 0x193D PUSH1 0x13 DUP4 PUSH2 0x1300 JUMP JUMPDEST SWAP2 POP PUSH2 0x1948 DUP3 PUSH2 0x1909 JUMP JUMPDEST PUSH1 0x20 DUP3 ADD SWAP1 POP SWAP2 SWAP1 POP JUMP JUMPDEST PUSH0 PUSH1 0x20 DUP3 ADD SWAP1 POP DUP2 DUP2 SUB PUSH0 DUP4 ADD MSTORE PUSH2 0x196A DUP2 PUSH2 0x1931 JUMP JUMPDEST SWAP1 POP SWAP2 SWAP1 POP JUMP JUMPDEST PUSH32 0x416C726561647920766F74656400000000000000000000000000000000000000 PUSH0 DUP3 ADD MSTORE POP JUMP JUMPDEST PUSH0 PUSH2 0x19A5 PUSH1 0xD DUP4 PUSH2 0x1300 JUMP JUMPDEST SWAP2 POP PUSH2 0x19B0 DUP3 PUSH2 0x1971 JUMP JUMPDEST PUSH1 0x20 DUP3 ADD SWAP1 POP SWAP2 SWAP1 POP JUMP JUMPDEST PUSH0 PUSH1 0x20 DUP3 ADD SWAP1 POP DUP2 DUP2 SUB PUSH0 DUP4 ADD MSTORE PUSH2 0x19D2 DUP2 PUSH2 0x1999 JUMP JUMPDEST SWAP1 POP SWAP2 SWAP1 POP JUMP JUMPDEST PUSH32 0x4D757374206F776E20535020746F20766F746500000000000000000000000000 PUSH0 DUP3 ADD MSTORE POP JUMP JUMPDEST PUSH0 PUSH2 0x1A0D PUSH1 0x13 DUP4 PUSH2 0x1300 JUMP JUMPDEST SWAP2 POP PUSH2 0x1A18 DUP3 PUSH2 0x19D9 JUMP JUMPDEST PUSH1 0x20 DUP3 ADD SWAP1 POP SWAP2 SWAP1 POP JUMP JUMPDEST PUSH0 PUSH1 0x20 DUP3 ADD SWAP1 POP DUP2 DUP2 SUB PUSH0 DUP4 ADD MSTORE PUSH2 0x1A3A DUP2 PUSH2 0x1A01 JUMP JUMPDEST SWAP1 POP SWAP2 SWAP1 POP JUMP JUMPDEST PUSH32 0x4E487B7100000000000000000000000000000000000000000000000000000000 PUSH0 MSTORE PUSH1 0x32 PUSH1 0x4 MSTORE PUSH1 0x24 PUSH0 REVERT JUMPDEST PUSH32 0x4E487B7100000000000000000000000000000000000000000000000000000000 PUSH0 MSTORE PUSH1 0x11 PUSH1 0x4 MSTORE PUSH1 0x24 PUSH0 REVERT JUMPDEST PUSH0 PUSH2 0x1AA5 DUP3 PUSH2 0x1298 JUMP JUMPDEST SWAP2 POP PUSH2 0x1AB0 DUP4 PUSH2 0x1298 JUMP JUMPDEST SWAP3 POP DUP3 DUP3 ADD SWAP1 POP DUP1 DUP3 GT ISZERO PUSH2 0x1AC8 JUMPI PUSH2 0x1AC7 PUSH2 0x1A6E JUMP JUMPDEST JUMPDEST SWAP3 SWAP2 POP POP JUMP JUMPDEST PUSH0 PUSH1 0x40 DUP3 ADD SWAP1 POP PUSH2 0x1AE1 PUSH0 DUP4 ADD DUP6 PUSH2 0x18A3 JUMP JUMPDEST PUSH2 0x1AEE PUSH1 0x20 DUP4 ADD DUP5 PUSH2 0x1366 JUMP JUMPDEST SWAP4 SWAP3 POP POP POP JUMP JUMPDEST PUSH32 0x4E487B7100000000000000000000000000000000000000000000000000000000 PUSH0 MSTORE PUSH1 0x22 PUSH1 0x4 MSTORE PUSH1 0x24 PUSH0 REVERT JUMPDEST PUSH0 PUSH1 0x2 DUP3 DIV SWAP1 POP PUSH1 0x1 DUP3 AND DUP1 PUSH2 0x1B39 JUMPI PUSH1 0x7F DUP3 AND SWAP2 POP JUMPDEST PUSH1 0x20 DUP3 LT DUP2 SUB PUSH2 0x1B4C JUMPI PUSH2 0x1B4B PUSH2 0x1AF5 JUMP JUMPDEST JUMPDEST POP SWAP2 SWAP1 POP JUMP JUMPDEST PUSH32 0x4F6E6C79206F776E65722063616E2063616C6C20746869732066756E6374696F PUSH0 DUP3 ADD MSTORE PUSH32 0x6E00000000000000000000000000000000000000000000000000000000000000 PUSH1 0x20 DUP3 ADD MSTORE POP JUMP JUMPDEST PUSH0 PUSH2 0x1BAC PUSH1 0x21 DUP4 PUSH2 0x1300 JUMP JUMPDEST SWAP2 POP PUSH2 0x1BB7 DUP3 PUSH2 0x1B52 JUMP JUMPDEST PUSH1 0x40 DUP3 ADD SWAP1 POP SWAP2 SWAP1 POP JUMP JUMPDEST PUSH0 PUSH1 0x20 DUP3 ADD SWAP1 POP DUP2 DUP2 SUB PUSH0 DUP4 ADD MSTORE PUSH2 0x1BD9 DUP2 PUSH2 0x1BA0 JUMP JUMPDEST SWAP1 POP SWAP2 SWAP1 POP JUMP JUMPDEST PUSH32 0x50726F706F73616C20616C726561647920657865637574656400000000000000 PUSH0 DUP3 ADD MSTORE POP JUMP JUMPDEST PUSH0 PUSH2 0x1C14 PUSH1 0x19 DUP4 PUSH2 0x1300 JUMP JUMPDEST SWAP2 POP PUSH2 0x1C1F DUP3 PUSH2 0x1BE0 JUMP JUMPDEST PUSH1 0x20 DUP3 ADD SWAP1 POP SWAP2 SWAP1 POP JUMP JUMPDEST PUSH0 PUSH1 0x20 DUP3 ADD SWAP1 POP DUP2 DUP2 SUB PUSH0 DUP4 ADD MSTORE PUSH2 0x1C41 DUP2 PUSH2 0x1C08 JUMP JUMPDEST SWAP1 POP SWAP2 SWAP1 POP JUMP JUMPDEST PUSH0 DUP2 SWAP1 POP DUP2 PUSH0 MSTORE PUSH1 0x20 PUSH0 KECCAK256 SWAP1 POP SWAP2 SWAP1 POP JUMP JUMPDEST PUSH0 DUP2 SLOAD PUSH2 0x1C66 DUP2 PUSH2 0x1B22 JUMP JUMPDEST PUSH2 0x1C70 DUP2 DUP7 PUSH2 0x1300 JUMP JUMPDEST SWAP5 POP PUSH1 0x1 DUP3 AND PUSH0 DUP2 EQ PUSH2 0x1C8A JUMPI PUSH1 0x1 DUP2 EQ PUSH2 0x1CA0 JUMPI PUSH2 0x1CD2 JUMP JUMPDEST PUSH1 0xFF NOT DUP4 AND DUP7 MSTORE DUP2 ISZERO ISZERO PUSH1 0x20 MUL DUP7 ADD SWAP4 POP PUSH2 0x1CD2 JUMP JUMPDEST PUSH2 0x1CA9 DUP6 PUSH2 0x1C48 JUMP JUMPDEST PUSH0 JUMPDEST DUP4 DUP2 LT ISZERO PUSH2 0x1CCA JUMPI DUP2 SLOAD DUP2 DUP10 ADD MSTORE PUSH1 0x1 DUP3 ADD SWAP2 POP PUSH1 0x20 DUP2 ADD SWAP1 POP PUSH2 0x1CAB JUMP JUMPDEST DUP1 DUP9 ADD SWAP6 POP POP POP JUMPDEST POP POP POP SWAP3 SWAP2 POP POP JUMP JUMPDEST PUSH0 PUSH1 0x40 DUP3 ADD SWAP1 POP PUSH2 0x1CEE PUSH0 DUP4 ADD DUP6 PUSH2 0x1366 JUMP JUMPDEST DUP2 DUP2 SUB PUSH1 0x20 DUP4 ADD MSTORE PUSH2 0x1D00 DUP2 DUP5 PUSH2 0x1C5A JUMP JUMPDEST SWAP1 POP SWAP4 SWAP3 POP POP POP JUMP JUMPDEST PUSH32 0x496E73756666696369656E742062616C616E6365000000000000000000000000 PUSH0 DUP3 ADD MSTORE POP JUMP JUMPDEST PUSH0 PUSH2 0x1D3D PUSH1 0x14 DUP4 PUSH2 0x1300 JUMP JUMPDEST SWAP2 POP PUSH2 0x1D48 DUP3 PUSH2 0x1D09 JUMP JUMPDEST PUSH1 0x20 DUP3 ADD SWAP1 POP SWAP2 SWAP1 POP JUMP JUMPDEST PUSH0 PUSH1 0x20 DUP3 ADD SWAP1 POP DUP2 DUP2 SUB PUSH0 DUP4 ADD MSTORE PUSH2 0x1D6A DUP2 PUSH2 0x1D31 JUMP JUMPDEST SWAP1 POP SWAP2 SWAP1 POP JUMP JUMPDEST PUSH32 0x416C6C6F77616E63652065786365656465640000000000000000000000000000 PUSH0 DUP3 ADD MSTORE POP JUMP JUMPDEST PUSH0 PUSH2 0x1DA5 PUSH1 0x12 DUP4 PUSH2 0x1300 JUMP JUMPDEST SWAP2 POP PUSH2 0x1DB0 DUP3 PUSH2 0x1D71 JUMP JUMPDEST PUSH1 0x20 DUP3 ADD SWAP1 POP SWAP2 SWAP1 POP JUMP JUMPDEST PUSH0 PUSH1 0x20 DUP3 ADD SWAP1 POP DUP2 DUP2 SUB PUSH0 DUP4 ADD MSTORE PUSH2 0x1DD2 DUP2 PUSH2 0x1D99 JUMP JUMPDEST SWAP1 POP SWAP2 SWAP1 POP JUMP JUMPDEST PUSH32 0x4E487B7100000000000000000000000000000000000000000000000000000000 PUSH0 MSTORE PUSH1 0x12 PUSH1 0x4 MSTORE PUSH1 0x24 PUSH0 REVERT JUMPDEST PUSH0 PUSH2 0x1E10 DUP3 PUSH2 0x1298 JUMP JUMPDEST SWAP2 POP PUSH2 0x1E1B DUP4 PUSH2 0x1298 JUMP JUMPDEST SWAP3 POP DUP3 PUSH2 0x1E2B JUMPI PUSH2 0x1E2A PUSH2 0x1DD9 JUMP JUMPDEST JUMPDEST DUP3 DUP3 DIV SWAP1 POP SWAP3 SWAP2 POP POP JUMP JUMPDEST PUSH32 0x45786365656473206D6178206F776E6572736869702063617000000000000000 PUSH0 DUP3 ADD MSTORE POP JUMP JUMPDEST PUSH0 PUSH2 0x1E6A PUSH1 0x19 DUP4 PUSH2 0x1300 JUMP JUMPDEST SWAP2 POP PUSH2 0x1E75 DUP3 PUSH2 0x1E36 JUMP JUMPDEST PUSH1 0x20 DUP3 ADD SWAP1 POP SWAP2 SWAP1 POP JUMP JUMPDEST PUSH0 PUSH1 0x20 DUP3 ADD SWAP1 POP DUP2 DUP2 SUB PUSH0 DUP4 ADD MSTORE PUSH2 0x1E97 DUP2 PUSH2 0x1E5E JUMP JUMPDEST SWAP1 POP SWAP2 SWAP1 POP JUMP JUMPDEST PUSH0 PUSH2 0x1EA8 DUP3 PUSH2 0x1298 JUMP JUMPDEST SWAP2 POP PUSH2 0x1EB3 DUP4 PUSH2 0x1298 JUMP JUMPDEST SWAP3 POP DUP3 DUP3 SUB SWAP1 POP DUP2 DUP2 GT ISZERO PUSH2 0x1ECB JUMPI PUSH2 0x1ECA PUSH2 0x1A6E JUMP JUMPDEST JUMPDEST SWAP3 SWAP2 POP POP JUMP JUMPDEST PUSH32 0x4465736372697074696F6E2063616E6E6F7420626520656D7074790000000000 PUSH0 DUP3 ADD MSTORE POP JUMP JUMPDEST PUSH0 PUSH2 0x1F05 PUSH1 0x1B DUP4 PUSH2 0x1300 JUMP JUMPDEST SWAP2 POP PUSH2 0x1F10 DUP3 PUSH2 0x1ED1 JUMP JUMPDEST PUSH1 0x20 DUP3 ADD SWAP1 POP SWAP2 SWAP1 POP JUMP JUMPDEST PUSH0 PUSH1 0x20 DUP3 ADD SWAP1 POP DUP2 DUP2 SUB PUSH0 DUP4 ADD MSTORE PUSH2 0x1F32 DUP2 PUSH2 0x1EF9 JUMP JUMPDEST SWAP1 POP SWAP2 SWAP1 POP JUMP JUMPDEST PUSH0 PUSH1 0x20 PUSH1 0x1F DUP4 ADD DIV SWAP1 POP SWAP2 SWAP1 POP JUMP JUMPDEST PUSH0 DUP3 DUP3 SHL SWAP1 POP SWAP3 SWAP2 POP POP JUMP JUMPDEST PUSH0 PUSH1 0x8 DUP4 MUL PUSH2 0x1F83 PUSH32 0xFFFFFFFFFFFFFFFFFFFFFFFFFFFFFFFFFFFFFFFFFFFFFFFFFFFFFFFFFFFFFFFF DUP3 PUSH2 0x1F48 JUMP JUMPDEST PUSH2 0x1F8D DUP7 DUP4 PUSH2 0x1F48 JUMP JUMPDEST SWAP6 POP DUP1 NOT DUP5 AND SWAP4 POP DUP1 DUP7 AND DUP5 OR SWAP3 POP POP POP SWAP4 SWAP3 POP POP POP JUMP JUMPDEST PUSH0 DUP2 SWAP1 POP SWAP2 SWAP1 POP JUMP JUMPDEST PUSH0 PUSH2 0x1FC8 PUSH2 0x1FC3 PUSH2 0x1FBE DUP5 PUSH2 0x1298 JUMP JUMPDEST PUSH2 0x1FA5 JUMP JUMPDEST PUSH2 0x1298 JUMP JUMPDEST SWAP1 POP SWAP2 SWAP1 POP JUMP JUMPDEST PUSH0 DUP2 SWAP1 POP SWAP2 SWAP1 POP JUMP JUMPDEST PUSH2 0x1FE1 DUP4 PUSH2 0x1FAE JUMP JUMPDEST PUSH2 0x1FF5 PUSH2 0x1FED DUP3 PUSH2 0x1FCF JUMP JUMPDEST DUP5 DUP5 SLOAD PUSH2 0x1F54 JUMP JUMPDEST DUP3 SSTORE POP POP POP POP JUMP JUMPDEST PUSH0 SWAP1 JUMP JUMPDEST PUSH2 0x2009 PUSH2 0x1FFD JUMP JUMPDEST PUSH2 0x2014 DUP2 DUP5 DUP5 PUSH2 0x1FD8 JUMP JUMPDEST POP POP POP JUMP JUMPDEST JUMPDEST DUP2 DUP2 LT ISZERO PUSH2 0x2037 JUMPI PUSH2 0x202C PUSH0 DUP3 PUSH2 0x2001 JUMP JUMPDEST PUSH1 0x1 DUP2 ADD SWAP1 POP PUSH2 0x201A JUMP JUMPDEST POP POP JUMP JUMPDEST PUSH1 0x1F DUP3 GT ISZERO PUSH2 0x207C JUMPI PUSH2 0x204D DUP2 PUSH2 0x1C48 JUMP JUMPDEST PUSH2 0x2056 DUP5 PUSH2 0x1F39 JUMP JUMPDEST DUP2 ADD PUSH1 0x20 DUP6 LT ISZERO PUSH2 0x2065 JUMPI DUP2 SWAP1 POP JUMPDEST PUSH2 0x2079 PUSH2 0x2071 DUP6 PUSH2 0x1F39 JUMP JUMPDEST DUP4 ADD DUP3 PUSH2 0x2019 JUMP JUMPDEST POP POP JUMPDEST POP POP POP JUMP JUMPDEST PUSH0 DUP3 DUP3 SHR SWAP1 POP SWAP3 SWAP2 POP POP JUMP JUMPDEST PUSH0 PUSH2 0x209C PUSH0 NOT DUP5 PUSH1 0x8 MUL PUSH2 0x2081 JUMP JUMPDEST NOT DUP1 DUP4 AND SWAP2 POP POP SWAP3 SWAP2 POP POP JUMP JUMPDEST PUSH0 PUSH2 0x20B4 DUP4 DUP4 PUSH2 0x208D JUMP JUMPDEST SWAP2 POP DUP3 PUSH1 0x2 MUL DUP3 OR SWAP1 POP SWAP3 SWAP2 POP POP JUMP JUMPDEST PUSH2 0x20CD DUP3 PUSH2 0x12F6 JUMP JUMPDEST PUSH8 0xFFFFFFFFFFFFFFFF DUP2 GT ISZERO PUSH2 0x20E6 JUMPI PUSH2 0x20E5 PUSH2 0x156C JUMP JUMPDEST JUMPDEST PUSH2 0x20F0 DUP3 SLOAD PUSH2 0x1B22 JUMP JUMPDEST PUSH2 0x20FB DUP3 DUP3 DUP6 PUSH2 0x203B JUMP JUMPDEST PUSH0 PUSH1 0x20 SWAP1 POP PUSH1 0x1F DUP4 GT PUSH1 0x1 DUP2 EQ PUSH2 0x212C JUMPI PUSH0 DUP5 ISZERO PUSH2 0x211A JUMPI DUP3 DUP8 ADD MLOAD SWAP1 POP JUMPDEST PUSH2 0x2124 DUP6 DUP3 PUSH2 0x20A9 JUMP JUMPDEST DUP7 SSTORE POP PUSH2 0x218B JUMP JUMPDEST PUSH1 0x1F NOT DUP5 AND PUSH2 0x213A DUP7 PUSH2 0x1C48 JUMP JUMPDEST PUSH0 JUMPDEST DUP3 DUP2 LT ISZERO PUSH2 0x2161 JUMPI DUP5 DUP10 ADD MLOAD DUP3 SSTORE PUSH1 0x1 DUP3 ADD SWAP2 POP PUSH1 0x20 DUP6 ADD SWAP5 POP PUSH1 0x20 DUP2 ADD SWAP1 POP PUSH2 0x213C JUMP JUMPDEST DUP7 DUP4 LT ISZERO PUSH2 0x217E JUMPI DUP5 DUP10 ADD MLOAD PUSH2 0x217A PUSH1 0x1F DUP10 AND DUP3 PUSH2 0x208D JUMP JUMPDEST DUP4 SSTORE POP JUMPDEST PUSH1 0x1 PUSH1 0x2 DUP9 MUL ADD DUP9 SSTORE POP POP POP JUMPDEST POP POP POP POP POP POP JUMP JUMPDEST PUSH0 PUSH1 0x40 DUP3 ADD SWAP1 POP PUSH2 0x21A6 PUSH0 DUP4 ADD DUP6 PUSH2 0x1366 JUMP JUMPDEST DUP2 DUP2 SUB PUSH1 0x20 DUP4 ADD MSTORE PUSH2 0x21B8 DUP2 DUP5 PUSH2 0x132E JUMP JUMPDEST SWAP1 POP SWAP4 SWAP3 POP POP POP JUMP INVALID LOG2 PUSH5 0x6970667358 0x22 SLT KECCAK256 0x1E CREATE MOD 0x2E PUSH9 0x4E54CD7FF64007D00A RETURN 0xB7 0xD8 CALLER CALLDATACOPY ADD DUP5 0xEC DUP13 JUMP OR STOP DUP3 0xBC 0x4C 0xFB SDIV SWAP15 PUSH5 0x736F6C6343 STOP ADDMOD BYTE STOP CALLER "
				},
				"gasEstimates": {
					"creation": {
						"codeDepositCost": "1739000",
						"executionCost": "infinite",
						"totalCost": "infinite"
					},
					"external": {
						"allowance(address,address)": "infinite",
						"approve(address,uint256)": "infinite",
						"balanceOf(address)": "2851",
						"balances(address)": "2890",
						"contractOwner()": "2596",
						"createProposal(string)": "infinite",
						"decimals()": "2489",
						"executeProposal(uint256)": "infinite",
						"getProposals()": "infinite",
						"name()": "infinite",
						"proposals(uint256)": "infinite",
						"symbol()": "infinite",
						"totalSupply()": "2470",
						"transfer(address,uint256)": "infinite",
						"transferFrom(address,address,uint256)": "infinite",
						"vote(uint256)": "infinite",
						"voted(uint256,address)": "3138"
					}
				},
				"methodIdentifiers": {
					"allowance(address,address)": "dd62ed3e",
					"approve(address,uint256)": "095ea7b3",
					"balanceOf(address)": "70a08231",
					"balances(address)": "27e235e3",
					"contractOwner()": "ce606ee0",
					"createProposal(string)": "49c2a1a6",
					"decimals()": "313ce567",
					"executeProposal(uint256)": "0d61b519",
					"getProposals()": "62564c48",
					"name()": "06fdde03",
					"proposals(uint256)": "013cf08b",
					"symbol()": "95d89b41",
					"totalSupply()": "18160ddd",
					"transfer(address,uint256)": "a9059cbb",
					"transferFrom(address,address,uint256)": "23b872dd",
					"vote(uint256)": "0121b93f",
					"voted(uint256,address)": "5277b4ae"
				}
			},
			"storageLayout": {
				"storage": [
					{
						"astId": 139,
						"contract": "SportCrypto.sol:Sportcrypto",
						"label": "balances",
						"offset": 0,
						"slot": "0",
						"type": "t_mapping(t_address,t_uint256)"
					},
					{
						"astId": 145,
						"contract": "SportCrypto.sol:Sportcrypto",
						"label": "allowance",
						"offset": 0,
						"slot": "1",
						"type": "t_mapping(t_address,t_mapping(t_address,t_uint256))"
					},
					{
						"astId": 152,
						"contract": "SportCrypto.sol:Sportcrypto",
						"label": "totalSupply",
						"offset": 0,
						"slot": "2",
						"type": "t_uint256"
					},
					{
						"astId": 155,
						"contract": "SportCrypto.sol:Sportcrypto",
						"label": "name",
						"offset": 0,
						"slot": "3",
						"type": "t_string_storage"
					},
					{
						"astId": 158,
						"contract": "SportCrypto.sol:Sportcrypto",
						"label": "symbol",
						"offset": 0,
						"slot": "4",
						"type": "t_string_storage"
					},
					{
						"astId": 161,
						"contract": "SportCrypto.sol:Sportcrypto",
						"label": "decimals",
						"offset": 0,
						"slot": "5",
						"type": "t_uint8"
					},
					{
						"astId": 172,
						"contract": "SportCrypto.sol:Sportcrypto",
						"label": "proposals",
						"offset": 0,
						"slot": "6",
						"type": "t_array(t_struct(Proposal)168_storage)dyn_storage"
					},
					{
						"astId": 178,
						"contract": "SportCrypto.sol:Sportcrypto",
						"label": "voted",
						"offset": 0,
						"slot": "7",
						"type": "t_mapping(t_uint256,t_mapping(t_address,t_bool))"
					},
					{
						"astId": 180,
						"contract": "SportCrypto.sol:Sportcrypto",
						"label": "contractOwner",
						"offset": 0,
						"slot": "8",
						"type": "t_address"
					}
				],
				"types": {
					"t_address": {
						"encoding": "inplace",
						"label": "address",
						"numberOfBytes": "20"
					},
					"t_array(t_struct(Proposal)168_storage)dyn_storage": {
						"base": "t_struct(Proposal)168_storage",
						"encoding": "dynamic_array",
						"label": "struct Sportcrypto.Proposal[]",
						"numberOfBytes": "32"
					},
					"t_bool": {
						"encoding": "inplace",
						"label": "bool",
						"numberOfBytes": "1"
					},
					"t_mapping(t_address,t_bool)": {
						"encoding": "mapping",
						"key": "t_address",
						"label": "mapping(address => bool)",
						"numberOfBytes": "32",
						"value": "t_bool"
					},
					"t_mapping(t_address,t_mapping(t_address,t_uint256))": {
						"encoding": "mapping",
						"key": "t_address",
						"label": "mapping(address => mapping(address => uint256))",
						"numberOfBytes": "32",
						"value": "t_mapping(t_address,t_uint256)"
					},
					"t_mapping(t_address,t_uint256)": {
						"encoding": "mapping",
						"key": "t_address",
						"label": "mapping(address => uint256)",
						"numberOfBytes": "32",
						"value": "t_uint256"
					},
					"t_mapping(t_uint256,t_mapping(t_address,t_bool))": {
						"encoding": "mapping",
						"key": "t_uint256",
						"label": "mapping(uint256 => mapping(address => bool))",
						"numberOfBytes": "32",
						"value": "t_mapping(t_address,t_bool)"
					},
					"t_string_storage": {
						"encoding": "bytes",
						"label": "string",
						"numberOfBytes": "32"
					},
					"t_struct(Proposal)168_storage": {
						"encoding": "inplace",
						"label": "struct Sportcrypto.Proposal",
						"members": [
							{
								"astId": 163,
								"contract": "SportCrypto.sol:Sportcrypto",
								"label": "description",
								"offset": 0,
								"slot": "0",
								"type": "t_string_storage"
							},
							{
								"astId": 165,
								"contract": "SportCrypto.sol:Sportcrypto",
								"label": "voteCount",
								"offset": 0,
								"slot": "1",
								"type": "t_uint256"
							},
							{
								"astId": 167,
								"contract": "SportCrypto.sol:Sportcrypto",
								"label": "executed",
								"offset": 0,
								"slot": "2",
								"type": "t_bool"
							}
						],
						"numberOfBytes": "96"
					},
					"t_uint256": {
						"encoding": "inplace",
						"label": "uint256",
						"numberOfBytes": "32"
					},
					"t_uint8": {
						"encoding": "inplace",
						"label": "uint8",
						"numberOfBytes": "1"
					}
				}
			},
			"userdoc": {
				"kind": "user",
				"methods": {},
				"version": 1
			}
		}
	}
}